{
  "_format": "hh-sol-artifact-1",
  "contractName": "UmpireFormulaResolver",
  "sourceName": "contracts/UmpireFormulaResolver.sol",
  "abi": [
    {
      "inputs": [
        {
          "internalType": "address",
          "name": "_priceFeed",
          "type": "address"
        }
      ],
      "name": "getFeedValue",
      "outputs": [
        {
          "internalType": "int256",
          "name": "",
          "type": "int256"
        }
      ],
      "stateMutability": "view",
      "type": "function"
    },
    {
      "inputs": [
        {
          "components": [
            {
              "internalType": "int256",
              "name": "value",
              "type": "int256"
            },
            {
              "internalType": "enum PostfixNodeType",
              "name": "nodeType",
              "type": "uint8"
            },
            {
              "internalType": "enum PostfixNodeOperator",
              "name": "operator",
              "type": "uint8"
            },
            {
              "internalType": "uint8",
              "name": "variableIndex",
              "type": "uint8"
            }
          ],
          "internalType": "struct PostfixNode[]",
          "name": "_postfixNodes",
          "type": "tuple[]"
        },
        {
          "internalType": "int256[]",
          "name": "_variables",
          "type": "int256[]"
        }
      ],
      "name": "resolve",
      "outputs": [
        {
          "internalType": "int256",
          "name": "",
          "type": "int256"
        }
      ],
      "stateMutability": "pure",
      "type": "function"
    },
    {
      "inputs": [
        {
          "internalType": "string",
          "name": "_formula",
          "type": "string"
        },
        {
          "internalType": "int256[]",
          "name": "_values",
          "type": "int256[]"
        },
        {
          "internalType": "int256[]",
          "name": "_variables",
          "type": "int256[]"
        }
      ],
      "name": "resolveFormula",
      "outputs": [
        {
          "internalType": "int256",
          "name": "",
          "type": "int256"
        }
      ],
      "stateMutability": "pure",
      "type": "function"
    },
    {
      "inputs": [
        {
          "internalType": "string",
          "name": "_formula",
          "type": "string"
        },
        {
          "internalType": "int256[]",
          "name": "_values",
          "type": "int256[]"
        }
      ],
      "name": "stringToNodes",
      "outputs": [
        {
          "components": [
            {
              "internalType": "int256",
              "name": "value",
              "type": "int256"
            },
            {
              "internalType": "enum PostfixNodeType",
              "name": "nodeType",
              "type": "uint8"
            },
            {
              "internalType": "enum PostfixNodeOperator",
              "name": "operator",
              "type": "uint8"
            },
            {
              "internalType": "uint8",
              "name": "variableIndex",
              "type": "uint8"
            }
          ],
          "internalType": "struct PostfixNode[]",
          "name": "",
          "type": "tuple[]"
        }
      ],
      "stateMutability": "pure",
      "type": "function"
    }
  ],
  "bytecode": "0x608060405234801561001057600080fd5b50611f12806100206000396000f3fe608060405234801561001057600080fd5b506004361061004c5760003560e01c806339fd7ccc146100515780635a044aaf14610081578063bb2ffa43146100b1578063e4b39308146100e1575b600080fd5b61006b6004803603810190610066919061123b565b610111565b60405161007891906112f1565b60405180910390f35b61009b6004803603810190610096919061136a565b61012f565b6040516100a891906112f1565b60405180910390f35b6100cb60048036038101906100c69190611397565b6101b6565b6040516100d891906115fd565b60405180910390f35b6100fb60048036038101906100f691906117d5565b6106d5565b60405161010891906112f1565b60405180910390f35b600061012661012085856101b6565b836106d5565b90509392505050565b60008082905060008173ffffffffffffffffffffffffffffffffffffffff1663feaf968c6040518163ffffffff1660e01b815260040160a060405180830381865afa158015610182573d6000803e3d6000fd5b505050506040513d601f19601f820116820180604052508101906101a691906118da565b5050509150508092505050919050565b6060600083905060008151905060005b82518110156102c1577f560000000000000000000000000000000000000000000000000000000000000083828151811061020357610202611955565b5b602001015160f81c60f81b7effffffffffffffffffffffffffffffffffffffffffffffffffffffffffffff1916148061029a57507f580000000000000000000000000000000000000000000000000000000000000083828151811061026b5761026a611955565b5b602001015160f81c60f81b7effffffffffffffffffffffffffffffffffffffffffffffffffffffffffffff1916145b156102ae5781806102aa906119b3565b9250505b80806102b9906119dc565b9150506101c6565b5060008060008367ffffffffffffffff8111156102e1576102e0611012565b5b60405190808252806020026020018201604052801561031a57816020015b610307610f94565b8152602001906001900390816102ff5790505b5090506000805b86518110156106c5577f560000000000000000000000000000000000000000000000000000000000000087828151811061035e5761035d611955565b5b602001015160f81c60f81b7effffffffffffffffffffffffffffffffffffffffffffffffffffffffffffff19160361039957600194506106b2565b7f58000000000000000000000000000000000000000000000000000000000000008782815181106103cd576103cc611955565b5b602001015160f81c60f81b7effffffffffffffffffffffffffffffffffffffffffffffffffffffffffffff19160361040857600193506106b2565b84156104da576000945060405180608001604052808a60308a858151811061043357610432611955565b5b602001015160f81c60f81b60f81c61044b9190611a24565b60ff168151811061045f5761045e611955565b5b60200260200101518152602001600060028111156104805761047f61144a565b5b8152602001600060098111156104995761049861144a565b5b8152602001600060ff16815250838360ff16815181106104bc576104bb611955565b5b602002602001018190525081806104d290611a59565b9250506106b1565b831561058f57600093506040518060800160405280600081526020016001600281111561050a5761050961144a565b5b8152602001600060098111156105235761052261144a565b5b8152602001603089848151811061053d5761053c611955565b5b602001015160f81c60f81b60f81c6105559190611a24565b60ff16815250838360ff168151811061057157610570611955565b5b6020026020010181905250818061058790611a59565b9250506106b0565b7f2b000000000000000000000000000000000000000000000000000000000000008782815181106105c3576105c2611955565b5b602001015160f81c60f81b7effffffffffffffffffffffffffffffffffffffffffffffffffffffffffffff1916036106745760405180608001604052806000815260200160028081111561061a5761061961144a565b5b8152602001600060098111156106335761063261144a565b5b8152602001600060ff16815250838360ff168151811061065657610655611955565b5b6020026020010181905250818061066c90611a59565b9250506106af565b6040517f08c379a00000000000000000000000000000000000000000000000000000000081526004016106a690611adf565b60405180910390fd5b5b5b5b80806106bd906119dc565b915050610321565b5081965050505050505092915050565b60008083511161071a576040517f08c379a000000000000000000000000000000000000000000000000000000000815260040161071190611b4b565b60405180910390fd5b600061010067ffffffffffffffff81111561073857610737611012565b5b6040519080825280602002602001820160405280156107665781602001602082028036833780820191505090505b509050600080600090505b8551811015610f27576001600281111561078e5761078d61144a565b5b8682815181106107a1576107a0611955565b5b60200260200101516020015160028111156107bf576107be61144a565b5b0361086f5760008682815181106107d9576107d8611955565b5b60200260200101516020019060028111156107f7576107f661144a565b5b9081600281111561080b5761080a61144a565b5b815250508486828151811061082357610822611955565b5b60200260200101516060015160ff168151811061084357610842611955565b5b602002602001015186828151811061085e5761085d611955565b5b602002602001015160000181815250505b600060028111156108835761088261144a565b5b86828151811061089657610895611955565b5b60200260200101516020015160028111156108b4576108b361144a565b5b0361090d578581815181106108cc576108cb611955565b5b602002602001015160000151838360ff16815181106108ee576108ed611955565b5b602002602001018181525050818061090590611a59565b925050610f14565b6002808111156109205761091f61144a565b5b86828151811061093357610932611955565b5b60200260200101516020015160028111156109515761095061144a565b5b14610991576040517f08c379a000000000000000000000000000000000000000000000000000000000815260040161098890611bb7565b60405180910390fd5b600060098111156109a5576109a461144a565b5b8682815181106109b8576109b7611955565b5b60200260200101516040015160098111156109d6576109d561144a565b5b03610ac75760028260ff161015610a22576040517f08c379a0000000000000000000000000000000000000000000000000000000008152600401610a1990611c23565b60405180910390fd5b600083600184610a329190611a24565b60ff1681518110610a4657610a45611955565b5b602002602001015184600285610a5c9190611a24565b60ff1681518110610a7057610a6f611955565b5b6020026020010151610a829190611c43565b90508084600285610a939190611a24565b60ff1681518110610aa757610aa6611955565b5b6020026020010181815250508280610abe90611c87565b93505050610f13565b60016009811115610adb57610ada61144a565b5b868281518110610aee57610aed611955565b5b6020026020010151604001516009811115610b0c57610b0b61144a565b5b03610bfd5760028260ff161015610b58576040517f08c379a0000000000000000000000000000000000000000000000000000000008152600401610b4f90611c23565b60405180910390fd5b600083600184610b689190611a24565b60ff1681518110610b7c57610b7b611955565b5b602002602001015184600285610b929190611a24565b60ff1681518110610ba657610ba5611955565b5b6020026020010151610bb89190611cb0565b90508084600285610bc99190611a24565b60ff1681518110610bdd57610bdc611955565b5b6020026020010181815250508280610bf490611c87565b93505050610f12565b60026009811115610c1157610c1061144a565b5b868281518110610c2457610c23611955565b5b6020026020010151604001516009811115610c4257610c4161144a565b5b03610d335760028260ff161015610c8e576040517f08c379a0000000000000000000000000000000000000000000000000000000008152600401610c8590611c23565b60405180910390fd5b600083600184610c9e9190611a24565b60ff1681518110610cb257610cb1611955565b5b602002602001015184600285610cc89190611a24565b60ff1681518110610cdc57610cdb611955565b5b6020026020010151610cee9190611cf3565b90508084600285610cff9190611a24565b60ff1681518110610d1357610d12611955565b5b6020026020010181815250508280610d2a90611c87565b93505050610f11565b60036009811115610d4757610d4661144a565b5b868281518110610d5a57610d59611955565b5b6020026020010151604001516009811115610d7857610d7761144a565b5b03610ed55760028260ff161015610dc4576040517f08c379a0000000000000000000000000000000000000000000000000000000008152600401610dbb90611c23565b60405180910390fd5b600083600184610dd49190611a24565b60ff1681518110610de857610de7611955565b5b602002602001015103610e30576040517f08c379a0000000000000000000000000000000000000000000000000000000008152600401610e2790611db7565b60405180910390fd5b600083600184610e409190611a24565b60ff1681518110610e5457610e53611955565b5b602002602001015184600285610e6a9190611a24565b60ff1681518110610e7e57610e7d611955565b5b6020026020010151610e909190611e06565b90508084600285610ea19190611a24565b60ff1681518110610eb557610eb4611955565b5b6020026020010181815250508280610ecc90611c87565b93505050610f10565b6040517f08c379a0000000000000000000000000000000000000000000000000000000008152600401610f0790611ebc565b60405180910390fd5b5b5b5b5b8080610f1f906119dc565b915050610771565b5060018160ff1614610f6e576040517f08c379a0000000000000000000000000000000000000000000000000000000008152600401610f6590611c23565b60405180910390fd5b81600081518110610f8257610f81611955565b5b60200260200101519250505092915050565b60405180608001604052806000815260200160006002811115610fba57610fb961144a565b5b815260200160006009811115610fd357610fd261144a565b5b8152602001600060ff1681525090565b6000604051905090565b600080fd5b600080fd5b600080fd5b600080fd5b6000601f19601f8301169050919050565b7f4e487b7100000000000000000000000000000000000000000000000000000000600052604160045260246000fd5b61104a82611001565b810181811067ffffffffffffffff8211171561106957611068611012565b5b80604052505050565b600061107c610fe3565b90506110888282611041565b919050565b600067ffffffffffffffff8211156110a8576110a7611012565b5b6110b182611001565b9050602081019050919050565b82818337600083830152505050565b60006110e06110db8461108d565b611072565b9050828152602081018484840111156110fc576110fb610ffc565b5b6111078482856110be565b509392505050565b600082601f83011261112457611123610ff7565b5b81356111348482602086016110cd565b91505092915050565b600067ffffffffffffffff82111561115857611157611012565b5b602082029050602081019050919050565b600080fd5b6000819050919050565b6111818161116e565b811461118c57600080fd5b50565b60008135905061119e81611178565b92915050565b60006111b76111b28461113d565b611072565b905080838252602082019050602084028301858111156111da576111d9611169565b5b835b8181101561120357806111ef888261118f565b8452602084019350506020810190506111dc565b5050509392505050565b600082601f83011261122257611221610ff7565b5b81356112328482602086016111a4565b91505092915050565b60008060006060848603121561125457611253610fed565b5b600084013567ffffffffffffffff81111561127257611271610ff2565b5b61127e8682870161110f565b935050602084013567ffffffffffffffff81111561129f5761129e610ff2565b5b6112ab8682870161120d565b925050604084013567ffffffffffffffff8111156112cc576112cb610ff2565b5b6112d88682870161120d565b9150509250925092565b6112eb8161116e565b82525050565b600060208201905061130660008301846112e2565b92915050565b600073ffffffffffffffffffffffffffffffffffffffff82169050919050565b60006113378261130c565b9050919050565b6113478161132c565b811461135257600080fd5b50565b6000813590506113648161133e565b92915050565b6000602082840312156113805761137f610fed565b5b600061138e84828501611355565b91505092915050565b600080604083850312156113ae576113ad610fed565b5b600083013567ffffffffffffffff8111156113cc576113cb610ff2565b5b6113d88582860161110f565b925050602083013567ffffffffffffffff8111156113f9576113f8610ff2565b5b6114058582860161120d565b9150509250929050565b600081519050919050565b600082825260208201905092915050565b6000819050602082019050919050565b6114448161116e565b82525050565b7f4e487b7100000000000000000000000000000000000000000000000000000000600052602160045260246000fd5b6003811061148a5761148961144a565b5b50565b600081905061149b82611479565b919050565b60006114ab8261148d565b9050919050565b6114bb816114a0565b82525050565b600a81106114d2576114d161144a565b5b50565b60008190506114e3826114c1565b919050565b60006114f3826114d5565b9050919050565b611503816114e8565b82525050565b600060ff82169050919050565b61151f81611509565b82525050565b60808201600082015161153b600085018261143b565b50602082015161154e60208501826114b2565b50604082015161156160408501826114fa565b5060608201516115746060850182611516565b50505050565b60006115868383611525565b60808301905092915050565b6000602082019050919050565b60006115aa8261140f565b6115b4818561141a565b93506115bf8361142b565b8060005b838110156115f05781516115d7888261157a565b97506115e283611592565b9250506001810190506115c3565b5085935050505092915050565b60006020820190508181036000830152611617818461159f565b905092915050565b600067ffffffffffffffff82111561163a57611639611012565b5b602082029050602081019050919050565b600080fd5b6003811061165d57600080fd5b50565b60008135905061166f81611650565b92915050565b600a811061168257600080fd5b50565b60008135905061169481611675565b92915050565b6116a381611509565b81146116ae57600080fd5b50565b6000813590506116c08161169a565b92915050565b6000608082840312156116dc576116db61164b565b5b6116e66080611072565b905060006116f68482850161118f565b600083015250602061170a84828501611660565b602083015250604061171e84828501611685565b6040830152506060611732848285016116b1565b60608301525092915050565b600061175161174c8461161f565b611072565b9050808382526020820190506080840283018581111561177457611773611169565b5b835b8181101561179d578061178988826116c6565b845260208401935050608081019050611776565b5050509392505050565b600082601f8301126117bc576117bb610ff7565b5b81356117cc84826020860161173e565b91505092915050565b600080604083850312156117ec576117eb610fed565b5b600083013567ffffffffffffffff81111561180a57611809610ff2565b5b611816858286016117a7565b925050602083013567ffffffffffffffff81111561183757611836610ff2565b5b6118438582860161120d565b9150509250929050565b600069ffffffffffffffffffff82169050919050565b61186c8161184d565b811461187757600080fd5b50565b60008151905061188981611863565b92915050565b60008151905061189e81611178565b92915050565b6000819050919050565b6118b7816118a4565b81146118c257600080fd5b50565b6000815190506118d4816118ae565b92915050565b600080600080600060a086880312156118f6576118f5610fed565b5b60006119048882890161187a565b95505060206119158882890161188f565b9450506040611926888289016118c5565b9350506060611937888289016118c5565b92505060806119488882890161187a565b9150509295509295909350565b7f4e487b7100000000000000000000000000000000000000000000000000000000600052603260045260246000fd5b7f4e487b7100000000000000000000000000000000000000000000000000000000600052601160045260246000fd5b60006119be826118a4565b9150600082036119d1576119d0611984565b5b600182039050919050565b60006119e7826118a4565b91507fffffffffffffffffffffffffffffffffffffffffffffffffffffffffffffffff8203611a1957611a18611984565b5b600182019050919050565b6000611a2f82611509565b9150611a3a83611509565b9250828203905060ff811115611a5357611a52611984565b5b92915050565b6000611a6482611509565b915060ff8203611a7757611a76611984565b5b600182019050919050565b600082825260208201905092915050565b7f4e6f7420696d706c656d656e7465640000000000000000000000000000000000600082015250565b6000611ac9600f83611a82565b9150611ad482611a93565b602082019050919050565b60006020820190508181036000830152611af881611abc565b9050919050565b7f50726f76696465206e6f64657300000000000000000000000000000000000000600082015250565b6000611b35600d83611a82565b9150611b4082611aff565b602082019050919050565b60006020820190508181036000830152611b6481611b28565b9050919050565b7f42726f6b656e206e6f6465000000000000000000000000000000000000000000600082015250565b6000611ba1600b83611a82565b9150611bac82611b6b565b602082019050919050565b60006020820190508181036000830152611bd081611b94565b9050919050565b7f42726f6b656e20737461636b0000000000000000000000000000000000000000600082015250565b6000611c0d600c83611a82565b9150611c1882611bd7565b602082019050919050565b60006020820190508181036000830152611c3c81611c00565b9050919050565b6000611c4e8261116e565b9150611c598361116e565b925082820190508281121560008312168382126000841215161715611c8157611c80611984565b5b92915050565b6000611c9282611509565b915060008203611ca557611ca4611984565b5b600182039050919050565b6000611cbb8261116e565b9150611cc68361116e565b9250828203905081811260008412168282136000851215161715611ced57611cec611984565b5b92915050565b6000611cfe8261116e565b9150611d098361116e565b9250828202611d178161116e565b91507f80000000000000000000000000000000000000000000000000000000000000008414600084121615611d4f57611d4e611984565b5b8282058414831517611d6457611d63611984565b5b5092915050565b7f4469766973696f6e206279203000000000000000000000000000000000000000600082015250565b6000611da1600d83611a82565b9150611dac82611d6b565b602082019050919050565b60006020820190508181036000830152611dd081611d94565b9050919050565b7f4e487b7100000000000000000000000000000000000000000000000000000000600052601260045260246000fd5b6000611e118261116e565b9150611e1c8361116e565b925082611e2c57611e2b611dd7565b5b600160000383147f800000000000000000000000000000000000000000000000000000000000000083141615611e6557611e64611984565b5b828205905092915050565b7f556e6b6e6f776e206f70657261746f7200000000000000000000000000000000600082015250565b6000611ea6601083611a82565b9150611eb182611e70565b602082019050919050565b60006020820190508181036000830152611ed581611e99565b905091905056fea26469706673582212207232cb354b4852a320ccbc5d91574e3940ac4a5f2517494c9938e56e3466292a64736f6c63430008110033",
  "linkReferences": {},
  "deployedLinkReferences": {}
}