{
  "_format": "hh-sol-artifact-1",
  "contractName": "PYMWYMI",
  "sourceName": "contracts/examples/PYMWYMI.sol",
  "abi": [
    {
      "anonymous": false,
      "inputs": [
        {
          "indexed": true,
          "internalType": "address",
          "name": "previousOwner",
          "type": "address"
        },
        {
          "indexed": true,
          "internalType": "address",
          "name": "newOwner",
          "type": "address"
        }
      ],
      "name": "OwnershipTransferred",
      "type": "event"
    },
    {
      "anonymous": false,
      "inputs": [
        {
          "indexed": false,
          "internalType": "bool",
          "name": "outcome",
          "type": "bool"
        }
      ],
      "name": "PYMWYMIBetResolved",
      "type": "event"
    },
    {
      "inputs": [
        {
          "internalType": "address",
          "name": "_registry",
          "type": "address"
        },
        {
          "internalType": "uint256",
          "name": "_jobId",
          "type": "uint256"
        }
      ],
      "name": "actionSetup",
      "outputs": [],
      "stateMutability": "nonpayable",
      "type": "function"
    },
    {
      "inputs": [
        {
          "internalType": "bool",
          "name": "_expectedResult",
          "type": "bool"
        }
      ],
      "name": "depositFunds",
      "outputs": [],
      "stateMutability": "payable",
      "type": "function"
    },
    {
      "inputs": [
        {
          "internalType": "address",
          "name": "_address",
          "type": "address"
        }
      ],
      "name": "getWithdrawalLimit",
      "outputs": [
        {
          "internalType": "uint256",
          "name": "",
          "type": "uint256"
        }
      ],
      "stateMutability": "view",
      "type": "function"
    },
    {
      "inputs": [],
      "name": "negativeAction",
      "outputs": [],
      "stateMutability": "nonpayable",
      "type": "function"
    },
    {
      "inputs": [],
      "name": "owner",
      "outputs": [
        {
          "internalType": "address",
          "name": "",
          "type": "address"
        }
      ],
      "stateMutability": "view",
      "type": "function"
    },
    {
      "inputs": [],
      "name": "positiveAction",
      "outputs": [],
      "stateMutability": "nonpayable",
      "type": "function"
    },
    {
      "inputs": [],
      "name": "renounceOwnership",
      "outputs": [],
      "stateMutability": "nonpayable",
      "type": "function"
    },
    {
      "inputs": [
        {
          "internalType": "address",
          "name": "",
          "type": "address"
        }
      ],
      "name": "s_betsNegative",
      "outputs": [
        {
          "internalType": "uint256",
          "name": "",
          "type": "uint256"
        }
      ],
      "stateMutability": "view",
      "type": "function"
    },
    {
      "inputs": [],
      "name": "s_betsNegativeTotal",
      "outputs": [
        {
          "internalType": "uint256",
          "name": "",
          "type": "uint256"
        }
      ],
      "stateMutability": "view",
      "type": "function"
    },
    {
      "inputs": [
        {
          "internalType": "address",
          "name": "",
          "type": "address"
        }
      ],
      "name": "s_betsPositive",
      "outputs": [
        {
          "internalType": "uint256",
          "name": "",
          "type": "uint256"
        }
      ],
      "stateMutability": "view",
      "type": "function"
    },
    {
      "inputs": [],
      "name": "s_betsPositiveTotal",
      "outputs": [
        {
          "internalType": "uint256",
          "name": "",
          "type": "uint256"
        }
      ],
      "stateMutability": "view",
      "type": "function"
    },
    {
      "inputs": [],
      "name": "s_betsTotal",
      "outputs": [
        {
          "internalType": "uint256",
          "name": "",
          "type": "uint256"
        }
      ],
      "stateMutability": "view",
      "type": "function"
    },
    {
      "inputs": [],
      "name": "s_dust",
      "outputs": [
        {
          "internalType": "uint256",
          "name": "",
          "type": "uint256"
        }
      ],
      "stateMutability": "view",
      "type": "function"
    },
    {
      "inputs": [],
      "name": "s_initialized",
      "outputs": [
        {
          "internalType": "bool",
          "name": "",
          "type": "bool"
        }
      ],
      "stateMutability": "view",
      "type": "function"
    },
    {
      "inputs": [],
      "name": "s_status",
      "outputs": [
        {
          "internalType": "enum PYMWYMIStatus",
          "name": "",
          "type": "uint8"
        }
      ],
      "stateMutability": "view",
      "type": "function"
    },
    {
      "inputs": [],
      "name": "s_umpireJobId",
      "outputs": [
        {
          "internalType": "uint256",
          "name": "",
          "type": "uint256"
        }
      ],
      "stateMutability": "view",
      "type": "function"
    },
    {
      "inputs": [],
      "name": "s_umpireRegistry",
      "outputs": [
        {
          "internalType": "address",
          "name": "",
          "type": "address"
        }
      ],
      "stateMutability": "view",
      "type": "function"
    },
    {
      "inputs": [
        {
          "internalType": "address",
          "name": "newOwner",
          "type": "address"
        }
      ],
      "name": "transferOwnership",
      "outputs": [],
      "stateMutability": "nonpayable",
      "type": "function"
    },
    {
      "inputs": [],
      "name": "withdrawDust",
      "outputs": [],
      "stateMutability": "nonpayable",
      "type": "function"
    },
    {
      "inputs": [],
      "name": "withdrawFunds",
      "outputs": [],
      "stateMutability": "nonpayable",
      "type": "function"
    }
  ],
  "bytecode": "0x60806040526000600360006101000a81548160ff02191690831515021790555034801561002b57600080fd5b5061004861003d61004d60201b60201c565b61005560201b60201c565b610119565b600033905090565b60008060009054906101000a900473ffffffffffffffffffffffffffffffffffffffff169050816000806101000a81548173ffffffffffffffffffffffffffffffffffffffff021916908373ffffffffffffffffffffffffffffffffffffffff1602179055508173ffffffffffffffffffffffffffffffffffffffff168173ffffffffffffffffffffffffffffffffffffffff167f8be0079c531659141344cd1fd0a4f28419497f9722a3daafe3b4186f6b6457e060405160405180910390a35050565b611cb4806101286000396000f3fe60806040526004361061011f5760003560e01c8063a10a6df3116100a0578063cfb550f111610064578063cfb550f114610392578063e9c6afb5146103a9578063f02ad1bd146103c0578063f2fde38b146103eb578063f5479fb8146104145761011f565b8063a10a6df314610297578063a4f2776e146102c2578063aa9d3e2f146102ff578063ab7c49c91461032a578063c74e6d80146103555761011f565b806359586ee2116100e757806359586ee2146101ea578063715018a6146102135780638da5cb5b1461022a578063989c205914610255578063a01910fb1461026c5761011f565b80631ae60f43146101245780631ca5872c1461014057806324600fc31461016b578063369e58ab14610182578063562a4c0f146101bf575b600080fd5b61013e600480360381019061013991906111e9565b61043f565b005b34801561014c57600080fd5b5061015561058e565b604051610162919061128d565b60405180910390f35b34801561017757600080fd5b506101806105a1565b005b34801561018e57600080fd5b506101a960048036038101906101a49190611306565b610831565b6040516101b6919061134c565b60405180910390f35b3480156101cb57600080fd5b506101d4610849565b6040516101e1919061134c565b60405180910390f35b3480156101f657600080fd5b50610211600480360381019061020c9190611393565b61084f565b005b34801561021f57600080fd5b506102286108be565b005b34801561023657600080fd5b5061023f6108d2565b60405161024c91906113e2565b60405180910390f35b34801561026157600080fd5b5061026a6108fb565b005b34801561027857600080fd5b50610281610ad1565b60405161028e91906113e2565b60405180910390f35b3480156102a357600080fd5b506102ac610af7565b6040516102b9919061134c565b60405180910390f35b3480156102ce57600080fd5b506102e960048036038101906102e49190611306565b610afd565b6040516102f6919061134c565b60405180910390f35b34801561030b57600080fd5b50610314610b15565b604051610321919061140c565b60405180910390f35b34801561033657600080fd5b5061033f610b28565b60405161034c919061134c565b60405180910390f35b34801561036157600080fd5b5061037c60048036038101906103779190611306565b610b2e565b604051610389919061134c565b60405180910390f35b34801561039e57600080fd5b506103a7610ce8565b005b3480156103b557600080fd5b506103be610dee565b005b3480156103cc57600080fd5b506103d5610fc4565b6040516103e2919061134c565b60405180910390f35b3480156103f757600080fd5b50610412600480360381019061040d9190611306565b610fca565b005b34801561042057600080fd5b5061042961104d565b604051610436919061134c565b60405180910390f35b60003411610482576040517f08c379a0000000000000000000000000000000000000000000000000000000008152600401610479906114aa565b60405180910390fd5b60011515811515036105025734600860003373ffffffffffffffffffffffffffffffffffffffff1673ffffffffffffffffffffffffffffffffffffffff16815260200190815260200160002060008282546104dd91906114f9565b9250508190555034600460008282546104f691906114f9565b92505081905550610572565b34600960003373ffffffffffffffffffffffffffffffffffffffff1673ffffffffffffffffffffffffffffffffffffffff168152602001908152602001600020600082825461055191906114f9565b92505081905550346005600082825461056a91906114f9565b925050819055505b346006600082825461058491906114f9565b9250508190555050565b600360019054906101000a900460ff1681565b60006105ac33610b2e565b9050600081116105f1576040517f08c379a00000000000000000000000000000000000000000000000000000000081526004016105e890611579565b60405180910390fd5b60028081111561060457610603611216565b5b600360019054906101000a900460ff16600281111561062657610625611216565b5b036106d85780600960003373ffffffffffffffffffffffffffffffffffffffff1673ffffffffffffffffffffffffffffffffffffffff168152602001908152602001600020546106769190611599565b6007600082825461068791906114f9565b925050819055506000600960003373ffffffffffffffffffffffffffffffffffffffff1673ffffffffffffffffffffffffffffffffffffffff16815260200190815260200160002081905550610781565b80600860003373ffffffffffffffffffffffffffffffffffffffff1673ffffffffffffffffffffffffffffffffffffffff168152602001908152602001600020546107239190611599565b6007600082825461073491906114f9565b925050819055506000600860003373ffffffffffffffffffffffffffffffffffffffff1673ffffffffffffffffffffffffffffffffffffffff168152602001908152602001600020819055505b60003373ffffffffffffffffffffffffffffffffffffffff16826040516107a7906115fe565b60006040518083038185875af1925050503d80600081146107e4576040519150601f19603f3d011682016040523d82523d6000602084013e6107e9565b606091505b505090508061082d576040517f08c379a00000000000000000000000000000000000000000000000000000000081526004016108249061165f565b60405180910390fd5b5050565b60086020528060005260406000206000915090505481565b60045481565b610857611053565b81600160006101000a81548173ffffffffffffffffffffffffffffffffffffffff021916908373ffffffffffffffffffffffffffffffffffffffff160217905550806002819055506001600360006101000a81548160ff0219169083151502179055505050565b6108c6611053565b6108d060006110d1565b565b60008060009054906101000a900473ffffffffffffffffffffffffffffffffffffffff16905090565b600360011515600360009054906101000a900460ff16151514610953576040517f08c379a000000000000000000000000000000000000000000000000000000000815260040161094a906116cb565b60405180910390fd5b6000600160009054906101000a900473ffffffffffffffffffffffffffffffffffffffff1673ffffffffffffffffffffffffffffffffffffffff16638a5ec72b6002546040518263ffffffff1660e01b81526004016109b2919061134c565b600060405180830381865afa1580156109cf573d6000803e3d6000fd5b505050506040513d6000823e3d601f19601f820116820180604052508101906109f891906118f6565b505050505050505092505050816003811115610a1757610a16611216565b5b816003811115610a2a57610a29611216565b5b14610a6a576040517f08c379a0000000000000000000000000000000000000000000000000000000008152600401610a6190611a52565b60405180910390fd5b6001600360016101000a81548160ff02191690836002811115610a9057610a8f611216565b5b02179055507f818cd687238a85387ecb8142089453ab68375c1b5685faf0ae830cb1a07f99a46001604051610ac5919061140c565b60405180910390a15050565b600160009054906101000a900473ffffffffffffffffffffffffffffffffffffffff1681565b60025481565b60096020528060005260406000206000915090505481565b600360009054906101000a900460ff1681565b60075481565b6000806002811115610b4357610b42611216565b5b600360019054906101000a900460ff166002811115610b6557610b64611216565b5b1480610b7357506000600654145b15610b815760009050610ce3565b600280811115610b9457610b93611216565b5b600360019054906101000a900460ff166002811115610bb657610bb5611216565b5b03610c5157600060055403610bce5760009050610ce3565b6000600554600960008573ffffffffffffffffffffffffffffffffffffffff1673ffffffffffffffffffffffffffffffffffffffff16815260200190815260200160002054620f4240610c219190611a72565b610c2b9190611ae3565b9050620f424060065482610c3f9190611a72565b610c499190611ae3565b915050610ce3565b600060045403610c645760009050610ce3565b6000600454600860008573ffffffffffffffffffffffffffffffffffffffff1673ffffffffffffffffffffffffffffffffffffffff16815260200190815260200160002054620f4240610cb79190611a72565b610cc19190611ae3565b9050620f424060065482610cd59190611a72565b610cdf9190611ae3565b9150505b919050565b610cf0611053565b600060075411610d35576040517f08c379a0000000000000000000000000000000000000000000000000000000008152600401610d2c90611b60565b60405180910390fd5b600060078190555060003373ffffffffffffffffffffffffffffffffffffffff16600754604051610d65906115fe565b60006040518083038185875af1925050503d8060008114610da2576040519150601f19603f3d011682016040523d82523d6000602084013e610da7565b606091505b5050905080610deb576040517f08c379a0000000000000000000000000000000000000000000000000000000008152600401610de29061165f565b60405180910390fd5b50565b600260011515600360009054906101000a900460ff16151514610e46576040517f08c379a0000000000000000000000000000000000000000000000000000000008152600401610e3d906116cb565b60405180910390fd5b6000600160009054906101000a900473ffffffffffffffffffffffffffffffffffffffff1673ffffffffffffffffffffffffffffffffffffffff16638a5ec72b6002546040518263ffffffff1660e01b8152600401610ea5919061134c565b600060405180830381865afa158015610ec2573d6000803e3d6000fd5b505050506040513d6000823e3d601f19601f82011682018060405250810190610eeb91906118f6565b505050505050505092505050816003811115610f0a57610f09611216565b5b816003811115610f1d57610f1c611216565b5b14610f5d576040517f08c379a0000000000000000000000000000000000000000000000000000000008152600401610f5490611a52565b60405180910390fd5b6002600360016101000a81548160ff02191690836002811115610f8357610f82611216565b5b02179055507f818cd687238a85387ecb8142089453ab68375c1b5685faf0ae830cb1a07f99a46000604051610fb8919061140c565b60405180910390a15050565b60065481565b610fd2611053565b600073ffffffffffffffffffffffffffffffffffffffff168173ffffffffffffffffffffffffffffffffffffffff1603611041576040517f08c379a000000000000000000000000000000000000000000000000000000000815260040161103890611bf2565b60405180910390fd5b61104a816110d1565b50565b60055481565b61105b611195565b73ffffffffffffffffffffffffffffffffffffffff166110796108d2565b73ffffffffffffffffffffffffffffffffffffffff16146110cf576040517f08c379a00000000000000000000000000000000000000000000000000000000081526004016110c690611c5e565b60405180910390fd5b565b60008060009054906101000a900473ffffffffffffffffffffffffffffffffffffffff169050816000806101000a81548173ffffffffffffffffffffffffffffffffffffffff021916908373ffffffffffffffffffffffffffffffffffffffff1602179055508173ffffffffffffffffffffffffffffffffffffffff168173ffffffffffffffffffffffffffffffffffffffff167f8be0079c531659141344cd1fd0a4f28419497f9722a3daafe3b4186f6b6457e060405160405180910390a35050565b600033905090565b6000604051905090565b600080fd5b600080fd5b60008115159050919050565b6111c6816111b1565b81146111d157600080fd5b50565b6000813590506111e3816111bd565b92915050565b6000602082840312156111ff576111fe6111a7565b5b600061120d848285016111d4565b91505092915050565b7f4e487b7100000000000000000000000000000000000000000000000000000000600052602160045260246000fd5b6003811061125657611255611216565b5b50565b600081905061126782611245565b919050565b600061127782611259565b9050919050565b6112878161126c565b82525050565b60006020820190506112a2600083018461127e565b92915050565b600073ffffffffffffffffffffffffffffffffffffffff82169050919050565b60006112d3826112a8565b9050919050565b6112e3816112c8565b81146112ee57600080fd5b50565b600081359050611300816112da565b92915050565b60006020828403121561131c5761131b6111a7565b5b600061132a848285016112f1565b91505092915050565b6000819050919050565b61134681611333565b82525050565b6000602082019050611361600083018461133d565b92915050565b61137081611333565b811461137b57600080fd5b50565b60008135905061138d81611367565b92915050565b600080604083850312156113aa576113a96111a7565b5b60006113b8858286016112f1565b92505060206113c98582860161137e565b9150509250929050565b6113dc816112c8565b82525050565b60006020820190506113f760008301846113d3565b92915050565b611406816111b1565b82525050565b600060208201905061142160008301846113fd565b92915050565b600082825260208201905092915050565b7f596f75206d757374206465706f73697420736f6d657468696e67207768656e2060008201527f6d616b696e672061206265740000000000000000000000000000000000000000602082015250565b6000611494602c83611427565b915061149f82611438565b604082019050919050565b600060208201905081810360008301526114c381611487565b9050919050565b7f4e487b7100000000000000000000000000000000000000000000000000000000600052601160045260246000fd5b600061150482611333565b915061150f83611333565b9250828201905080821115611527576115266114ca565b5b92915050565b7f4e6f2066756e647320746f207769746864726177000000000000000000000000600082015250565b6000611563601483611427565b915061156e8261152d565b602082019050919050565b6000602082019050818103600083015261159281611556565b9050919050565b60006115a482611333565b91506115af83611333565b92508282039050818111156115c7576115c66114ca565b5b92915050565b600081905092915050565b50565b60006115e86000836115cd565b91506115f3826115d8565b600082019050919050565b6000611609826115db565b9150819050919050565b7f5472616e73666572206661696c65642e00000000000000000000000000000000600082015250565b6000611649601083611427565b915061165482611613565b602082019050919050565b600060208201905081810360008301526116788161163c565b9050919050565b7f416374696f6e206e6f742079657420696e697469616c697a6564000000000000600082015250565b60006116b5601a83611427565b91506116c08261167f565b602082019050919050565b600060208201905081810360008301526116e4816116a8565b9050919050565b6000815190506116fa81611367565b92915050565b60008151905061170f816112da565b92915050565b6004811061172257600080fd5b50565b60008151905061173481611715565b92915050565b6006811061174757600080fd5b50565b6000815190506117598161173a565b92915050565b6000819050919050565b6117728161175f565b811461177d57600080fd5b50565b60008151905061178f81611769565b92915050565b600080fd5b600080fd5b6000601f19601f8301169050919050565b7f4e487b7100000000000000000000000000000000000000000000000000000000600052604160045260246000fd5b6117e88261179f565b810181811067ffffffffffffffff82111715611807576118066117b0565b5b80604052505050565b600061181a61119d565b905061182682826117df565b919050565b600067ffffffffffffffff821115611846576118456117b0565b5b61184f8261179f565b9050602081019050919050565b60005b8381101561187a57808201518184015260208101905061185f565b60008484015250505050565b60006118996118948461182b565b611810565b9050828152602081018484840111156118b5576118b461179a565b5b6118c084828561185c565b509392505050565b600082601f8301126118dd576118dc611795565b5b81516118ed848260208601611886565b91505092915050565b60008060008060008060008060008060006101608c8e03121561191c5761191b6111a7565b5b600061192a8e828f016116eb565b9b5050602061193b8e828f01611700565b9a5050604061194c8e828f01611725565b995050606061195d8e828f0161174a565b985050608061196e8e828f016116eb565b97505060a061197f8e828f016116eb565b96505060c06119908e828f016116eb565b95505060e06119a18e828f01611700565b9450506101006119b38e828f01611780565b9350506101206119c58e828f01611780565b9250506101408c015167ffffffffffffffff8111156119e7576119e66111ac565b5b6119f38e828f016118c8565b9150509295989b509295989b9093969950565b7f4e6f7420616c6c6f776564000000000000000000000000000000000000000000600082015250565b6000611a3c600b83611427565b9150611a4782611a06565b602082019050919050565b60006020820190508181036000830152611a6b81611a2f565b9050919050565b6000611a7d82611333565b9150611a8883611333565b9250828202611a9681611333565b91508282048414831517611aad57611aac6114ca565b5b5092915050565b7f4e487b7100000000000000000000000000000000000000000000000000000000600052601260045260246000fd5b6000611aee82611333565b9150611af983611333565b925082611b0957611b08611ab4565b5b828204905092915050565b7f4e6f206475737420746f20636f6c6c6563740000000000000000000000000000600082015250565b6000611b4a601283611427565b9150611b5582611b14565b602082019050919050565b60006020820190508181036000830152611b7981611b3d565b9050919050565b7f4f776e61626c653a206e6577206f776e657220697320746865207a65726f206160008201527f6464726573730000000000000000000000000000000000000000000000000000602082015250565b6000611bdc602683611427565b9150611be782611b80565b604082019050919050565b60006020820190508181036000830152611c0b81611bcf565b9050919050565b7f4f776e61626c653a2063616c6c6572206973206e6f7420746865206f776e6572600082015250565b6000611c48602083611427565b9150611c5382611c12565b602082019050919050565b60006020820190508181036000830152611c7781611c3b565b905091905056fea26469706673582212207fe29da14447f23e5ca984f011b098ff010b894a8c9f017e50a9cc04e7d9d8e064736f6c63430008110033",
  "linkReferences": {},
  "deployedLinkReferences": {}
}