{
  "_format": "hh-sol-artifact-1",
  "contractName": "UmpireConstantE",
  "sourceName": "contracts/examples/UmpireConstantE.sol",
  "abi": [
    {
      "inputs": [],
      "name": "decimals",
      "outputs": [
        {
          "internalType": "uint8",
          "name": "",
          "type": "uint8"
        }
      ],
      "stateMutability": "pure",
      "type": "function"
    },
    {
      "inputs": [],
      "name": "description",
      "outputs": [
        {
          "internalType": "string",
          "name": "",
          "type": "string"
        }
      ],
      "stateMutability": "pure",
      "type": "function"
    },
    {
      "inputs": [
        {
          "internalType": "uint80",
          "name": "_roundId",
          "type": "uint80"
        }
      ],
      "name": "getRoundData",
      "outputs": [
        {
          "internalType": "uint80",
          "name": "roundId",
          "type": "uint80"
        },
        {
          "internalType": "int256",
          "name": "answer",
          "type": "int256"
        },
        {
          "internalType": "uint256",
          "name": "startedAt",
          "type": "uint256"
        },
        {
          "internalType": "uint256",
          "name": "updatedAt",
          "type": "uint256"
        },
        {
          "internalType": "uint80",
          "name": "answeredInRound",
          "type": "uint80"
        }
      ],
      "stateMutability": "view",
      "type": "function"
    },
    {
      "inputs": [],
      "name": "latestRoundData",
      "outputs": [
        {
          "internalType": "uint80",
          "name": "roundId",
          "type": "uint80"
        },
        {
          "internalType": "int256",
          "name": "answer",
          "type": "int256"
        },
        {
          "internalType": "uint256",
          "name": "startedAt",
          "type": "uint256"
        },
        {
          "internalType": "uint256",
          "name": "updatedAt",
          "type": "uint256"
        },
        {
          "internalType": "uint80",
          "name": "answeredInRound",
          "type": "uint80"
        }
      ],
      "stateMutability": "view",
      "type": "function"
    },
    {
      "inputs": [],
      "name": "version",
      "outputs": [
        {
          "internalType": "uint256",
          "name": "",
          "type": "uint256"
        }
      ],
      "stateMutability": "pure",
      "type": "function"
    }
  ],
  "bytecode": "0x6080604052620425d460005534801561001757600080fd5b506103e1806100276000396000f3fe608060405234801561001057600080fd5b50600436106100575760003560e01c8063313ce5671461005c57806354fd4d501461007a5780637284e416146100985780639a6fc8f5146100b6578063feaf968c146100ea575b600080fd5b61006461010c565b60405161007191906101bb565b60405180910390f35b610082610115565b60405161008f91906101ef565b60405180910390f35b6100a061011e565b6040516100ad919061029a565b60405180910390f35b6100d060048036038101906100cb9190610303565b61015b565b6040516100e1959493929190610358565b60405180910390f35b6100f261017d565b604051610103959493929190610358565b60405180910390f35b60006005905090565b60006001905090565b60606040518060400160405280600181526020017f6500000000000000000000000000000000000000000000000000000000000000815250905090565b6000806000806000856000544242899450945094509450945091939590929450565b6000806000806000600160005442426001945094509450945094509091929394565b600060ff82169050919050565b6101b58161019f565b82525050565b60006020820190506101d060008301846101ac565b92915050565b6000819050919050565b6101e9816101d6565b82525050565b600060208201905061020460008301846101e0565b92915050565b600081519050919050565b600082825260208201905092915050565b60005b83811015610244578082015181840152602081019050610229565b60008484015250505050565b6000601f19601f8301169050919050565b600061026c8261020a565b6102768185610215565b9350610286818560208601610226565b61028f81610250565b840191505092915050565b600060208201905081810360008301526102b48184610261565b905092915050565b600080fd5b600069ffffffffffffffffffff82169050919050565b6102e0816102c1565b81146102eb57600080fd5b50565b6000813590506102fd816102d7565b92915050565b600060208284031215610319576103186102bc565b5b6000610327848285016102ee565b91505092915050565b610339816102c1565b82525050565b6000819050919050565b6103528161033f565b82525050565b600060a08201905061036d6000830188610330565b61037a6020830187610349565b61038760408301866101e0565b61039460608301856101e0565b6103a16080830184610330565b969550505050505056fea264697066735822122015145c64b79f3a6f185ea4847a9e6c7d96cf4f9fddd125577fce617904feda5b64736f6c63430008110033",
  "linkReferences": {},
  "deployedLinkReferences": {}
}