{
  "_format": "hh-sol-artifact-1",
  "contractName": "BasicUmpireAction",
  "sourceName": "contracts/examples/BasicAction.sol",
  "abi": [
    {
      "anonymous": false,
      "inputs": [
        {
          "indexed": true,
          "internalType": "address",
          "name": "previousOwner",
          "type": "address"
        },
        {
          "indexed": true,
          "internalType": "address",
          "name": "newOwner",
          "type": "address"
        }
      ],
      "name": "OwnershipTransferred",
      "type": "event"
    },
    {
      "inputs": [
        {
          "internalType": "address",
          "name": "_registry",
          "type": "address"
        },
        {
          "internalType": "uint256",
          "name": "_jobId",
          "type": "uint256"
        }
      ],
      "name": "actionSetup",
      "outputs": [],
      "stateMutability": "nonpayable",
      "type": "function"
    },
    {
      "inputs": [],
      "name": "negativeAction",
      "outputs": [],
      "stateMutability": "nonpayable",
      "type": "function"
    },
    {
      "inputs": [],
      "name": "owner",
      "outputs": [
        {
          "internalType": "address",
          "name": "",
          "type": "address"
        }
      ],
      "stateMutability": "view",
      "type": "function"
    },
    {
      "inputs": [],
      "name": "positiveAction",
      "outputs": [],
      "stateMutability": "nonpayable",
      "type": "function"
    },
    {
      "inputs": [],
      "name": "renounceOwnership",
      "outputs": [],
      "stateMutability": "nonpayable",
      "type": "function"
    },
    {
      "inputs": [],
      "name": "s_initialized",
      "outputs": [
        {
          "internalType": "bool",
          "name": "",
          "type": "bool"
        }
      ],
      "stateMutability": "view",
      "type": "function"
    },
    {
      "inputs": [],
      "name": "s_status",
      "outputs": [
        {
          "internalType": "enum BasicUmpireActionStatus",
          "name": "",
          "type": "uint8"
        }
      ],
      "stateMutability": "view",
      "type": "function"
    },
    {
      "inputs": [],
      "name": "s_umpireJobId",
      "outputs": [
        {
          "internalType": "uint256",
          "name": "",
          "type": "uint256"
        }
      ],
      "stateMutability": "view",
      "type": "function"
    },
    {
      "inputs": [],
      "name": "s_umpireRegistry",
      "outputs": [
        {
          "internalType": "address",
          "name": "",
          "type": "address"
        }
      ],
      "stateMutability": "view",
      "type": "function"
    },
    {
      "inputs": [
        {
          "internalType": "address",
          "name": "newOwner",
          "type": "address"
        }
      ],
      "name": "transferOwnership",
      "outputs": [],
      "stateMutability": "nonpayable",
      "type": "function"
    }
  ],
  "bytecode": "0x60806040526000600360006101000a81548160ff02191690831515021790555034801561002b57600080fd5b5061004861003d61004d60201b60201c565b61005560201b60201c565b610119565b600033905090565b60008060009054906101000a900473ffffffffffffffffffffffffffffffffffffffff169050816000806101000a81548173ffffffffffffffffffffffffffffffffffffffff021916908373ffffffffffffffffffffffffffffffffffffffff1602179055508173ffffffffffffffffffffffffffffffffffffffff168173ffffffffffffffffffffffffffffffffffffffff167f8be0079c531659141344cd1fd0a4f28419497f9722a3daafe3b4186f6b6457e060405160405180910390a35050565b610eff806101286000396000f3fe608060405234801561001057600080fd5b506004361061009e5760003560e01c8063a01910fb11610066578063a01910fb1461010f578063a10a6df31461012d578063aa9d3e2f1461014b578063e9c6afb514610169578063f2fde38b146101735761009e565b80631ca5872c146100a357806359586ee2146100c1578063715018a6146100dd5780638da5cb5b146100e7578063989c205914610105575b600080fd5b6100ab61018f565b6040516100b8919061080d565b60405180910390f35b6100db60048036038101906100d691906108d0565b6101a2565b005b6100e5610211565b005b6100ef610225565b6040516100fc919061091f565b60405180910390f35b61010d61024e565b005b6101176103ec565b604051610124919061091f565b60405180910390f35b610135610412565b6040516101429190610949565b60405180910390f35b610153610418565b604051610160919061097f565b60405180910390f35b61017161042b565b005b61018d6004803603810190610188919061099a565b6105c9565b005b600360019054906101000a900460ff1681565b6101aa61064c565b81600160006101000a81548173ffffffffffffffffffffffffffffffffffffffff021916908373ffffffffffffffffffffffffffffffffffffffff160217905550806002819055506001600360006101000a81548160ff0219169083151502179055505050565b61021961064c565b61022360006106ca565b565b60008060009054906101000a900473ffffffffffffffffffffffffffffffffffffffff16905090565b600360011515600360009054906101000a900460ff161515146102a6576040517f08c379a000000000000000000000000000000000000000000000000000000000815260040161029d90610a24565b60405180910390fd5b6000600160009054906101000a900473ffffffffffffffffffffffffffffffffffffffff1673ffffffffffffffffffffffffffffffffffffffff16638a5ec72b6002546040518263ffffffff1660e01b81526004016103059190610949565b600060405180830381865afa158015610322573d6000803e3d6000fd5b505050506040513d6000823e3d601f19601f8201168201806040525081019061034b9190610c4f565b50505050505050509250505081600381111561036a57610369610796565b5b81600381111561037d5761037c610796565b5b146103bd576040517f08c379a00000000000000000000000000000000000000000000000000000000081526004016103b490610dab565b60405180910390fd5b6001600360016101000a81548160ff021916908360028111156103e3576103e2610796565b5b02179055505050565b600160009054906101000a900473ffffffffffffffffffffffffffffffffffffffff1681565b60025481565b600360009054906101000a900460ff1681565b600260011515600360009054906101000a900460ff16151514610483576040517f08c379a000000000000000000000000000000000000000000000000000000000815260040161047a90610a24565b60405180910390fd5b6000600160009054906101000a900473ffffffffffffffffffffffffffffffffffffffff1673ffffffffffffffffffffffffffffffffffffffff16638a5ec72b6002546040518263ffffffff1660e01b81526004016104e29190610949565b600060405180830381865afa1580156104ff573d6000803e3d6000fd5b505050506040513d6000823e3d601f19601f820116820180604052508101906105289190610c4f565b50505050505050509250505081600381111561054757610546610796565b5b81600381111561055a57610559610796565b5b1461059a576040517f08c379a000000000000000000000000000000000000000000000000000000000815260040161059190610dab565b60405180910390fd5b6002600360016101000a81548160ff021916908360028111156105c0576105bf610796565b5b02179055505050565b6105d161064c565b600073ffffffffffffffffffffffffffffffffffffffff168173ffffffffffffffffffffffffffffffffffffffff1603610640576040517f08c379a000000000000000000000000000000000000000000000000000000000815260040161063790610e3d565b60405180910390fd5b610649816106ca565b50565b61065461078e565b73ffffffffffffffffffffffffffffffffffffffff16610672610225565b73ffffffffffffffffffffffffffffffffffffffff16146106c8576040517f08c379a00000000000000000000000000000000000000000000000000000000081526004016106bf90610ea9565b60405180910390fd5b565b60008060009054906101000a900473ffffffffffffffffffffffffffffffffffffffff169050816000806101000a81548173ffffffffffffffffffffffffffffffffffffffff021916908373ffffffffffffffffffffffffffffffffffffffff1602179055508173ffffffffffffffffffffffffffffffffffffffff168173ffffffffffffffffffffffffffffffffffffffff167f8be0079c531659141344cd1fd0a4f28419497f9722a3daafe3b4186f6b6457e060405160405180910390a35050565b600033905090565b7f4e487b7100000000000000000000000000000000000000000000000000000000600052602160045260246000fd5b600381106107d6576107d5610796565b5b50565b60008190506107e7826107c5565b919050565b60006107f7826107d9565b9050919050565b610807816107ec565b82525050565b600060208201905061082260008301846107fe565b92915050565b6000604051905090565b600080fd5b600080fd5b600073ffffffffffffffffffffffffffffffffffffffff82169050919050565b60006108678261083c565b9050919050565b6108778161085c565b811461088257600080fd5b50565b6000813590506108948161086e565b92915050565b6000819050919050565b6108ad8161089a565b81146108b857600080fd5b50565b6000813590506108ca816108a4565b92915050565b600080604083850312156108e7576108e6610832565b5b60006108f585828601610885565b9250506020610906858286016108bb565b9150509250929050565b6109198161085c565b82525050565b60006020820190506109346000830184610910565b92915050565b6109438161089a565b82525050565b600060208201905061095e600083018461093a565b92915050565b60008115159050919050565b61097981610964565b82525050565b60006020820190506109946000830184610970565b92915050565b6000602082840312156109b0576109af610832565b5b60006109be84828501610885565b91505092915050565b600082825260208201905092915050565b7f416374696f6e206e6f742079657420696e697469616c697a6564000000000000600082015250565b6000610a0e601a836109c7565b9150610a19826109d8565b602082019050919050565b60006020820190508181036000830152610a3d81610a01565b9050919050565b600081519050610a53816108a4565b92915050565b600081519050610a688161086e565b92915050565b60048110610a7b57600080fd5b50565b600081519050610a8d81610a6e565b92915050565b60068110610aa057600080fd5b50565b600081519050610ab281610a93565b92915050565b6000819050919050565b610acb81610ab8565b8114610ad657600080fd5b50565b600081519050610ae881610ac2565b92915050565b600080fd5b600080fd5b6000601f19601f8301169050919050565b7f4e487b7100000000000000000000000000000000000000000000000000000000600052604160045260246000fd5b610b4182610af8565b810181811067ffffffffffffffff82111715610b6057610b5f610b09565b5b80604052505050565b6000610b73610828565b9050610b7f8282610b38565b919050565b600067ffffffffffffffff821115610b9f57610b9e610b09565b5b610ba882610af8565b9050602081019050919050565b60005b83811015610bd3578082015181840152602081019050610bb8565b60008484015250505050565b6000610bf2610bed84610b84565b610b69565b905082815260208101848484011115610c0e57610c0d610af3565b5b610c19848285610bb5565b509392505050565b600082601f830112610c3657610c35610aee565b5b8151610c46848260208601610bdf565b91505092915050565b60008060008060008060008060008060006101608c8e031215610c7557610c74610832565b5b6000610c838e828f01610a44565b9b50506020610c948e828f01610a59565b9a50506040610ca58e828f01610a7e565b9950506060610cb68e828f01610aa3565b9850506080610cc78e828f01610a44565b97505060a0610cd88e828f01610a44565b96505060c0610ce98e828f01610a44565b95505060e0610cfa8e828f01610a59565b945050610100610d0c8e828f01610ad9565b935050610120610d1e8e828f01610ad9565b9250506101408c015167ffffffffffffffff811115610d4057610d3f610837565b5b610d4c8e828f01610c21565b9150509295989b509295989b9093969950565b7f4e6f7420616c6c6f776564000000000000000000000000000000000000000000600082015250565b6000610d95600b836109c7565b9150610da082610d5f565b602082019050919050565b60006020820190508181036000830152610dc481610d88565b9050919050565b7f4f776e61626c653a206e6577206f776e657220697320746865207a65726f206160008201527f6464726573730000000000000000000000000000000000000000000000000000602082015250565b6000610e276026836109c7565b9150610e3282610dcb565b604082019050919050565b60006020820190508181036000830152610e5681610e1a565b9050919050565b7f4f776e61626c653a2063616c6c6572206973206e6f7420746865206f776e6572600082015250565b6000610e936020836109c7565b9150610e9e82610e5d565b602082019050919050565b60006020820190508181036000830152610ec281610e86565b905091905056fea2646970667358221220cc7da3d9972764ad135d9aa0005335b171269b63c3d88d6f55b2ea5f522dff3c64736f6c63430008110033",
  "linkReferences": {},
  "deployedLinkReferences": {}
}