{
  "_format": "hh-sol-artifact-1",
  "contractName": "UmpireRegistry",
  "sourceName": "contracts/UmpireRegistry.sol",
  "abi": [
    {
      "inputs": [
        {
          "internalType": "address",
          "name": "_resolver",
          "type": "address"
        }
      ],
      "stateMutability": "nonpayable",
      "type": "constructor"
    },
    {
      "anonymous": false,
      "inputs": [
        {
          "indexed": true,
          "internalType": "address",
          "name": "previousOwner",
          "type": "address"
        },
        {
          "indexed": true,
          "internalType": "address",
          "name": "newOwner",
          "type": "address"
        }
      ],
      "name": "OwnershipTransferred",
      "type": "event"
    },
    {
      "anonymous": false,
      "inputs": [
        {
          "indexed": true,
          "internalType": "uint256",
          "name": "jobId",
          "type": "uint256"
        },
        {
          "indexed": true,
          "internalType": "address",
          "name": "jobOwner",
          "type": "address"
        },
        {
          "indexed": false,
          "internalType": "address",
          "name": "action",
          "type": "address"
        },
        {
          "indexed": false,
          "internalType": "enum UmpireJobStatus",
          "name": "jobStatus",
          "type": "uint8"
        }
      ],
      "name": "UmpireJobCompleted",
      "type": "event"
    },
    {
      "anonymous": false,
      "inputs": [
        {
          "indexed": true,
          "internalType": "uint256",
          "name": "jobId",
          "type": "uint256"
        },
        {
          "indexed": true,
          "internalType": "address",
          "name": "jobOwner",
          "type": "address"
        },
        {
          "indexed": false,
          "internalType": "address",
          "name": "action",
          "type": "address"
        }
      ],
      "name": "UmpireJobCreated",
      "type": "event"
    },
    {
      "inputs": [
        {
          "internalType": "bytes",
          "name": "",
          "type": "bytes"
        }
      ],
      "name": "checkUpkeep",
      "outputs": [
        {
          "internalType": "bool",
          "name": "upkeepNeeded",
          "type": "bool"
        },
        {
          "internalType": "bytes",
          "name": "",
          "type": "bytes"
        }
      ],
      "stateMutability": "view",
      "type": "function"
    },
    {
      "inputs": [
        {
          "internalType": "string",
          "name": "_name",
          "type": "string"
        },
        {
          "components": [
            {
              "internalType": "int256",
              "name": "value",
              "type": "int256"
            },
            {
              "internalType": "enum PostfixNodeType",
              "name": "nodeType",
              "type": "uint8"
            },
            {
              "internalType": "enum PostfixNodeOperator",
              "name": "operator",
              "type": "uint8"
            },
            {
              "internalType": "uint8",
              "name": "variableIndex",
              "type": "uint8"
            }
          ],
          "internalType": "struct PostfixNode[]",
          "name": "_postfixNodesLeft",
          "type": "tuple[]"
        },
        {
          "internalType": "enum UmpireComparator",
          "name": "_comparator",
          "type": "uint8"
        },
        {
          "components": [
            {
              "internalType": "int256",
              "name": "value",
              "type": "int256"
            },
            {
              "internalType": "enum PostfixNodeType",
              "name": "nodeType",
              "type": "uint8"
            },
            {
              "internalType": "enum PostfixNodeOperator",
              "name": "operator",
              "type": "uint8"
            },
            {
              "internalType": "uint8",
              "name": "variableIndex",
              "type": "uint8"
            }
          ],
          "internalType": "struct PostfixNode[]",
          "name": "_postfixNodesRight",
          "type": "tuple[]"
        },
        {
          "internalType": "address[]",
          "name": "_dataFeeds",
          "type": "address[]"
        },
        {
          "internalType": "uint256",
          "name": "_activationDate",
          "type": "uint256"
        },
        {
          "internalType": "uint256",
          "name": "_timeoutDate",
          "type": "uint256"
        },
        {
          "internalType": "address",
          "name": "_action",
          "type": "address"
        }
      ],
      "name": "createJobFromNodes",
      "outputs": [
        {
          "internalType": "uint256",
          "name": "jobId",
          "type": "uint256"
        }
      ],
      "stateMutability": "nonpayable",
      "type": "function"
    },
    {
      "inputs": [
        {
          "internalType": "uint256",
          "name": "_jobId",
          "type": "uint256"
        }
      ],
      "name": "evaluateJob",
      "outputs": [
        {
          "internalType": "bool",
          "name": "",
          "type": "bool"
        },
        {
          "internalType": "int256",
          "name": "",
          "type": "int256"
        },
        {
          "internalType": "int256",
          "name": "",
          "type": "int256"
        }
      ],
      "stateMutability": "view",
      "type": "function"
    },
    {
      "inputs": [
        {
          "internalType": "address",
          "name": "_owner",
          "type": "address"
        }
      ],
      "name": "getJobsByOwner",
      "outputs": [
        {
          "components": [
            {
              "internalType": "uint256",
              "name": "id",
              "type": "uint256"
            },
            {
              "internalType": "address",
              "name": "owner",
              "type": "address"
            },
            {
              "internalType": "enum UmpireJobStatus",
              "name": "jobStatus",
              "type": "uint8"
            },
            {
              "components": [
                {
                  "internalType": "int256",
                  "name": "value",
                  "type": "int256"
                },
                {
                  "internalType": "enum PostfixNodeType",
                  "name": "nodeType",
                  "type": "uint8"
                },
                {
                  "internalType": "enum PostfixNodeOperator",
                  "name": "operator",
                  "type": "uint8"
                },
                {
                  "internalType": "uint8",
                  "name": "variableIndex",
                  "type": "uint8"
                }
              ],
              "internalType": "struct PostfixNode[]",
              "name": "formulaLeft",
              "type": "tuple[]"
            },
            {
              "internalType": "enum UmpireComparator",
              "name": "comparator",
              "type": "uint8"
            },
            {
              "components": [
                {
                  "internalType": "int256",
                  "name": "value",
                  "type": "int256"
                },
                {
                  "internalType": "enum PostfixNodeType",
                  "name": "nodeType",
                  "type": "uint8"
                },
                {
                  "internalType": "enum PostfixNodeOperator",
                  "name": "operator",
                  "type": "uint8"
                },
                {
                  "internalType": "uint8",
                  "name": "variableIndex",
                  "type": "uint8"
                }
              ],
              "internalType": "struct PostfixNode[]",
              "name": "formulaRight",
              "type": "tuple[]"
            },
            {
              "internalType": "address[]",
              "name": "dataFeeds",
              "type": "address[]"
            },
            {
              "internalType": "uint256",
              "name": "createdAt",
              "type": "uint256"
            },
            {
              "internalType": "uint256",
              "name": "timeoutDate",
              "type": "uint256"
            },
            {
              "internalType": "uint256",
              "name": "activationDate",
              "type": "uint256"
            },
            {
              "internalType": "address",
              "name": "action",
              "type": "address"
            },
            {
              "internalType": "int256",
              "name": "leftValue",
              "type": "int256"
            },
            {
              "internalType": "int256",
              "name": "rightValue",
              "type": "int256"
            },
            {
              "internalType": "string",
              "name": "jobName",
              "type": "string"
            }
          ],
          "internalType": "struct UmpireJob[]",
          "name": "",
          "type": "tuple[]"
        }
      ],
      "stateMutability": "view",
      "type": "function"
    },
    {
      "inputs": [],
      "name": "getMyJobs",
      "outputs": [
        {
          "components": [
            {
              "internalType": "uint256",
              "name": "id",
              "type": "uint256"
            },
            {
              "internalType": "address",
              "name": "owner",
              "type": "address"
            },
            {
              "internalType": "enum UmpireJobStatus",
              "name": "jobStatus",
              "type": "uint8"
            },
            {
              "components": [
                {
                  "internalType": "int256",
                  "name": "value",
                  "type": "int256"
                },
                {
                  "internalType": "enum PostfixNodeType",
                  "name": "nodeType",
                  "type": "uint8"
                },
                {
                  "internalType": "enum PostfixNodeOperator",
                  "name": "operator",
                  "type": "uint8"
                },
                {
                  "internalType": "uint8",
                  "name": "variableIndex",
                  "type": "uint8"
                }
              ],
              "internalType": "struct PostfixNode[]",
              "name": "formulaLeft",
              "type": "tuple[]"
            },
            {
              "internalType": "enum UmpireComparator",
              "name": "comparator",
              "type": "uint8"
            },
            {
              "components": [
                {
                  "internalType": "int256",
                  "name": "value",
                  "type": "int256"
                },
                {
                  "internalType": "enum PostfixNodeType",
                  "name": "nodeType",
                  "type": "uint8"
                },
                {
                  "internalType": "enum PostfixNodeOperator",
                  "name": "operator",
                  "type": "uint8"
                },
                {
                  "internalType": "uint8",
                  "name": "variableIndex",
                  "type": "uint8"
                }
              ],
              "internalType": "struct PostfixNode[]",
              "name": "formulaRight",
              "type": "tuple[]"
            },
            {
              "internalType": "address[]",
              "name": "dataFeeds",
              "type": "address[]"
            },
            {
              "internalType": "uint256",
              "name": "createdAt",
              "type": "uint256"
            },
            {
              "internalType": "uint256",
              "name": "timeoutDate",
              "type": "uint256"
            },
            {
              "internalType": "uint256",
              "name": "activationDate",
              "type": "uint256"
            },
            {
              "internalType": "address",
              "name": "action",
              "type": "address"
            },
            {
              "internalType": "int256",
              "name": "leftValue",
              "type": "int256"
            },
            {
              "internalType": "int256",
              "name": "rightValue",
              "type": "int256"
            },
            {
              "internalType": "string",
              "name": "jobName",
              "type": "string"
            }
          ],
          "internalType": "struct UmpireJob[]",
          "name": "",
          "type": "tuple[]"
        }
      ],
      "stateMutability": "view",
      "type": "function"
    },
    {
      "inputs": [],
      "name": "i_resolver",
      "outputs": [
        {
          "internalType": "contract AbstractUmpireFormulaResolver",
          "name": "",
          "type": "address"
        }
      ],
      "stateMutability": "view",
      "type": "function"
    },
    {
      "inputs": [],
      "name": "owner",
      "outputs": [
        {
          "internalType": "address",
          "name": "",
          "type": "address"
        }
      ],
      "stateMutability": "view",
      "type": "function"
    },
    {
      "inputs": [
        {
          "internalType": "bytes",
          "name": "",
          "type": "bytes"
        }
      ],
      "name": "performUpkeep",
      "outputs": [],
      "stateMutability": "nonpayable",
      "type": "function"
    },
    {
      "inputs": [],
      "name": "renounceOwnership",
      "outputs": [],
      "stateMutability": "nonpayable",
      "type": "function"
    },
    {
      "inputs": [],
      "name": "s_counterJobs",
      "outputs": [
        {
          "internalType": "uint256",
          "name": "",
          "type": "uint256"
        }
      ],
      "stateMutability": "view",
      "type": "function"
    },
    {
      "inputs": [
        {
          "internalType": "uint256",
          "name": "",
          "type": "uint256"
        }
      ],
      "name": "s_inputFeeds",
      "outputs": [
        {
          "internalType": "address",
          "name": "",
          "type": "address"
        }
      ],
      "stateMutability": "view",
      "type": "function"
    },
    {
      "inputs": [
        {
          "internalType": "uint256",
          "name": "",
          "type": "uint256"
        }
      ],
      "name": "s_jobs",
      "outputs": [
        {
          "internalType": "uint256",
          "name": "id",
          "type": "uint256"
        },
        {
          "internalType": "address",
          "name": "owner",
          "type": "address"
        },
        {
          "internalType": "enum UmpireJobStatus",
          "name": "jobStatus",
          "type": "uint8"
        },
        {
          "internalType": "enum UmpireComparator",
          "name": "comparator",
          "type": "uint8"
        },
        {
          "internalType": "uint256",
          "name": "createdAt",
          "type": "uint256"
        },
        {
          "internalType": "uint256",
          "name": "timeoutDate",
          "type": "uint256"
        },
        {
          "internalType": "uint256",
          "name": "activationDate",
          "type": "uint256"
        },
        {
          "internalType": "address",
          "name": "action",
          "type": "address"
        },
        {
          "internalType": "int256",
          "name": "leftValue",
          "type": "int256"
        },
        {
          "internalType": "int256",
          "name": "rightValue",
          "type": "int256"
        },
        {
          "internalType": "string",
          "name": "jobName",
          "type": "string"
        }
      ],
      "stateMutability": "view",
      "type": "function"
    },
    {
      "inputs": [
        {
          "internalType": "address",
          "name": "",
          "type": "address"
        },
        {
          "internalType": "uint256",
          "name": "",
          "type": "uint256"
        }
      ],
      "name": "s_jobsByOwner",
      "outputs": [
        {
          "internalType": "uint256",
          "name": "",
          "type": "uint256"
        }
      ],
      "stateMutability": "view",
      "type": "function"
    },
    {
      "inputs": [],
      "name": "s_minimumMinutesActivationOffset",
      "outputs": [
        {
          "internalType": "uint8",
          "name": "",
          "type": "uint8"
        }
      ],
      "stateMutability": "view",
      "type": "function"
    },
    {
      "inputs": [],
      "name": "s_minimumMinutesBeforeTimeout",
      "outputs": [
        {
          "internalType": "uint8",
          "name": "",
          "type": "uint8"
        }
      ],
      "stateMutability": "view",
      "type": "function"
    },
    {
      "inputs": [],
      "name": "s_minimumMinutesBetweenActivationAndTimeout",
      "outputs": [
        {
          "internalType": "uint8",
          "name": "",
          "type": "uint8"
        }
      ],
      "stateMutability": "view",
      "type": "function"
    },
    {
      "inputs": [
        {
          "internalType": "address",
          "name": "newOwner",
          "type": "address"
        }
      ],
      "name": "transferOwnership",
      "outputs": [],
      "stateMutability": "nonpayable",
      "type": "function"
    },
    {
      "inputs": [
        {
          "internalType": "uint8",
          "name": "_minimumMinutesBeforeTimeout",
          "type": "uint8"
        },
        {
          "internalType": "uint8",
          "name": "_minimumMinutesBetweenActivationAndTimeout",
          "type": "uint8"
        },
        {
          "internalType": "uint8",
          "name": "_minimumMinutesActivationOffset",
          "type": "uint8"
        }
      ],
      "name": "updateTimeConstraints",
      "outputs": [],
      "stateMutability": "nonpayable",
      "type": "function"
    }
  ],
  "bytecode": "0x6080604052600060015560028060006101000a81548160ff021916908360ff1602179055506001600260016101000a81548160ff021916908360ff16021790555060016002806101000a81548160ff021916908360ff1602179055503480156200006857600080fd5b50604051620043b4380380620043b483398181016040528101906200008e91906200022c565b620000ae620000a2620000f660201b60201c565b620000fe60201b60201c565b80600660006101000a81548173ffffffffffffffffffffffffffffffffffffffff021916908373ffffffffffffffffffffffffffffffffffffffff160217905550506200025e565b600033905090565b60008060009054906101000a900473ffffffffffffffffffffffffffffffffffffffff169050816000806101000a81548173ffffffffffffffffffffffffffffffffffffffff021916908373ffffffffffffffffffffffffffffffffffffffff1602179055508173ffffffffffffffffffffffffffffffffffffffff168173ffffffffffffffffffffffffffffffffffffffff167f8be0079c531659141344cd1fd0a4f28419497f9722a3daafe3b4186f6b6457e060405160405180910390a35050565b600080fd5b600073ffffffffffffffffffffffffffffffffffffffff82169050919050565b6000620001f482620001c7565b9050919050565b6200020681620001e7565b81146200021257600080fd5b50565b6000815190506200022681620001fb565b92915050565b600060208284031215620002455762000244620001c2565b5b6000620002558482850162000215565b91505092915050565b614146806200026e6000396000f3fe608060405234801561001057600080fd5b50600436106101165760003560e01c806385acae55116100a2578063a199bf7211610071578063a199bf7214610300578063cfddc5521461031e578063d2ce879c1461033c578063f2fde38b1461036e578063fabe45431461038a57610116565b806385acae551461026e5780638a5ec72b1461028a5780638da5cb5b146102c45780639b00214c146102e257610116565b8063597b6e3f116100e9578063597b6e3f146101b5578063603b3807146101d3578063667474d3146102035780636e04ff0d14610233578063715018a61461026457610116565b806329d10cc61461011b5780632ccbb7eb1461014b57806335ad7d931461017b5780634585e33b14610199575b600080fd5b610135600480360381019061013091906128b4565b6103a8565b60405161014291906129e9565b60405180910390f35b61016560048036038101906101609190612a04565b6109bf565b6040516101729190612ff3565b60405180910390f35b610183610fda565b6040516101909190613024565b60405180910390f35b6101b360048036038101906101ae919061309a565b610fed565b005b6101bd611650565b6040516101ca9190613024565b60405180910390f35b6101ed60048036038101906101e891906130e7565b611661565b6040516101fa9190613123565b60405180910390f35b61021d6004803603810190610218919061313e565b611694565b60405161022a91906129e9565b60405180910390f35b61024d6004803603810190610248919061321f565b6116c5565b60405161025b9291906132d8565b60405180910390f35b61026c6117bf565b005b61028860048036038101906102839190613308565b6117d3565b005b6102a4600480360381019061029f91906130e7565b611830565b6040516102bb9b9a999897969594939291906133d2565b60405180910390f35b6102cc61196c565b6040516102d99190613123565b60405180910390f35b6102ea611995565b6040516102f79190612ff3565b60405180910390f35b6103086119a5565b60405161031591906134e3565b60405180910390f35b6103266119cb565b6040516103339190613024565b60405180910390f35b610356600480360381019061035191906130e7565b6119de565b604051610365939291906134fe565b60405180910390f35b61038860048036038101906103839190612a04565b6120a7565b005b61039261212a565b60405161039f91906129e9565b60405180910390f35b6000603c600260009054906101000a900460ff166103c69190613564565b60ff16426103d491906135a1565b8311610415576040517f08c379a000000000000000000000000000000000000000000000000000000000815260040161040c90613647565b60405180910390fd5b603c600260019054906101000a900460ff166104319190613564565b60ff168461043f91906135a1565b831015610481576040517f08c379a0000000000000000000000000000000000000000000000000000000008152600401610478906136d9565b60405180910390fd5b60008411156104f557603c60028054906101000a900460ff166104a49190613564565b60ff16426104b291906135a1565b8410156104f4576040517f08c379a00000000000000000000000000000000000000000000000000000000081526004016104eb9061376b565b60405180910390fd5b5b60015490506001805461050891906135a1565b6001819055508060046000838152602001908152602001600020600001819055508860046000838152602001908152602001600020600c01908161054c919061398d565b50336004600083815260200190815260200160002060010160006101000a81548173ffffffffffffffffffffffffffffffffffffffff021916908373ffffffffffffffffffffffffffffffffffffffff16021790555060006004600083815260200190815260200160002060010160146101000a81548160ff021916908360038111156105dc576105db612a7b565b5b0217905550866004600083815260200190815260200160002060030160006101000a81548160ff0219169083600581111561061a57610619612a7b565b5b0217905550426004600083815260200190815260200160002060060181905550836004600083815260200190815260200160002060080181905550826004600083815260200190815260200160002060070181905550816004600083815260200190815260200160002060090160006101000a81548173ffffffffffffffffffffffffffffffffffffffff021916908373ffffffffffffffffffffffffffffffffffffffff160217905550846004600083815260200190815260200160002060050190805190602001906106ef92919061227a565b5060005b88518110156107f6576004600083815260200190815260200160002060020189828151811061072557610724613a5f565b5b602002602001015190806001815401808255809150506001900390600052602060002090600202016000909190919091506000820151816000015560208201518160010160006101000a81548160ff0219169083600281111561078b5761078a612a7b565b5b021790555060408201518160010160016101000a81548160ff021916908360098111156107bb576107ba612a7b565b5b021790555060608201518160010160026101000a81548160ff021916908360ff160217905550505080806107ee90613a8e565b9150506106f3565b5060005b86518110156108fd576004600083815260200190815260200160002060040187828151811061082c5761082b613a5f565b5b602002602001015190806001815401808255809150506001900390600052602060002090600202016000909190919091506000820151816000015560208201518160010160006101000a81548160ff0219169083600281111561089257610891612a7b565b5b021790555060408201518160010160016101000a81548160ff021916908360098111156108c2576108c1612a7b565b5b021790555060608201518160010160026101000a81548160ff021916908360ff160217905550505080806108f590613a8e565b9150506107fa565b50600560003373ffffffffffffffffffffffffffffffffffffffff1673ffffffffffffffffffffffffffffffffffffffff1681526020019081526020016000208190806001815401808255809150506001900390600052602060002001600090919091909150553373ffffffffffffffffffffffffffffffffffffffff16817fdbd2ef945ab6416d209e83d631bf6311584742471678a78255cad3b136033f68846040516109ab9190613123565b60405180910390a398975050505050505050565b60606000600560008473ffffffffffffffffffffffffffffffffffffffff1673ffffffffffffffffffffffffffffffffffffffff16815260200190815260200160002080549050905060008103610a4b576040517f08c379a0000000000000000000000000000000000000000000000000000000008152600401610a4290613b22565b60405180910390fd5b60008167ffffffffffffffff811115610a6757610a6661240f565b5b604051908082528060200260200182016040528015610aa057816020015b610a8d612304565b815260200190600190039081610a855790505b50905060005b82811015610fcf5760046000600560008873ffffffffffffffffffffffffffffffffffffffff1673ffffffffffffffffffffffffffffffffffffffff1681526020019081526020016000208381548110610b0357610b02613a5f565b5b90600052602060002001548152602001908152602001600020604051806101c0016040529081600082015481526020016001820160009054906101000a900473ffffffffffffffffffffffffffffffffffffffff1673ffffffffffffffffffffffffffffffffffffffff1673ffffffffffffffffffffffffffffffffffffffff1681526020016001820160149054906101000a900460ff166003811115610bad57610bac612a7b565b5b6003811115610bbf57610bbe612a7b565b5b815260200160028201805480602002602001604051908101604052809291908181526020016000905b82821015610cb75783829060005260206000209060020201604051806080016040529081600082015481526020016001820160009054906101000a900460ff166002811115610c3a57610c39612a7b565b5b6002811115610c4c57610c4b612a7b565b5b81526020016001820160019054906101000a900460ff166009811115610c7557610c74612a7b565b5b6009811115610c8757610c86612a7b565b5b81526020016001820160029054906101000a900460ff1660ff1660ff168152505081526020019060010190610be8565b5050505081526020016003820160009054906101000a900460ff166005811115610ce457610ce3612a7b565b5b6005811115610cf657610cf5612a7b565b5b815260200160048201805480602002602001604051908101604052809291908181526020016000905b82821015610dee5783829060005260206000209060020201604051806080016040529081600082015481526020016001820160009054906101000a900460ff166002811115610d7157610d70612a7b565b5b6002811115610d8357610d82612a7b565b5b81526020016001820160019054906101000a900460ff166009811115610dac57610dab612a7b565b5b6009811115610dbe57610dbd612a7b565b5b81526020016001820160029054906101000a900460ff1660ff1660ff168152505081526020019060010190610d1f565b50505050815260200160058201805480602002602001604051908101604052809291908181526020018280548015610e7b57602002820191906000526020600020905b8160009054906101000a900473ffffffffffffffffffffffffffffffffffffffff1673ffffffffffffffffffffffffffffffffffffffff1681526020019060010190808311610e31575b505050505081526020016006820154815260200160078201548152602001600882015481526020016009820160009054906101000a900473ffffffffffffffffffffffffffffffffffffffff1673ffffffffffffffffffffffffffffffffffffffff1673ffffffffffffffffffffffffffffffffffffffff168152602001600a8201548152602001600b8201548152602001600c82018054610f1c906137ba565b80601f0160208091040260200160405190810160405280929190818152602001828054610f48906137ba565b8015610f955780601f10610f6a57610100808354040283529160200191610f95565b820191906000526020600020905b815481529060010190602001808311610f7857829003601f168201915b505050505081525050828281518110610fb157610fb0613a5f565b5b60200260200101819052508080610fc790613a8e565b915050610aa6565b508092505050919050565b600260019054906101000a900460ff1681565b6000611007604051806020016040528060008152506116c5565b5090508061104a576040517f08c379a000000000000000000000000000000000000000000000000000000000815260040161104190613b8e565b60405180910390fd5b60005b60015481101561164a576000600381111561106b5761106a612a7b565b5b6004600083815260200190815260200160002060010160149054906101000a900460ff1660038111156110a1576110a0612a7b565b5b036116375760046000828152602001908152602001600020600701544211156113405760026004600083815260200190815260200160002060010160146101000a81548160ff021916908360038111156110fe576110fd612a7b565b5b02179055506004600082815260200190815260200160002060090160009054906101000a900473ffffffffffffffffffffffffffffffffffffffff1673ffffffffffffffffffffffffffffffffffffffff1663e9c6afb56040518163ffffffff1660e01b8152600401600060405180830381600087803b15801561118157600080fd5b505af1925050508015611192575060015b61127c5761119e613bbb565b806308c379a00361120257506111b2613bdd565b806111bd5750611204565b60016004600084815260200190815260200160002060010160146101000a81548160ff021916908360038111156111f7576111f6612a7b565b5b021790555050611277565b505b3d8060008114611230576040519150601f19603f3d011682016040523d82523d6000602084013e611235565b606091505b5060016004600084815260200190815260200160002060010160146101000a81548160ff021916908360038111156112705761126f612a7b565b5b0217905550505b61133b565b6004600082815260200190815260200160002060010160009054906101000a900473ffffffffffffffffffffffffffffffffffffffff1673ffffffffffffffffffffffffffffffffffffffff16817f821cba8cf35bea81554901901507b14ddcf01630a79e3116cfda59f6fd46464c6004600085815260200190815260200160002060090160009054906101000a900473ffffffffffffffffffffffffffffffffffffffff166002604051611332929190613c6d565b60405180910390a35b611637565b6004600082815260200190815260200160002060080154421061163657600080600061136b846119de565b92509250925060011515831515036116325760036004600086815260200190815260200160002060010160146101000a81548160ff021916908360038111156113b7576113b6612a7b565b5b02179055508160046000868152602001908152602001600020600a01819055508060046000868152602001908152602001600020600b01819055506004600085815260200190815260200160002060090160009054906101000a900473ffffffffffffffffffffffffffffffffffffffff1673ffffffffffffffffffffffffffffffffffffffff1663989c20596040518163ffffffff1660e01b8152600401600060405180830381600087803b15801561147057600080fd5b505af1925050508015611481575060015b61156b5761148d613bbb565b806308c379a0036114f157506114a1613bdd565b806114ac57506114f3565b60016004600087815260200190815260200160002060010160146101000a81548160ff021916908360038111156114e6576114e5612a7b565b5b021790555050611566565b505b3d806000811461151f576040519150601f19603f3d011682016040523d82523d6000602084013e611524565b606091505b5060016004600087815260200190815260200160002060010160146101000a81548160ff0219169083600381111561155f5761155e612a7b565b5b0217905550505b61162a565b6004600085815260200190815260200160002060010160009054906101000a900473ffffffffffffffffffffffffffffffffffffffff1673ffffffffffffffffffffffffffffffffffffffff16847f821cba8cf35bea81554901901507b14ddcf01630a79e3116cfda59f6fd46464c6004600088815260200190815260200160002060090160009054906101000a900473ffffffffffffffffffffffffffffffffffffffff166003604051611621929190613c6d565b60405180910390a35b505050611637565b5050505b5b808061164290613a8e565b91505061104d565b50505050565b60028054906101000a900460ff1681565b60036020528060005260406000206000915054906101000a900473ffffffffffffffffffffffffffffffffffffffff1681565b600560205281600052604060002081815481106116b057600080fd5b90600052602060002001600091509150505481565b6000606060005b6001548110156117a457600060038111156116ea576116e9612a7b565b5b6004600083815260200190815260200160002060010160149054906101000a900460ff1660038111156117205761171f612a7b565b5b0361179157600460008281526020019081526020016000206007015442111561174c57600192506117a4565b60046000828152602001908152602001600020600801544210611790576000611774826119de565b50509050600115158115150361178e5760019350506117a4565b505b5b808061179c90613a8e565b9150506116cc565b50816040518060200160405280600081525091509150915091565b6117c7612130565b6117d160006121ae565b565b6117db612130565b82600260006101000a81548160ff021916908360ff16021790555081600260016101000a81548160ff021916908360ff160217905550806002806101000a81548160ff021916908360ff160217905550505050565b60046020528060005260406000206000915090508060000154908060010160009054906101000a900473ffffffffffffffffffffffffffffffffffffffff16908060010160149054906101000a900460ff16908060030160009054906101000a900460ff16908060060154908060070154908060080154908060090160009054906101000a900473ffffffffffffffffffffffffffffffffffffffff169080600a01549080600b01549080600c0180546118e9906137ba565b80601f0160208091040260200160405190810160405280929190818152602001828054611915906137ba565b80156119625780601f1061193757610100808354040283529160200191611962565b820191906000526020600020905b81548152906001019060200180831161194557829003601f168201915b505050505090508b565b60008060009054906101000a900473ffffffffffffffffffffffffffffffffffffffff16905090565b60606119a0336109bf565b905090565b600660009054906101000a900473ffffffffffffffffffffffffffffffffffffffff1681565b600260009054906101000a900460ff1681565b60008060006001548411156119fd5760008060009250925092506120a0565b6000600460008681526020019081526020016000206005018054905067ffffffffffffffff811115611a3257611a3161240f565b5b604051908082528060200260200182016040528015611a605781602001602082028036833780820191505090505b50905060005b6004600087815260200190815260200160002060050180549050811015611ba757600660009054906101000a900473ffffffffffffffffffffffffffffffffffffffff1673ffffffffffffffffffffffffffffffffffffffff16635a044aaf600460008981526020019081526020016000206005018381548110611aed57611aec613a5f565b5b9060005260206000200160009054906101000a900473ffffffffffffffffffffffffffffffffffffffff166040518263ffffffff1660e01b8152600401611b349190613123565b602060405180830381865afa158015611b51573d6000803e3d6000fd5b505050506040513d601f19601f82011682018060405250810190611b759190613cab565b828281518110611b8857611b87613a5f565b5b6020026020010181815250508080611b9f90613a8e565b915050611a66565b506000806000600660009054906101000a900473ffffffffffffffffffffffffffffffffffffffff1673ffffffffffffffffffffffffffffffffffffffff1663e4b39308600460008b8152602001908152602001600020600201866040518363ffffffff1660e01b8152600401611c1f929190613f6f565b602060405180830381865afa925050508015611c5957506040513d601f19601f82011682018060405250810190611c569190613cab565b60015b611ccd57611c65613bbb565b806308c379a003611c8e5750611c79613bdd565b80611c845750611c90565b6001915050611cc8565b505b3d8060008114611cbc576040519150601f19603f3d011682016040523d82523d6000602084013e611cc1565b606091505b5060019150505b611cd2565b809350505b600660009054906101000a900473ffffffffffffffffffffffffffffffffffffffff1673ffffffffffffffffffffffffffffffffffffffff1663e4b39308600460008b8152602001908152602001600020600401866040518363ffffffff1660e01b8152600401611d44929190613f6f565b602060405180830381865afa925050508015611d7e57506040513d601f19601f82011682018060405250810190611d7b9190613cab565b60015b611df257611d8a613bbb565b806308c379a003611db35750611d9e613bdd565b80611da95750611db5565b6001915050611ded565b505b3d8060008114611de1576040519150601f19603f3d011682016040523d82523d6000602084013e611de6565b606091505b5060019150505b611df7565b809250505b8015611e11576000806000965096509650505050506120a0565b60006005811115611e2557611e24612a7b565b5b600460008a815260200190815260200160002060030160009054906101000a900460ff166005811115611e5b57611e5a612a7b565b5b03611e74578183148383965096509650505050506120a0565b60016005811115611e8857611e87612a7b565b5b600460008a815260200190815260200160002060030160009054906101000a900460ff166005811115611ebe57611ebd612a7b565b5b03611ed857818314158383965096509650505050506120a0565b60026005811115611eec57611eeb612a7b565b5b600460008a815260200190815260200160002060030160009054906101000a900460ff166005811115611f2257611f21612a7b565b5b03611f3b578183138383965096509650505050506120a0565b60036005811115611f4f57611f4e612a7b565b5b600460008a815260200190815260200160002060030160009054906101000a900460ff166005811115611f8557611f84612a7b565b5b03611f9f57818312158383965096509650505050506120a0565b60046005811115611fb357611fb2612a7b565b5b600460008a815260200190815260200160002060030160009054906101000a900460ff166005811115611fe957611fe8612a7b565b5b03612002578183128383965096509650505050506120a0565b60058081111561201557612014612a7b565b5b600460008a815260200190815260200160002060030160009054906101000a900460ff16600581111561204b5761204a612a7b565b5b0361206557818313158383965096509650505050506120a0565b6040517f08c379a000000000000000000000000000000000000000000000000000000000815260040161209790613ff2565b60405180910390fd5b9193909250565b6120af612130565b600073ffffffffffffffffffffffffffffffffffffffff168173ffffffffffffffffffffffffffffffffffffffff160361211e576040517f08c379a000000000000000000000000000000000000000000000000000000000815260040161211590614084565b60405180910390fd5b612127816121ae565b50565b60015481565b612138612272565b73ffffffffffffffffffffffffffffffffffffffff1661215661196c565b73ffffffffffffffffffffffffffffffffffffffff16146121ac576040517f08c379a00000000000000000000000000000000000000000000000000000000081526004016121a3906140f0565b60405180910390fd5b565b60008060009054906101000a900473ffffffffffffffffffffffffffffffffffffffff169050816000806101000a81548173ffffffffffffffffffffffffffffffffffffffff021916908373ffffffffffffffffffffffffffffffffffffffff1602179055508173ffffffffffffffffffffffffffffffffffffffff168173ffffffffffffffffffffffffffffffffffffffff167f8be0079c531659141344cd1fd0a4f28419497f9722a3daafe3b4186f6b6457e060405160405180910390a35050565b600033905090565b8280548282559060005260206000209081019282156122f3579160200282015b828111156122f25782518260006101000a81548173ffffffffffffffffffffffffffffffffffffffff021916908373ffffffffffffffffffffffffffffffffffffffff1602179055509160200191906001019061229a565b5b50905061230091906123c3565b5090565b604051806101c0016040528060008152602001600073ffffffffffffffffffffffffffffffffffffffff1681526020016000600381111561234857612347612a7b565b5b8152602001606081526020016000600581111561236857612367612a7b565b5b81526020016060815260200160608152602001600081526020016000815260200160008152602001600073ffffffffffffffffffffffffffffffffffffffff1681526020016000815260200160008152602001606081525090565b5b808211156123dc5760008160009055506001016123c4565b5090565b6000604051905090565b600080fd5b600080fd5b600080fd5b600080fd5b6000601f19601f8301169050919050565b7f4e487b7100000000000000000000000000000000000000000000000000000000600052604160045260246000fd5b612447826123fe565b810181811067ffffffffffffffff821117156124665761246561240f565b5b80604052505050565b60006124796123e0565b9050612485828261243e565b919050565b600067ffffffffffffffff8211156124a5576124a461240f565b5b6124ae826123fe565b9050602081019050919050565b82818337600083830152505050565b60006124dd6124d88461248a565b61246f565b9050828152602081018484840111156124f9576124f86123f9565b5b6125048482856124bb565b509392505050565b600082601f830112612521576125206123f4565b5b81356125318482602086016124ca565b91505092915050565b600067ffffffffffffffff8211156125555761255461240f565b5b602082029050602081019050919050565b600080fd5b600080fd5b6000819050919050565b61258381612570565b811461258e57600080fd5b50565b6000813590506125a08161257a565b92915050565b600381106125b357600080fd5b50565b6000813590506125c5816125a6565b92915050565b600a81106125d857600080fd5b50565b6000813590506125ea816125cb565b92915050565b600060ff82169050919050565b612606816125f0565b811461261157600080fd5b50565b600081359050612623816125fd565b92915050565b60006080828403121561263f5761263e61256b565b5b612649608061246f565b9050600061265984828501612591565b600083015250602061266d848285016125b6565b6020830152506040612681848285016125db565b604083015250606061269584828501612614565b60608301525092915050565b60006126b46126af8461253a565b61246f565b905080838252602082019050608084028301858111156126d7576126d6612566565b5b835b8181101561270057806126ec8882612629565b8452602084019350506080810190506126d9565b5050509392505050565b600082601f83011261271f5761271e6123f4565b5b813561272f8482602086016126a1565b91505092915050565b6006811061274557600080fd5b50565b60008135905061275781612738565b92915050565b600067ffffffffffffffff8211156127785761277761240f565b5b602082029050602081019050919050565b600073ffffffffffffffffffffffffffffffffffffffff82169050919050565b60006127b482612789565b9050919050565b6127c4816127a9565b81146127cf57600080fd5b50565b6000813590506127e1816127bb565b92915050565b60006127fa6127f58461275d565b61246f565b9050808382526020820190506020840283018581111561281d5761281c612566565b5b835b81811015612846578061283288826127d2565b84526020840193505060208101905061281f565b5050509392505050565b600082601f830112612865576128646123f4565b5b81356128758482602086016127e7565b91505092915050565b6000819050919050565b6128918161287e565b811461289c57600080fd5b50565b6000813590506128ae81612888565b92915050565b600080600080600080600080610100898b0312156128d5576128d46123ea565b5b600089013567ffffffffffffffff8111156128f3576128f26123ef565b5b6128ff8b828c0161250c565b985050602089013567ffffffffffffffff8111156129205761291f6123ef565b5b61292c8b828c0161270a565b975050604061293d8b828c01612748565b965050606089013567ffffffffffffffff81111561295e5761295d6123ef565b5b61296a8b828c0161270a565b955050608089013567ffffffffffffffff81111561298b5761298a6123ef565b5b6129978b828c01612850565b94505060a06129a88b828c0161289f565b93505060c06129b98b828c0161289f565b92505060e06129ca8b828c016127d2565b9150509295985092959890939650565b6129e38161287e565b82525050565b60006020820190506129fe60008301846129da565b92915050565b600060208284031215612a1a57612a196123ea565b5b6000612a28848285016127d2565b91505092915050565b600081519050919050565b600082825260208201905092915050565b6000819050602082019050919050565b612a668161287e565b82525050565b612a75816127a9565b82525050565b7f4e487b7100000000000000000000000000000000000000000000000000000000600052602160045260246000fd5b60048110612abb57612aba612a7b565b5b50565b6000819050612acc82612aaa565b919050565b6000612adc82612abe565b9050919050565b612aec81612ad1565b82525050565b600081519050919050565b600082825260208201905092915050565b6000819050602082019050919050565b612b2781612570565b82525050565b60038110612b3e57612b3d612a7b565b5b50565b6000819050612b4f82612b2d565b919050565b6000612b5f82612b41565b9050919050565b612b6f81612b54565b82525050565b600a8110612b8657612b85612a7b565b5b50565b6000819050612b9782612b75565b919050565b6000612ba782612b89565b9050919050565b612bb781612b9c565b82525050565b612bc6816125f0565b82525050565b608082016000820151612be26000850182612b1e565b506020820151612bf56020850182612b66565b506040820151612c086040850182612bae565b506060820151612c1b6060850182612bbd565b50505050565b6000612c2d8383612bcc565b60808301905092915050565b6000602082019050919050565b6000612c5182612af2565b612c5b8185612afd565b9350612c6683612b0e565b8060005b83811015612c97578151612c7e8882612c21565b9750612c8983612c39565b925050600181019050612c6a565b5085935050505092915050565b60068110612cb557612cb4612a7b565b5b50565b6000819050612cc682612ca4565b919050565b6000612cd682612cb8565b9050919050565b612ce681612ccb565b82525050565b600081519050919050565b600082825260208201905092915050565b6000819050602082019050919050565b6000612d248383612a6c565b60208301905092915050565b6000602082019050919050565b6000612d4882612cec565b612d528185612cf7565b9350612d5d83612d08565b8060005b83811015612d8e578151612d758882612d18565b9750612d8083612d30565b925050600181019050612d61565b5085935050505092915050565b600081519050919050565b600082825260208201905092915050565b60005b83811015612dd5578082015181840152602081019050612dba565b60008484015250505050565b6000612dec82612d9b565b612df68185612da6565b9350612e06818560208601612db7565b612e0f816123fe565b840191505092915050565b60006101c083016000830151612e336000860182612a5d565b506020830151612e466020860182612a6c565b506040830151612e596040860182612ae3565b5060608301518482036060860152612e718282612c46565b9150506080830151612e866080860182612cdd565b5060a083015184820360a0860152612e9e8282612c46565b91505060c083015184820360c0860152612eb88282612d3d565b91505060e0830151612ecd60e0860182612a5d565b50610100830151612ee2610100860182612a5d565b50610120830151612ef7610120860182612a5d565b50610140830151612f0c610140860182612a6c565b50610160830151612f21610160860182612b1e565b50610180830151612f36610180860182612b1e565b506101a08301518482036101a0860152612f508282612de1565b9150508091505092915050565b6000612f698383612e1a565b905092915050565b6000602082019050919050565b6000612f8982612a31565b612f938185612a3c565b935083602082028501612fa585612a4d565b8060005b85811015612fe15784840389528151612fc28582612f5d565b9450612fcd83612f71565b925060208a01995050600181019050612fa9565b50829750879550505050505092915050565b6000602082019050818103600083015261300d8184612f7e565b905092915050565b61301e816125f0565b82525050565b60006020820190506130396000830184613015565b92915050565b600080fd5b60008083601f84011261305a576130596123f4565b5b8235905067ffffffffffffffff8111156130775761307661303f565b5b60208301915083600182028301111561309357613092612566565b5b9250929050565b600080602083850312156130b1576130b06123ea565b5b600083013567ffffffffffffffff8111156130cf576130ce6123ef565b5b6130db85828601613044565b92509250509250929050565b6000602082840312156130fd576130fc6123ea565b5b600061310b8482850161289f565b91505092915050565b61311d816127a9565b82525050565b60006020820190506131386000830184613114565b92915050565b60008060408385031215613155576131546123ea565b5b6000613163858286016127d2565b92505060206131748582860161289f565b9150509250929050565b600067ffffffffffffffff8211156131995761319861240f565b5b6131a2826123fe565b9050602081019050919050565b60006131c26131bd8461317e565b61246f565b9050828152602081018484840111156131de576131dd6123f9565b5b6131e98482856124bb565b509392505050565b600082601f830112613206576132056123f4565b5b81356132168482602086016131af565b91505092915050565b600060208284031215613235576132346123ea565b5b600082013567ffffffffffffffff811115613253576132526123ef565b5b61325f848285016131f1565b91505092915050565b60008115159050919050565b61327d81613268565b82525050565b600081519050919050565b600082825260208201905092915050565b60006132aa82613283565b6132b4818561328e565b93506132c4818560208601612db7565b6132cd816123fe565b840191505092915050565b60006040820190506132ed6000830185613274565b81810360208301526132ff818461329f565b90509392505050565b600080600060608486031215613321576133206123ea565b5b600061332f86828701612614565b935050602061334086828701612614565b925050604061335186828701612614565b9150509250925092565b61336481612ad1565b82525050565b61337381612ccb565b82525050565b61338281612570565b82525050565b600082825260208201905092915050565b60006133a482612d9b565b6133ae8185613388565b93506133be818560208601612db7565b6133c7816123fe565b840191505092915050565b6000610160820190506133e8600083018e6129da565b6133f5602083018d613114565b613402604083018c61335b565b61340f606083018b61336a565b61341c608083018a6129da565b61342960a08301896129da565b61343660c08301886129da565b61344360e0830187613114565b613451610100830186613379565b61345f610120830185613379565b8181036101408301526134728184613399565b90509c9b505050505050505050505050565b6000819050919050565b60006134a96134a461349f84612789565b613484565b612789565b9050919050565b60006134bb8261348e565b9050919050565b60006134cd826134b0565b9050919050565b6134dd816134c2565b82525050565b60006020820190506134f860008301846134d4565b92915050565b60006060820190506135136000830186613274565b6135206020830185613379565b61352d6040830184613379565b949350505050565b7f4e487b7100000000000000000000000000000000000000000000000000000000600052601160045260246000fd5b600061356f826125f0565b915061357a836125f0565b9250828202613588816125f0565b915080821461359a57613599613535565b5b5092915050565b60006135ac8261287e565b91506135b78361287e565b92508282019050808211156135cf576135ce613535565b5b92915050565b7f54696d656f75742064617465206661727468657220696e746f2074686520667560008201527f7475726520726571756972656400000000000000000000000000000000000000602082015250565b6000613631602d83613388565b915061363c826135d5565b604082019050919050565b6000602082019050818103600083015261366081613624565b9050919050565b7f41206c6f6e676572206576616c756174696f6e20706572696f6420726571756960008201527f7265640000000000000000000000000000000000000000000000000000000000602082015250565b60006136c3602383613388565b91506136ce82613667565b604082019050919050565b600060208201905081810360008301526136f2816136b6565b9050919050565b7f41637469766174696f6e206d7573742062652030206f7220696e20746865206660008201527f7574757265000000000000000000000000000000000000000000000000000000602082015250565b6000613755602583613388565b9150613760826136f9565b604082019050919050565b6000602082019050818103600083015261378481613748565b9050919050565b7f4e487b7100000000000000000000000000000000000000000000000000000000600052602260045260246000fd5b600060028204905060018216806137d257607f821691505b6020821081036137e5576137e461378b565b5b50919050565b60008190508160005260206000209050919050565b60006020601f8301049050919050565b600082821b905092915050565b60006008830261384d7fffffffffffffffffffffffffffffffffffffffffffffffffffffffffffffffff82613810565b6138578683613810565b95508019841693508086168417925050509392505050565b600061388a6138856138808461287e565b613484565b61287e565b9050919050565b6000819050919050565b6138a48361386f565b6138b86138b082613891565b84845461381d565b825550505050565b600090565b6138cd6138c0565b6138d881848461389b565b505050565b5b818110156138fc576138f16000826138c5565b6001810190506138de565b5050565b601f82111561394157613912816137eb565b61391b84613800565b8101602085101561392a578190505b61393e61393685613800565b8301826138dd565b50505b505050565b600082821c905092915050565b600061396460001984600802613946565b1980831691505092915050565b600061397d8383613953565b9150826002028217905092915050565b61399682612d9b565b67ffffffffffffffff8111156139af576139ae61240f565b5b6139b982546137ba565b6139c4828285613900565b600060209050601f8311600181146139f757600084156139e5578287015190505b6139ef8582613971565b865550613a57565b601f198416613a05866137eb565b60005b82811015613a2d57848901518255600182019150602085019450602081019050613a08565b86831015613a4a5784890151613a46601f891682613953565b8355505b6001600288020188555050505b505050505050565b7f4e487b7100000000000000000000000000000000000000000000000000000000600052603260045260246000fd5b6000613a998261287e565b91507fffffffffffffffffffffffffffffffffffffffffffffffffffffffffffffffff8203613acb57613aca613535565b5b600182019050919050565b7f596f752068617665206e6f206a6f627300000000000000000000000000000000600082015250565b6000613b0c601083613388565b9150613b1782613ad6565b602082019050919050565b60006020820190508181036000830152613b3b81613aff565b9050919050565b7f55706b656570206e6f74206e6565646564000000000000000000000000000000600082015250565b6000613b78601183613388565b9150613b8382613b42565b602082019050919050565b60006020820190508181036000830152613ba781613b6b565b9050919050565b60008160e01c9050919050565b600060033d1115613bda5760046000803e613bd7600051613bae565b90505b90565b600060443d10613c6a57613bef6123e0565b60043d036004823e80513d602482011167ffffffffffffffff82111715613c17575050613c6a565b808201805167ffffffffffffffff811115613c355750505050613c6a565b80602083010160043d038501811115613c52575050505050613c6a565b613c618260200185018661243e565b82955050505050505b90565b6000604082019050613c826000830185613114565b613c8f602083018461335b565b9392505050565b600081519050613ca58161257a565b92915050565b600060208284031215613cc157613cc06123ea565b5b6000613ccf84828501613c96565b91505092915050565b600081549050919050565b600082825260208201905092915050565b60008190508160005260206000209050919050565b60008160001c9050919050565b6000819050919050565b6000613d33613d2e83613d09565b613d16565b9050919050565b600060ff82169050919050565b6000613d5a613d5583613d09565b613d3a565b9050919050565b60008160081c9050919050565b600060ff82169050919050565b6000613d8e613d8983613d61565b613d6e565b9050919050565b60008160101c9050919050565b600060ff82169050919050565b6000613dc2613dbd83613d95565b613da2565b9050919050565b608082016000808301549050613dde81613d20565b613deb6000860182612b1e565b5060018301549050613dfc81613d47565b613e096020860182612b66565b50613e1381613d7b565b613e206040860182612bae565b50613e2a81613daf565b613e376060860182612bbd565b5050505050565b6000613e4a8383613dc9565b60808301905092915050565b6000600282019050919050565b6000613e6e82613cd8565b613e788185613ce3565b9350613e8383613cf4565b8060005b83811015613eb35781613e9a8882613e3e565b9750613ea583613e56565b925050600181019050613e87565b5085935050505092915050565b600081519050919050565b600082825260208201905092915050565b6000819050602082019050919050565b6000613ef88383612b1e565b60208301905092915050565b6000602082019050919050565b6000613f1c82613ec0565b613f268185613ecb565b9350613f3183613edc565b8060005b83811015613f62578151613f498882613eec565b9750613f5483613f04565b925050600181019050613f35565b5085935050505092915050565b60006040820190508181036000830152613f898185613e63565b90508181036020830152613f9d8184613f11565b90509392505050565b7f556e6b6e6f776e20636f6d70617261746f720000000000000000000000000000600082015250565b6000613fdc601283613388565b9150613fe782613fa6565b602082019050919050565b6000602082019050818103600083015261400b81613fcf565b9050919050565b7f4f776e61626c653a206e6577206f776e657220697320746865207a65726f206160008201527f6464726573730000000000000000000000000000000000000000000000000000602082015250565b600061406e602683613388565b915061407982614012565b604082019050919050565b6000602082019050818103600083015261409d81614061565b9050919050565b7f4f776e61626c653a2063616c6c6572206973206e6f7420746865206f776e6572600082015250565b60006140da602083613388565b91506140e5826140a4565b602082019050919050565b60006020820190508181036000830152614109816140cd565b905091905056fea26469706673582212202425c8ae6573eabbb3da4f30af326962b5e8b4c5318a51a5d9534b19c3c3d74c64736f6c63430008110033",
  "linkReferences": {},
  "deployedLinkReferences": {}
}