{
  "_format": "hh-sol-artifact-1",
  "contractName": "UmpireRegistry",
  "sourceName": "contracts/UmpireRegistry.sol",
  "abi": [
    {
      "inputs": [
        {
          "internalType": "address",
          "name": "_resolver",
          "type": "address"
        }
      ],
      "stateMutability": "nonpayable",
      "type": "constructor"
    },
    {
      "anonymous": false,
      "inputs": [
        {
          "indexed": true,
          "internalType": "address",
          "name": "previousOwner",
          "type": "address"
        },
        {
          "indexed": true,
          "internalType": "address",
          "name": "newOwner",
          "type": "address"
        }
      ],
      "name": "OwnershipTransferred",
      "type": "event"
    },
    {
      "anonymous": false,
      "inputs": [
        {
          "indexed": true,
          "internalType": "uint256",
          "name": "jobId",
          "type": "uint256"
        },
        {
          "indexed": true,
          "internalType": "address",
          "name": "jobOwner",
          "type": "address"
        },
        {
          "indexed": false,
          "internalType": "address",
          "name": "action",
          "type": "address"
        },
        {
          "indexed": false,
          "internalType": "enum UmpireJobStatus",
          "name": "jobStatus",
          "type": "uint8"
        }
      ],
      "name": "UmpireJobCompleted",
      "type": "event"
    },
    {
      "anonymous": false,
      "inputs": [
        {
          "indexed": true,
          "internalType": "uint256",
          "name": "jobId",
          "type": "uint256"
        },
        {
          "indexed": true,
          "internalType": "address",
          "name": "jobOwner",
          "type": "address"
        },
        {
          "indexed": false,
          "internalType": "address",
          "name": "action",
          "type": "address"
        }
      ],
      "name": "UmpireJobCreated",
      "type": "event"
    },
    {
      "inputs": [
        {
          "internalType": "bytes",
          "name": "",
          "type": "bytes"
        }
      ],
      "name": "checkUpkeep",
      "outputs": [
        {
          "internalType": "bool",
          "name": "upkeepNeeded",
          "type": "bool"
        },
        {
          "internalType": "bytes",
          "name": "performData",
          "type": "bytes"
        }
      ],
      "stateMutability": "view",
      "type": "function"
    },
    {
      "inputs": [
        {
          "internalType": "string",
          "name": "_name",
          "type": "string"
        },
        {
          "components": [
            {
              "internalType": "int256",
              "name": "value",
              "type": "int256"
            },
            {
              "internalType": "enum PostfixNodeType",
              "name": "nodeType",
              "type": "uint8"
            },
            {
              "internalType": "enum PostfixNodeOperator",
              "name": "operator",
              "type": "uint8"
            },
            {
              "internalType": "uint8",
              "name": "variableIndex",
              "type": "uint8"
            }
          ],
          "internalType": "struct PostfixNode[]",
          "name": "_postfixNodesLeft",
          "type": "tuple[]"
        },
        {
          "internalType": "enum UmpireComparator",
          "name": "_comparator",
          "type": "uint8"
        },
        {
          "components": [
            {
              "internalType": "int256",
              "name": "value",
              "type": "int256"
            },
            {
              "internalType": "enum PostfixNodeType",
              "name": "nodeType",
              "type": "uint8"
            },
            {
              "internalType": "enum PostfixNodeOperator",
              "name": "operator",
              "type": "uint8"
            },
            {
              "internalType": "uint8",
              "name": "variableIndex",
              "type": "uint8"
            }
          ],
          "internalType": "struct PostfixNode[]",
          "name": "_postfixNodesRight",
          "type": "tuple[]"
        },
        {
          "internalType": "address[]",
          "name": "_dataFeeds",
          "type": "address[]"
        },
        {
          "internalType": "uint256",
          "name": "_activationDate",
          "type": "uint256"
        },
        {
          "internalType": "uint256",
          "name": "_timeoutDate",
          "type": "uint256"
        },
        {
          "internalType": "address",
          "name": "_action",
          "type": "address"
        }
      ],
      "name": "createJobFromNodes",
      "outputs": [
        {
          "internalType": "uint256",
          "name": "jobId",
          "type": "uint256"
        }
      ],
      "stateMutability": "nonpayable",
      "type": "function"
    },
    {
      "inputs": [
        {
          "internalType": "uint256",
          "name": "_jobId",
          "type": "uint256"
        }
      ],
      "name": "evaluateJob",
      "outputs": [
        {
          "internalType": "bool",
          "name": "",
          "type": "bool"
        },
        {
          "internalType": "int256",
          "name": "",
          "type": "int256"
        },
        {
          "internalType": "int256",
          "name": "",
          "type": "int256"
        }
      ],
      "stateMutability": "view",
      "type": "function"
    },
    {
      "inputs": [
        {
          "internalType": "address",
          "name": "_owner",
          "type": "address"
        }
      ],
      "name": "getJobsByOwner",
      "outputs": [
        {
          "components": [
            {
              "internalType": "uint256",
              "name": "id",
              "type": "uint256"
            },
            {
              "internalType": "address",
              "name": "owner",
              "type": "address"
            },
            {
              "internalType": "enum UmpireJobStatus",
              "name": "jobStatus",
              "type": "uint8"
            },
            {
              "components": [
                {
                  "internalType": "int256",
                  "name": "value",
                  "type": "int256"
                },
                {
                  "internalType": "enum PostfixNodeType",
                  "name": "nodeType",
                  "type": "uint8"
                },
                {
                  "internalType": "enum PostfixNodeOperator",
                  "name": "operator",
                  "type": "uint8"
                },
                {
                  "internalType": "uint8",
                  "name": "variableIndex",
                  "type": "uint8"
                }
              ],
              "internalType": "struct PostfixNode[]",
              "name": "formulaLeft",
              "type": "tuple[]"
            },
            {
              "internalType": "enum UmpireComparator",
              "name": "comparator",
              "type": "uint8"
            },
            {
              "components": [
                {
                  "internalType": "int256",
                  "name": "value",
                  "type": "int256"
                },
                {
                  "internalType": "enum PostfixNodeType",
                  "name": "nodeType",
                  "type": "uint8"
                },
                {
                  "internalType": "enum PostfixNodeOperator",
                  "name": "operator",
                  "type": "uint8"
                },
                {
                  "internalType": "uint8",
                  "name": "variableIndex",
                  "type": "uint8"
                }
              ],
              "internalType": "struct PostfixNode[]",
              "name": "formulaRight",
              "type": "tuple[]"
            },
            {
              "internalType": "address[]",
              "name": "dataFeeds",
              "type": "address[]"
            },
            {
              "internalType": "uint256",
              "name": "createdAt",
              "type": "uint256"
            },
            {
              "internalType": "uint256",
              "name": "timeoutDate",
              "type": "uint256"
            },
            {
              "internalType": "uint256",
              "name": "activationDate",
              "type": "uint256"
            },
            {
              "internalType": "address",
              "name": "action",
              "type": "address"
            },
            {
              "internalType": "int256",
              "name": "leftValue",
              "type": "int256"
            },
            {
              "internalType": "int256",
              "name": "rightValue",
              "type": "int256"
            },
            {
              "internalType": "string",
              "name": "jobName",
              "type": "string"
            }
          ],
          "internalType": "struct UmpireJob[]",
          "name": "",
          "type": "tuple[]"
        }
      ],
      "stateMutability": "view",
      "type": "function"
    },
    {
      "inputs": [],
      "name": "getMyJobs",
      "outputs": [
        {
          "components": [
            {
              "internalType": "uint256",
              "name": "id",
              "type": "uint256"
            },
            {
              "internalType": "address",
              "name": "owner",
              "type": "address"
            },
            {
              "internalType": "enum UmpireJobStatus",
              "name": "jobStatus",
              "type": "uint8"
            },
            {
              "components": [
                {
                  "internalType": "int256",
                  "name": "value",
                  "type": "int256"
                },
                {
                  "internalType": "enum PostfixNodeType",
                  "name": "nodeType",
                  "type": "uint8"
                },
                {
                  "internalType": "enum PostfixNodeOperator",
                  "name": "operator",
                  "type": "uint8"
                },
                {
                  "internalType": "uint8",
                  "name": "variableIndex",
                  "type": "uint8"
                }
              ],
              "internalType": "struct PostfixNode[]",
              "name": "formulaLeft",
              "type": "tuple[]"
            },
            {
              "internalType": "enum UmpireComparator",
              "name": "comparator",
              "type": "uint8"
            },
            {
              "components": [
                {
                  "internalType": "int256",
                  "name": "value",
                  "type": "int256"
                },
                {
                  "internalType": "enum PostfixNodeType",
                  "name": "nodeType",
                  "type": "uint8"
                },
                {
                  "internalType": "enum PostfixNodeOperator",
                  "name": "operator",
                  "type": "uint8"
                },
                {
                  "internalType": "uint8",
                  "name": "variableIndex",
                  "type": "uint8"
                }
              ],
              "internalType": "struct PostfixNode[]",
              "name": "formulaRight",
              "type": "tuple[]"
            },
            {
              "internalType": "address[]",
              "name": "dataFeeds",
              "type": "address[]"
            },
            {
              "internalType": "uint256",
              "name": "createdAt",
              "type": "uint256"
            },
            {
              "internalType": "uint256",
              "name": "timeoutDate",
              "type": "uint256"
            },
            {
              "internalType": "uint256",
              "name": "activationDate",
              "type": "uint256"
            },
            {
              "internalType": "address",
              "name": "action",
              "type": "address"
            },
            {
              "internalType": "int256",
              "name": "leftValue",
              "type": "int256"
            },
            {
              "internalType": "int256",
              "name": "rightValue",
              "type": "int256"
            },
            {
              "internalType": "string",
              "name": "jobName",
              "type": "string"
            }
          ],
          "internalType": "struct UmpireJob[]",
          "name": "",
          "type": "tuple[]"
        }
      ],
      "stateMutability": "view",
      "type": "function"
    },
    {
      "inputs": [],
      "name": "i_resolver",
      "outputs": [
        {
          "internalType": "contract AbstractUmpireFormulaResolver",
          "name": "",
          "type": "address"
        }
      ],
      "stateMutability": "view",
      "type": "function"
    },
    {
      "inputs": [],
      "name": "owner",
      "outputs": [
        {
          "internalType": "address",
          "name": "",
          "type": "address"
        }
      ],
      "stateMutability": "view",
      "type": "function"
    },
    {
      "inputs": [
        {
          "internalType": "bytes",
          "name": "performData",
          "type": "bytes"
        }
      ],
      "name": "performUpkeep",
      "outputs": [],
      "stateMutability": "nonpayable",
      "type": "function"
    },
    {
      "inputs": [],
      "name": "renounceOwnership",
      "outputs": [],
      "stateMutability": "nonpayable",
      "type": "function"
    },
    {
      "inputs": [],
      "name": "s_counterJobs",
      "outputs": [
        {
          "internalType": "uint256",
          "name": "",
          "type": "uint256"
        }
      ],
      "stateMutability": "view",
      "type": "function"
    },
    {
      "inputs": [
        {
          "internalType": "uint256",
          "name": "",
          "type": "uint256"
        }
      ],
      "name": "s_inputFeeds",
      "outputs": [
        {
          "internalType": "address",
          "name": "",
          "type": "address"
        }
      ],
      "stateMutability": "view",
      "type": "function"
    },
    {
      "inputs": [
        {
          "internalType": "uint256",
          "name": "",
          "type": "uint256"
        }
      ],
      "name": "s_jobs",
      "outputs": [
        {
          "internalType": "uint256",
          "name": "id",
          "type": "uint256"
        },
        {
          "internalType": "address",
          "name": "owner",
          "type": "address"
        },
        {
          "internalType": "enum UmpireJobStatus",
          "name": "jobStatus",
          "type": "uint8"
        },
        {
          "internalType": "enum UmpireComparator",
          "name": "comparator",
          "type": "uint8"
        },
        {
          "internalType": "uint256",
          "name": "createdAt",
          "type": "uint256"
        },
        {
          "internalType": "uint256",
          "name": "timeoutDate",
          "type": "uint256"
        },
        {
          "internalType": "uint256",
          "name": "activationDate",
          "type": "uint256"
        },
        {
          "internalType": "address",
          "name": "action",
          "type": "address"
        },
        {
          "internalType": "int256",
          "name": "leftValue",
          "type": "int256"
        },
        {
          "internalType": "int256",
          "name": "rightValue",
          "type": "int256"
        },
        {
          "internalType": "string",
          "name": "jobName",
          "type": "string"
        }
      ],
      "stateMutability": "view",
      "type": "function"
    },
    {
      "inputs": [
        {
          "internalType": "address",
          "name": "",
          "type": "address"
        },
        {
          "internalType": "uint256",
          "name": "",
          "type": "uint256"
        }
      ],
      "name": "s_jobsByOwner",
      "outputs": [
        {
          "internalType": "uint256",
          "name": "",
          "type": "uint256"
        }
      ],
      "stateMutability": "view",
      "type": "function"
    },
    {
      "inputs": [],
      "name": "s_minimumMinutesActivationOffset",
      "outputs": [
        {
          "internalType": "uint8",
          "name": "",
          "type": "uint8"
        }
      ],
      "stateMutability": "view",
      "type": "function"
    },
    {
      "inputs": [],
      "name": "s_minimumMinutesBeforeTimeout",
      "outputs": [
        {
          "internalType": "uint8",
          "name": "",
          "type": "uint8"
        }
      ],
      "stateMutability": "view",
      "type": "function"
    },
    {
      "inputs": [],
      "name": "s_minimumMinutesBetweenActivationAndTimeout",
      "outputs": [
        {
          "internalType": "uint8",
          "name": "",
          "type": "uint8"
        }
      ],
      "stateMutability": "view",
      "type": "function"
    },
    {
      "inputs": [
        {
          "internalType": "address",
          "name": "newOwner",
          "type": "address"
        }
      ],
      "name": "transferOwnership",
      "outputs": [],
      "stateMutability": "nonpayable",
      "type": "function"
    },
    {
      "inputs": [
        {
          "internalType": "uint8",
          "name": "_minimumMinutesBeforeTimeout",
          "type": "uint8"
        },
        {
          "internalType": "uint8",
          "name": "_minimumMinutesBetweenActivationAndTimeout",
          "type": "uint8"
        },
        {
          "internalType": "uint8",
          "name": "_minimumMinutesActivationOffset",
          "type": "uint8"
        }
      ],
      "name": "updateTimeConstraints",
      "outputs": [],
      "stateMutability": "nonpayable",
      "type": "function"
    }
  ],
  "bytecode": "0x6080604052600060015560028060006101000a81548160ff021916908360ff1602179055506001600260016101000a81548160ff021916908360ff16021790555060016002806101000a81548160ff021916908360ff1602179055503480156200006857600080fd5b5060405162004aa238038062004aa283398181016040528101906200008e91906200022c565b620000ae620000a2620000f660201b60201c565b620000fe60201b60201c565b80600660006101000a81548173ffffffffffffffffffffffffffffffffffffffff021916908373ffffffffffffffffffffffffffffffffffffffff160217905550506200025e565b600033905090565b60008060009054906101000a900473ffffffffffffffffffffffffffffffffffffffff169050816000806101000a81548173ffffffffffffffffffffffffffffffffffffffff021916908373ffffffffffffffffffffffffffffffffffffffff1602179055508173ffffffffffffffffffffffffffffffffffffffff168173ffffffffffffffffffffffffffffffffffffffff167f8be0079c531659141344cd1fd0a4f28419497f9722a3daafe3b4186f6b6457e060405160405180910390a35050565b600080fd5b600073ffffffffffffffffffffffffffffffffffffffff82169050919050565b6000620001f482620001c7565b9050919050565b6200020681620001e7565b81146200021257600080fd5b50565b6000815190506200022681620001fb565b92915050565b600060208284031215620002455762000244620001c2565b5b6000620002558482850162000215565b91505092915050565b614834806200026e6000396000f3fe608060405234801561001057600080fd5b50600436106101165760003560e01c806385acae55116100a2578063a199bf7211610071578063a199bf7214610300578063cfddc5521461031e578063d2ce879c1461033c578063f2fde38b1461036e578063fabe45431461038a57610116565b806385acae551461026e5780638a5ec72b1461028a5780638da5cb5b146102c45780639b00214c146102e257610116565b8063597b6e3f116100e9578063597b6e3f146101b5578063603b3807146101d3578063667474d3146102035780636e04ff0d14610233578063715018a61461026457610116565b806329d10cc61461011b5780632ccbb7eb1461014b57806335ad7d931461017b5780634585e33b14610199575b600080fd5b61013560048036038101906101309190612ced565b6103a8565b6040516101429190612e22565b60405180910390f35b61016560048036038101906101609190612e3d565b610a07565b604051610172919061342c565b60405180910390f35b610183611022565b604051610190919061345d565b60405180910390f35b6101b360048036038101906101ae91906134d3565b611035565b005b6101bd6118bb565b6040516101ca919061345d565b60405180910390f35b6101ed60048036038101906101e89190613520565b6118cc565b6040516101fa919061355c565b60405180910390f35b61021d60048036038101906102189190613577565b6118ff565b60405161022a9190612e22565b60405180910390f35b61024d60048036038101906102489190613658565b611930565b60405161025b929190613711565b60405180910390f35b61026c611bd5565b005b61028860048036038101906102839190613741565b611be9565b005b6102a4600480360381019061029f9190613520565b611c46565b6040516102bb9b9a9998979695949392919061380b565b60405180910390f35b6102cc611d82565b6040516102d9919061355c565b60405180910390f35b6102ea611dab565b6040516102f7919061342c565b60405180910390f35b610308611dbb565b604051610315919061391c565b60405180910390f35b610326611de1565b604051610333919061345d565b60405180910390f35b61035660048036038101906103519190613520565b611df4565b60405161036593929190613937565b60405180910390f35b61038860048036038101906103839190612e3d565b6124bd565b005b610392612540565b60405161039f9190612e22565b60405180910390f35b6000603c600260009054906101000a900460ff166103c6919061399d565b60ff16426103d491906139da565b8311610415576040517f08c379a000000000000000000000000000000000000000000000000000000000815260040161040c90613a80565b60405180910390fd5b603c600260019054906101000a900460ff16610431919061399d565b60ff168461043f91906139da565b831015610481576040517f08c379a000000000000000000000000000000000000000000000000000000000815260040161047890613b12565b60405180910390fd5b61048a82612546565b6104c9576040517f08c379a00000000000000000000000000000000000000000000000000000000081526004016104c090613b7e565b60405180910390fd5b600084111561053d57603c60028054906101000a900460ff166104ec919061399d565b60ff16426104fa91906139da565b84101561053c576040517f08c379a000000000000000000000000000000000000000000000000000000000815260040161053390613c10565b60405180910390fd5b5b60015490506001805461055091906139da565b6001819055508060046000838152602001908152602001600020600001819055508860046000838152602001908152602001600020600c0190816105949190613e32565b50336004600083815260200190815260200160002060010160006101000a81548173ffffffffffffffffffffffffffffffffffffffff021916908373ffffffffffffffffffffffffffffffffffffffff16021790555060006004600083815260200190815260200160002060010160146101000a81548160ff0219169083600381111561062457610623612eb4565b5b0217905550866004600083815260200190815260200160002060030160006101000a81548160ff0219169083600581111561066257610661612eb4565b5b0217905550426004600083815260200190815260200160002060060181905550836004600083815260200190815260200160002060080181905550826004600083815260200190815260200160002060070181905550816004600083815260200190815260200160002060090160006101000a81548173ffffffffffffffffffffffffffffffffffffffff021916908373ffffffffffffffffffffffffffffffffffffffff160217905550846004600083815260200190815260200160002060050190805190602001906107379291906126b3565b5060005b885181101561083e576004600083815260200190815260200160002060020189828151811061076d5761076c613f04565b5b602002602001015190806001815401808255809150506001900390600052602060002090600202016000909190919091506000820151816000015560208201518160010160006101000a81548160ff021916908360028111156107d3576107d2612eb4565b5b021790555060408201518160010160016101000a81548160ff0219169083600981111561080357610802612eb4565b5b021790555060608201518160010160026101000a81548160ff021916908360ff1602179055505050808061083690613f33565b91505061073b565b5060005b8651811015610945576004600083815260200190815260200160002060040187828151811061087457610873613f04565b5b602002602001015190806001815401808255809150506001900390600052602060002090600202016000909190919091506000820151816000015560208201518160010160006101000a81548160ff021916908360028111156108da576108d9612eb4565b5b021790555060408201518160010160016101000a81548160ff0219169083600981111561090a57610909612eb4565b5b021790555060608201518160010160026101000a81548160ff021916908360ff1602179055505050808061093d90613f33565b915050610842565b50600560003373ffffffffffffffffffffffffffffffffffffffff1673ffffffffffffffffffffffffffffffffffffffff1681526020019081526020016000208190806001815401808255809150506001900390600052602060002001600090919091909150553373ffffffffffffffffffffffffffffffffffffffff16817fdbd2ef945ab6416d209e83d631bf6311584742471678a78255cad3b136033f68846040516109f3919061355c565b60405180910390a398975050505050505050565b60606000600560008473ffffffffffffffffffffffffffffffffffffffff1673ffffffffffffffffffffffffffffffffffffffff16815260200190815260200160002080549050905060008103610a93576040517f08c379a0000000000000000000000000000000000000000000000000000000008152600401610a8a90613fc7565b60405180910390fd5b60008167ffffffffffffffff811115610aaf57610aae612848565b5b604051908082528060200260200182016040528015610ae857816020015b610ad561273d565b815260200190600190039081610acd5790505b50905060005b828110156110175760046000600560008873ffffffffffffffffffffffffffffffffffffffff1673ffffffffffffffffffffffffffffffffffffffff1681526020019081526020016000208381548110610b4b57610b4a613f04565b5b90600052602060002001548152602001908152602001600020604051806101c0016040529081600082015481526020016001820160009054906101000a900473ffffffffffffffffffffffffffffffffffffffff1673ffffffffffffffffffffffffffffffffffffffff1673ffffffffffffffffffffffffffffffffffffffff1681526020016001820160149054906101000a900460ff166003811115610bf557610bf4612eb4565b5b6003811115610c0757610c06612eb4565b5b815260200160028201805480602002602001604051908101604052809291908181526020016000905b82821015610cff5783829060005260206000209060020201604051806080016040529081600082015481526020016001820160009054906101000a900460ff166002811115610c8257610c81612eb4565b5b6002811115610c9457610c93612eb4565b5b81526020016001820160019054906101000a900460ff166009811115610cbd57610cbc612eb4565b5b6009811115610ccf57610cce612eb4565b5b81526020016001820160029054906101000a900460ff1660ff1660ff168152505081526020019060010190610c30565b5050505081526020016003820160009054906101000a900460ff166005811115610d2c57610d2b612eb4565b5b6005811115610d3e57610d3d612eb4565b5b815260200160048201805480602002602001604051908101604052809291908181526020016000905b82821015610e365783829060005260206000209060020201604051806080016040529081600082015481526020016001820160009054906101000a900460ff166002811115610db957610db8612eb4565b5b6002811115610dcb57610dca612eb4565b5b81526020016001820160019054906101000a900460ff166009811115610df457610df3612eb4565b5b6009811115610e0657610e05612eb4565b5b81526020016001820160029054906101000a900460ff1660ff1660ff168152505081526020019060010190610d67565b50505050815260200160058201805480602002602001604051908101604052809291908181526020018280548015610ec357602002820191906000526020600020905b8160009054906101000a900473ffffffffffffffffffffffffffffffffffffffff1673ffffffffffffffffffffffffffffffffffffffff1681526020019060010190808311610e79575b505050505081526020016006820154815260200160078201548152602001600882015481526020016009820160009054906101000a900473ffffffffffffffffffffffffffffffffffffffff1673ffffffffffffffffffffffffffffffffffffffff1673ffffffffffffffffffffffffffffffffffffffff168152602001600a8201548152602001600b8201548152602001600c82018054610f6490613c5f565b80601f0160208091040260200160405190810160405280929190818152602001828054610f9090613c5f565b8015610fdd5780601f10610fb257610100808354040283529160200191610fdd565b820191906000526020600020905b815481529060010190602001808311610fc057829003601f168201915b505050505081525050828281518110610ff957610ff8613f04565b5b6020026020010181905250808061100f90613f33565b915050610aee565b508092505050919050565b600260019054906101000a900460ff1681565b6000828281019061104691906140aa565b905060005b81518110156118b55760015482828151811061106a57611069613f04565b5b602002602001015111156110b3576040517f08c379a00000000000000000000000000000000000000000000000000000000081526004016110aa9061413f565b60405180910390fd5b600060038111156110c7576110c6612eb4565b5b600460008484815181106110de576110dd613f04565b5b6020026020010151815260200190815260200160002060010160149054906101000a900460ff16600381111561111757611116612eb4565b5b14611157576040517f08c379a000000000000000000000000000000000000000000000000000000000815260040161114e906141ab565b60405180910390fd5b6004600083838151811061116e5761116d613f04565b5b60200260200101518152602001908152602001600020600701544211156114a7576002600460008484815181106111a8576111a7613f04565b5b6020026020010151815260200190815260200160002060010160146101000a81548160ff021916908360038111156111e3576111e2612eb4565b5b0217905550600460008383815181106111ff576111fe613f04565b5b6020026020010151815260200190815260200160002060090160009054906101000a900473ffffffffffffffffffffffffffffffffffffffff1673ffffffffffffffffffffffffffffffffffffffff1663e9c6afb56040518163ffffffff1660e01b8152600401600060405180830381600087803b15801561128057600080fd5b505af1925050508015611291575060015b6113af5761129d6141d8565b806308c379a00361131b57506112b16141fa565b806112bc575061131d565b6001600460008585815181106112d5576112d4613f04565b5b6020026020010151815260200190815260200160002060010160146101000a81548160ff021916908360038111156113105761130f612eb4565b5b0217905550506113aa565b505b3d8060008114611349576040519150601f19603f3d011682016040523d82523d6000602084013e61134e565b606091505b5060016004600085858151811061136857611367613f04565b5b6020026020010151815260200190815260200160002060010160146101000a81548160ff021916908360038111156113a3576113a2612eb4565b5b0217905550505b6114a2565b600460008383815181106113c6576113c5613f04565b5b6020026020010151815260200190815260200160002060010160009054906101000a900473ffffffffffffffffffffffffffffffffffffffff1673ffffffffffffffffffffffffffffffffffffffff16817f821cba8cf35bea81554901901507b14ddcf01630a79e3116cfda59f6fd46464c6004600086868151811061144f5761144e613f04565b5b6020026020010151815260200190815260200160002060090160009054906101000a900473ffffffffffffffffffffffffffffffffffffffff16600260405161149992919061428a565b60405180910390a35b6118a2565b600460008383815181106114be576114bd613f04565b5b602002602001015181526020019081526020016000206008015442106118a15760008060006115068585815181106114f9576114f8613f04565b5b6020026020010151611df4565b925092509250600115158315150361189d5760036004600087878151811061153157611530613f04565b5b6020026020010151815260200190815260200160002060010160146101000a81548160ff0219169083600381111561156c5761156b612eb4565b5b0217905550816004600087878151811061158957611588613f04565b5b60200260200101518152602001908152602001600020600a018190555080600460008787815181106115be576115bd613f04565b5b60200260200101518152602001908152602001600020600b0181905550600460008686815181106115f2576115f1613f04565b5b6020026020010151815260200190815260200160002060090160009054906101000a900473ffffffffffffffffffffffffffffffffffffffff1673ffffffffffffffffffffffffffffffffffffffff1663989c20596040518163ffffffff1660e01b8152600401600060405180830381600087803b15801561167357600080fd5b505af1925050508015611684575060015b6117a2576116906141d8565b806308c379a00361170e57506116a46141fa565b806116af5750611710565b6001600460008888815181106116c8576116c7613f04565b5b6020026020010151815260200190815260200160002060010160146101000a81548160ff0219169083600381111561170357611702612eb4565b5b02179055505061179d565b505b3d806000811461173c576040519150601f19603f3d011682016040523d82523d6000602084013e611741565b606091505b5060016004600088888151811061175b5761175a613f04565b5b6020026020010151815260200190815260200160002060010160146101000a81548160ff0219169083600381111561179657611795612eb4565b5b0217905550505b611895565b600460008686815181106117b9576117b8613f04565b5b6020026020010151815260200190815260200160002060010160009054906101000a900473ffffffffffffffffffffffffffffffffffffffff1673ffffffffffffffffffffffffffffffffffffffff16847f821cba8cf35bea81554901901507b14ddcf01630a79e3116cfda59f6fd46464c6004600089898151811061184257611841613f04565b5b6020026020010151815260200190815260200160002060090160009054906101000a900473ffffffffffffffffffffffffffffffffffffffff16600360405161188c92919061428a565b60405180910390a35b5050506118a2565b5050505b5b80806118ad90613f33565b91505061104b565b50505050565b60028054906101000a900460ff1681565b60036020528060005260406000206000915054906101000a900473ffffffffffffffffffffffffffffffffffffffff1681565b6005602052816000526040600020818154811061191b57600080fd5b90600052602060002001600091509150505481565b600060606000805b600154811015611a2c576000600381111561195657611955612eb4565b5b6004600083815260200190815260200160002060010160149054906101000a900460ff16600381111561198c5761198b612eb4565b5b03611a195760046000828152602001908152602001600020600701544211156119c6576001935081806119be90613f33565b925050611a19565b60046000828152602001908152602001600020600801544210611a185760006119ee82611df4565b505090506001151581151503611a1657600194508280611a0d90613f33565b93505050611a19565b505b5b8080611a2490613f33565b915050611938565b5060008167ffffffffffffffff811115611a4957611a48612848565b5b604051908082528060200260200182016040528015611a775781602001602082028036833780820191505090505b5090506000805b600154811015611baa5760006003811115611a9c57611a9b612eb4565b5b6004600083815260200190815260200160002060010160149054906101000a900460ff166003811115611ad257611ad1612eb4565b5b03611b97576004600082815260200190815260200160002060070154421115611b285780838381518110611b0957611b08613f04565b5b6020026020010181815250508180611b2090613f33565b925050611b97565b60046000828152602001908152602001600020600801544210611b96576000611b5082611df4565b505090506001151581151503611b945781848481518110611b7457611b73613f04565b5b6020026020010181815250508280611b8b90613f33565b93505050611b97565b505b5b8080611ba290613f33565b915050611a7e565b5081604051602001611bbc9190614362565b6040516020818303038152906040529350505050915091565b611bdd612569565b611be760006125e7565b565b611bf1612569565b82600260006101000a81548160ff021916908360ff16021790555081600260016101000a81548160ff021916908360ff160217905550806002806101000a81548160ff021916908360ff160217905550505050565b60046020528060005260406000206000915090508060000154908060010160009054906101000a900473ffffffffffffffffffffffffffffffffffffffff16908060010160149054906101000a900460ff16908060030160009054906101000a900460ff16908060060154908060070154908060080154908060090160009054906101000a900473ffffffffffffffffffffffffffffffffffffffff169080600a01549080600b01549080600c018054611cff90613c5f565b80601f0160208091040260200160405190810160405280929190818152602001828054611d2b90613c5f565b8015611d785780601f10611d4d57610100808354040283529160200191611d78565b820191906000526020600020905b815481529060010190602001808311611d5b57829003601f168201915b505050505090508b565b60008060009054906101000a900473ffffffffffffffffffffffffffffffffffffffff16905090565b6060611db633610a07565b905090565b600660009054906101000a900473ffffffffffffffffffffffffffffffffffffffff1681565b600260009054906101000a900460ff1681565b6000806000600154841115611e135760008060009250925092506124b6565b6000600460008681526020019081526020016000206005018054905067ffffffffffffffff811115611e4857611e47612848565b5b604051908082528060200260200182016040528015611e765781602001602082028036833780820191505090505b50905060005b6004600087815260200190815260200160002060050180549050811015611fbd57600660009054906101000a900473ffffffffffffffffffffffffffffffffffffffff1673ffffffffffffffffffffffffffffffffffffffff16635a044aaf600460008981526020019081526020016000206005018381548110611f0357611f02613f04565b5b9060005260206000200160009054906101000a900473ffffffffffffffffffffffffffffffffffffffff166040518263ffffffff1660e01b8152600401611f4a919061355c565b602060405180830381865afa158015611f67573d6000803e3d6000fd5b505050506040513d601f19601f82011682018060405250810190611f8b9190614399565b828281518110611f9e57611f9d613f04565b5b6020026020010181815250508080611fb590613f33565b915050611e7c565b506000806000600660009054906101000a900473ffffffffffffffffffffffffffffffffffffffff1673ffffffffffffffffffffffffffffffffffffffff1663e4b39308600460008b8152602001908152602001600020600201866040518363ffffffff1660e01b815260040161203592919061465d565b602060405180830381865afa92505050801561206f57506040513d601f19601f8201168201806040525081019061206c9190614399565b60015b6120e35761207b6141d8565b806308c379a0036120a4575061208f6141fa565b8061209a57506120a6565b60019150506120de565b505b3d80600081146120d2576040519150601f19603f3d011682016040523d82523d6000602084013e6120d7565b606091505b5060019150505b6120e8565b809350505b600660009054906101000a900473ffffffffffffffffffffffffffffffffffffffff1673ffffffffffffffffffffffffffffffffffffffff1663e4b39308600460008b8152602001908152602001600020600401866040518363ffffffff1660e01b815260040161215a92919061465d565b602060405180830381865afa92505050801561219457506040513d601f19601f820116820180604052508101906121919190614399565b60015b612208576121a06141d8565b806308c379a0036121c957506121b46141fa565b806121bf57506121cb565b6001915050612203565b505b3d80600081146121f7576040519150601f19603f3d011682016040523d82523d6000602084013e6121fc565b606091505b5060019150505b61220d565b809250505b8015612227576000806000965096509650505050506124b6565b6000600581111561223b5761223a612eb4565b5b600460008a815260200190815260200160002060030160009054906101000a900460ff16600581111561227157612270612eb4565b5b0361228a578183148383965096509650505050506124b6565b6001600581111561229e5761229d612eb4565b5b600460008a815260200190815260200160002060030160009054906101000a900460ff1660058111156122d4576122d3612eb4565b5b036122ee57818314158383965096509650505050506124b6565b6002600581111561230257612301612eb4565b5b600460008a815260200190815260200160002060030160009054906101000a900460ff16600581111561233857612337612eb4565b5b03612351578183138383965096509650505050506124b6565b6003600581111561236557612364612eb4565b5b600460008a815260200190815260200160002060030160009054906101000a900460ff16600581111561239b5761239a612eb4565b5b036123b557818312158383965096509650505050506124b6565b600460058111156123c9576123c8612eb4565b5b600460008a815260200190815260200160002060030160009054906101000a900460ff1660058111156123ff576123fe612eb4565b5b03612418578183128383965096509650505050506124b6565b60058081111561242b5761242a612eb4565b5b600460008a815260200190815260200160002060030160009054906101000a900460ff16600581111561246157612460612eb4565b5b0361247b57818313158383965096509650505050506124b6565b6040517f08c379a00000000000000000000000000000000000000000000000000000000081526004016124ad906146e0565b60405180910390fd5b9193909250565b6124c5612569565b600073ffffffffffffffffffffffffffffffffffffffff168173ffffffffffffffffffffffffffffffffffffffff1603612534576040517f08c379a000000000000000000000000000000000000000000000000000000000815260040161252b90614772565b60405180910390fd5b61253d816125e7565b50565b60015481565b6000808273ffffffffffffffffffffffffffffffffffffffff163b119050919050565b6125716126ab565b73ffffffffffffffffffffffffffffffffffffffff1661258f611d82565b73ffffffffffffffffffffffffffffffffffffffff16146125e5576040517f08c379a00000000000000000000000000000000000000000000000000000000081526004016125dc906147de565b60405180910390fd5b565b60008060009054906101000a900473ffffffffffffffffffffffffffffffffffffffff169050816000806101000a81548173ffffffffffffffffffffffffffffffffffffffff021916908373ffffffffffffffffffffffffffffffffffffffff1602179055508173ffffffffffffffffffffffffffffffffffffffff168173ffffffffffffffffffffffffffffffffffffffff167f8be0079c531659141344cd1fd0a4f28419497f9722a3daafe3b4186f6b6457e060405160405180910390a35050565b600033905090565b82805482825590600052602060002090810192821561272c579160200282015b8281111561272b5782518260006101000a81548173ffffffffffffffffffffffffffffffffffffffff021916908373ffffffffffffffffffffffffffffffffffffffff160217905550916020019190600101906126d3565b5b50905061273991906127fc565b5090565b604051806101c0016040528060008152602001600073ffffffffffffffffffffffffffffffffffffffff1681526020016000600381111561278157612780612eb4565b5b815260200160608152602001600060058111156127a1576127a0612eb4565b5b81526020016060815260200160608152602001600081526020016000815260200160008152602001600073ffffffffffffffffffffffffffffffffffffffff1681526020016000815260200160008152602001606081525090565b5b808211156128155760008160009055506001016127fd565b5090565b6000604051905090565b600080fd5b600080fd5b600080fd5b600080fd5b6000601f19601f8301169050919050565b7f4e487b7100000000000000000000000000000000000000000000000000000000600052604160045260246000fd5b61288082612837565b810181811067ffffffffffffffff8211171561289f5761289e612848565b5b80604052505050565b60006128b2612819565b90506128be8282612877565b919050565b600067ffffffffffffffff8211156128de576128dd612848565b5b6128e782612837565b9050602081019050919050565b82818337600083830152505050565b6000612916612911846128c3565b6128a8565b90508281526020810184848401111561293257612931612832565b5b61293d8482856128f4565b509392505050565b600082601f83011261295a5761295961282d565b5b813561296a848260208601612903565b91505092915050565b600067ffffffffffffffff82111561298e5761298d612848565b5b602082029050602081019050919050565b600080fd5b600080fd5b6000819050919050565b6129bc816129a9565b81146129c757600080fd5b50565b6000813590506129d9816129b3565b92915050565b600381106129ec57600080fd5b50565b6000813590506129fe816129df565b92915050565b600a8110612a1157600080fd5b50565b600081359050612a2381612a04565b92915050565b600060ff82169050919050565b612a3f81612a29565b8114612a4a57600080fd5b50565b600081359050612a5c81612a36565b92915050565b600060808284031215612a7857612a776129a4565b5b612a8260806128a8565b90506000612a92848285016129ca565b6000830152506020612aa6848285016129ef565b6020830152506040612aba84828501612a14565b6040830152506060612ace84828501612a4d565b60608301525092915050565b6000612aed612ae884612973565b6128a8565b90508083825260208201905060808402830185811115612b1057612b0f61299f565b5b835b81811015612b395780612b258882612a62565b845260208401935050608081019050612b12565b5050509392505050565b600082601f830112612b5857612b5761282d565b5b8135612b68848260208601612ada565b91505092915050565b60068110612b7e57600080fd5b50565b600081359050612b9081612b71565b92915050565b600067ffffffffffffffff821115612bb157612bb0612848565b5b602082029050602081019050919050565b600073ffffffffffffffffffffffffffffffffffffffff82169050919050565b6000612bed82612bc2565b9050919050565b612bfd81612be2565b8114612c0857600080fd5b50565b600081359050612c1a81612bf4565b92915050565b6000612c33612c2e84612b96565b6128a8565b90508083825260208201905060208402830185811115612c5657612c5561299f565b5b835b81811015612c7f5780612c6b8882612c0b565b845260208401935050602081019050612c58565b5050509392505050565b600082601f830112612c9e57612c9d61282d565b5b8135612cae848260208601612c20565b91505092915050565b6000819050919050565b612cca81612cb7565b8114612cd557600080fd5b50565b600081359050612ce781612cc1565b92915050565b600080600080600080600080610100898b031215612d0e57612d0d612823565b5b600089013567ffffffffffffffff811115612d2c57612d2b612828565b5b612d388b828c01612945565b985050602089013567ffffffffffffffff811115612d5957612d58612828565b5b612d658b828c01612b43565b9750506040612d768b828c01612b81565b965050606089013567ffffffffffffffff811115612d9757612d96612828565b5b612da38b828c01612b43565b955050608089013567ffffffffffffffff811115612dc457612dc3612828565b5b612dd08b828c01612c89565b94505060a0612de18b828c01612cd8565b93505060c0612df28b828c01612cd8565b92505060e0612e038b828c01612c0b565b9150509295985092959890939650565b612e1c81612cb7565b82525050565b6000602082019050612e376000830184612e13565b92915050565b600060208284031215612e5357612e52612823565b5b6000612e6184828501612c0b565b91505092915050565b600081519050919050565b600082825260208201905092915050565b6000819050602082019050919050565b612e9f81612cb7565b82525050565b612eae81612be2565b82525050565b7f4e487b7100000000000000000000000000000000000000000000000000000000600052602160045260246000fd5b60048110612ef457612ef3612eb4565b5b50565b6000819050612f0582612ee3565b919050565b6000612f1582612ef7565b9050919050565b612f2581612f0a565b82525050565b600081519050919050565b600082825260208201905092915050565b6000819050602082019050919050565b612f60816129a9565b82525050565b60038110612f7757612f76612eb4565b5b50565b6000819050612f8882612f66565b919050565b6000612f9882612f7a565b9050919050565b612fa881612f8d565b82525050565b600a8110612fbf57612fbe612eb4565b5b50565b6000819050612fd082612fae565b919050565b6000612fe082612fc2565b9050919050565b612ff081612fd5565b82525050565b612fff81612a29565b82525050565b60808201600082015161301b6000850182612f57565b50602082015161302e6020850182612f9f565b5060408201516130416040850182612fe7565b5060608201516130546060850182612ff6565b50505050565b60006130668383613005565b60808301905092915050565b6000602082019050919050565b600061308a82612f2b565b6130948185612f36565b935061309f83612f47565b8060005b838110156130d05781516130b7888261305a565b97506130c283613072565b9250506001810190506130a3565b5085935050505092915050565b600681106130ee576130ed612eb4565b5b50565b60008190506130ff826130dd565b919050565b600061310f826130f1565b9050919050565b61311f81613104565b82525050565b600081519050919050565b600082825260208201905092915050565b6000819050602082019050919050565b600061315d8383612ea5565b60208301905092915050565b6000602082019050919050565b600061318182613125565b61318b8185613130565b935061319683613141565b8060005b838110156131c75781516131ae8882613151565b97506131b983613169565b92505060018101905061319a565b5085935050505092915050565b600081519050919050565b600082825260208201905092915050565b60005b8381101561320e5780820151818401526020810190506131f3565b60008484015250505050565b6000613225826131d4565b61322f81856131df565b935061323f8185602086016131f0565b61324881612837565b840191505092915050565b60006101c08301600083015161326c6000860182612e96565b50602083015161327f6020860182612ea5565b5060408301516132926040860182612f1c565b50606083015184820360608601526132aa828261307f565b91505060808301516132bf6080860182613116565b5060a083015184820360a08601526132d7828261307f565b91505060c083015184820360c08601526132f18282613176565b91505060e083015161330660e0860182612e96565b5061010083015161331b610100860182612e96565b50610120830151613330610120860182612e96565b50610140830151613345610140860182612ea5565b5061016083015161335a610160860182612f57565b5061018083015161336f610180860182612f57565b506101a08301518482036101a0860152613389828261321a565b9150508091505092915050565b60006133a28383613253565b905092915050565b6000602082019050919050565b60006133c282612e6a565b6133cc8185612e75565b9350836020820285016133de85612e86565b8060005b8581101561341a57848403895281516133fb8582613396565b9450613406836133aa565b925060208a019950506001810190506133e2565b50829750879550505050505092915050565b6000602082019050818103600083015261344681846133b7565b905092915050565b61345781612a29565b82525050565b6000602082019050613472600083018461344e565b92915050565b600080fd5b60008083601f8401126134935761349261282d565b5b8235905067ffffffffffffffff8111156134b0576134af613478565b5b6020830191508360018202830111156134cc576134cb61299f565b5b9250929050565b600080602083850312156134ea576134e9612823565b5b600083013567ffffffffffffffff81111561350857613507612828565b5b6135148582860161347d565b92509250509250929050565b60006020828403121561353657613535612823565b5b600061354484828501612cd8565b91505092915050565b61355681612be2565b82525050565b6000602082019050613571600083018461354d565b92915050565b6000806040838503121561358e5761358d612823565b5b600061359c85828601612c0b565b92505060206135ad85828601612cd8565b9150509250929050565b600067ffffffffffffffff8211156135d2576135d1612848565b5b6135db82612837565b9050602081019050919050565b60006135fb6135f6846135b7565b6128a8565b90508281526020810184848401111561361757613616612832565b5b6136228482856128f4565b509392505050565b600082601f83011261363f5761363e61282d565b5b813561364f8482602086016135e8565b91505092915050565b60006020828403121561366e5761366d612823565b5b600082013567ffffffffffffffff81111561368c5761368b612828565b5b6136988482850161362a565b91505092915050565b60008115159050919050565b6136b6816136a1565b82525050565b600081519050919050565b600082825260208201905092915050565b60006136e3826136bc565b6136ed81856136c7565b93506136fd8185602086016131f0565b61370681612837565b840191505092915050565b600060408201905061372660008301856136ad565b818103602083015261373881846136d8565b90509392505050565b60008060006060848603121561375a57613759612823565b5b600061376886828701612a4d565b935050602061377986828701612a4d565b925050604061378a86828701612a4d565b9150509250925092565b61379d81612f0a565b82525050565b6137ac81613104565b82525050565b6137bb816129a9565b82525050565b600082825260208201905092915050565b60006137dd826131d4565b6137e781856137c1565b93506137f78185602086016131f0565b61380081612837565b840191505092915050565b600061016082019050613821600083018e612e13565b61382e602083018d61354d565b61383b604083018c613794565b613848606083018b6137a3565b613855608083018a612e13565b61386260a0830189612e13565b61386f60c0830188612e13565b61387c60e083018761354d565b61388a6101008301866137b2565b6138986101208301856137b2565b8181036101408301526138ab81846137d2565b90509c9b505050505050505050505050565b6000819050919050565b60006138e26138dd6138d884612bc2565b6138bd565b612bc2565b9050919050565b60006138f4826138c7565b9050919050565b6000613906826138e9565b9050919050565b613916816138fb565b82525050565b6000602082019050613931600083018461390d565b92915050565b600060608201905061394c60008301866136ad565b61395960208301856137b2565b61396660408301846137b2565b949350505050565b7f4e487b7100000000000000000000000000000000000000000000000000000000600052601160045260246000fd5b60006139a882612a29565b91506139b383612a29565b92508282026139c181612a29565b91508082146139d3576139d261396e565b5b5092915050565b60006139e582612cb7565b91506139f083612cb7565b9250828201905080821115613a0857613a0761396e565b5b92915050565b7f54696d656f75742064617465206661727468657220696e746f2074686520667560008201527f7475726520726571756972656400000000000000000000000000000000000000602082015250565b6000613a6a602d836137c1565b9150613a7582613a0e565b604082019050919050565b60006020820190508181036000830152613a9981613a5d565b9050919050565b7f41206c6f6e676572206576616c756174696f6e20706572696f6420726571756960008201527f7265640000000000000000000000000000000000000000000000000000000000602082015250565b6000613afc6023836137c1565b9150613b0782613aa0565b604082019050919050565b60006020820190508181036000830152613b2b81613aef565b9050919050565b7f416374696f6e206d757374206265206120636f6e747261637400000000000000600082015250565b6000613b686019836137c1565b9150613b7382613b32565b602082019050919050565b60006020820190508181036000830152613b9781613b5b565b9050919050565b7f41637469766174696f6e206d7573742062652030206f7220696e20746865206660008201527f7574757265000000000000000000000000000000000000000000000000000000602082015250565b6000613bfa6025836137c1565b9150613c0582613b9e565b604082019050919050565b60006020820190508181036000830152613c2981613bed565b9050919050565b7f4e487b7100000000000000000000000000000000000000000000000000000000600052602260045260246000fd5b60006002820490506001821680613c7757607f821691505b602082108103613c8a57613c89613c30565b5b50919050565b60008190508160005260206000209050919050565b60006020601f8301049050919050565b600082821b905092915050565b600060088302613cf27fffffffffffffffffffffffffffffffffffffffffffffffffffffffffffffffff82613cb5565b613cfc8683613cb5565b95508019841693508086168417925050509392505050565b6000613d2f613d2a613d2584612cb7565b6138bd565b612cb7565b9050919050565b6000819050919050565b613d4983613d14565b613d5d613d5582613d36565b848454613cc2565b825550505050565b600090565b613d72613d65565b613d7d818484613d40565b505050565b5b81811015613da157613d96600082613d6a565b600181019050613d83565b5050565b601f821115613de657613db781613c90565b613dc084613ca5565b81016020851015613dcf578190505b613de3613ddb85613ca5565b830182613d82565b50505b505050565b600082821c905092915050565b6000613e0960001984600802613deb565b1980831691505092915050565b6000613e228383613df8565b9150826002028217905092915050565b613e3b826131d4565b67ffffffffffffffff811115613e5457613e53612848565b5b613e5e8254613c5f565b613e69828285613da5565b600060209050601f831160018114613e9c5760008415613e8a578287015190505b613e948582613e16565b865550613efc565b601f198416613eaa86613c90565b60005b82811015613ed257848901518255600182019150602085019450602081019050613ead565b86831015613eef5784890151613eeb601f891682613df8565b8355505b6001600288020188555050505b505050505050565b7f4e487b7100000000000000000000000000000000000000000000000000000000600052603260045260246000fd5b6000613f3e82612cb7565b91507fffffffffffffffffffffffffffffffffffffffffffffffffffffffffffffffff8203613f7057613f6f61396e565b5b600182019050919050565b7f596f752068617665206e6f206a6f627300000000000000000000000000000000600082015250565b6000613fb16010836137c1565b9150613fbc82613f7b565b602082019050919050565b60006020820190508181036000830152613fe081613fa4565b9050919050565b600067ffffffffffffffff82111561400257614001612848565b5b602082029050602081019050919050565b600061402661402184613fe7565b6128a8565b905080838252602082019050602084028301858111156140495761404861299f565b5b835b81811015614072578061405e8882612cd8565b84526020840193505060208101905061404b565b5050509392505050565b600082601f8301126140915761409061282d565b5b81356140a1848260208601614013565b91505092915050565b6000602082840312156140c0576140bf612823565b5b600082013567ffffffffffffffff8111156140de576140dd612828565b5b6140ea8482850161407c565b91505092915050565b7f4a6f6220696e646578206f7574206f6620626f756e6473000000000000000000600082015250565b60006141296017836137c1565b9150614134826140f3565b602082019050919050565b600060208201905081810360008301526141588161411c565b9050919050565b7f4a6f6220616c72656164792066696e616c697a65640000000000000000000000600082015250565b60006141956015836137c1565b91506141a08261415f565b602082019050919050565b600060208201905081810360008301526141c481614188565b9050919050565b60008160e01c9050919050565b600060033d11156141f75760046000803e6141f46000516141cb565b90505b90565b600060443d106142875761420c612819565b60043d036004823e80513d602482011167ffffffffffffffff82111715614234575050614287565b808201805167ffffffffffffffff8111156142525750505050614287565b80602083010160043d03850181111561426f575050505050614287565b61427e82602001850186612877565b82955050505050505b90565b600060408201905061429f600083018561354d565b6142ac6020830184613794565b9392505050565b600081519050919050565b600082825260208201905092915050565b6000819050602082019050919050565b60006142eb8383612e96565b60208301905092915050565b6000602082019050919050565b600061430f826142b3565b61431981856142be565b9350614324836142cf565b8060005b8381101561435557815161433c88826142df565b9750614347836142f7565b925050600181019050614328565b5085935050505092915050565b6000602082019050818103600083015261437c8184614304565b905092915050565b600081519050614393816129b3565b92915050565b6000602082840312156143af576143ae612823565b5b60006143bd84828501614384565b91505092915050565b600081549050919050565b600082825260208201905092915050565b60008190508160005260206000209050919050565b60008160001c9050919050565b6000819050919050565b600061442161441c836143f7565b614404565b9050919050565b600060ff82169050919050565b6000614448614443836143f7565b614428565b9050919050565b60008160081c9050919050565b600060ff82169050919050565b600061447c6144778361444f565b61445c565b9050919050565b60008160101c9050919050565b600060ff82169050919050565b60006144b06144ab83614483565b614490565b9050919050565b6080820160008083015490506144cc8161440e565b6144d96000860182612f57565b50600183015490506144ea81614435565b6144f76020860182612f9f565b5061450181614469565b61450e6040860182612fe7565b506145188161449d565b6145256060860182612ff6565b5050505050565b600061453883836144b7565b60808301905092915050565b6000600282019050919050565b600061455c826143c6565b61456681856143d1565b9350614571836143e2565b8060005b838110156145a15781614588888261452c565b975061459383614544565b925050600181019050614575565b5085935050505092915050565b600081519050919050565b600082825260208201905092915050565b6000819050602082019050919050565b60006145e68383612f57565b60208301905092915050565b6000602082019050919050565b600061460a826145ae565b61461481856145b9565b935061461f836145ca565b8060005b8381101561465057815161463788826145da565b9750614642836145f2565b925050600181019050614623565b5085935050505092915050565b600060408201905081810360008301526146778185614551565b9050818103602083015261468b81846145ff565b90509392505050565b7f556e6b6e6f776e20636f6d70617261746f720000000000000000000000000000600082015250565b60006146ca6012836137c1565b91506146d582614694565b602082019050919050565b600060208201905081810360008301526146f9816146bd565b9050919050565b7f4f776e61626c653a206e6577206f776e657220697320746865207a65726f206160008201527f6464726573730000000000000000000000000000000000000000000000000000602082015250565b600061475c6026836137c1565b915061476782614700565b604082019050919050565b6000602082019050818103600083015261478b8161474f565b9050919050565b7f4f776e61626c653a2063616c6c6572206973206e6f7420746865206f776e6572600082015250565b60006147c86020836137c1565b91506147d382614792565b602082019050919050565b600060208201905081810360008301526147f7816147bb565b905091905056fea26469706673582212201ea25940113ae9c16149c390570de293b613e0511aa00b4c032632612cbe6bb364736f6c63430008110033",
  "linkReferences": {},
  "deployedLinkReferences": {}
}