{
  "_format": "hh-sol-artifact-1",
  "contractName": "UmpireRegistry",
  "sourceName": "contracts/UmpireRegistry.sol",
  "abi": [
    {
      "inputs": [
        {
          "internalType": "address",
          "name": "_resolver",
          "type": "address"
        }
      ],
      "stateMutability": "nonpayable",
      "type": "constructor"
    },
    {
      "anonymous": false,
      "inputs": [
        {
          "indexed": true,
          "internalType": "address",
          "name": "previousOwner",
          "type": "address"
        },
        {
          "indexed": true,
          "internalType": "address",
          "name": "newOwner",
          "type": "address"
        }
      ],
      "name": "OwnershipTransferred",
      "type": "event"
    },
    {
      "anonymous": false,
      "inputs": [
        {
          "indexed": true,
          "internalType": "uint256",
          "name": "jobId",
          "type": "uint256"
        },
        {
          "indexed": true,
          "internalType": "address",
          "name": "jobOwner",
          "type": "address"
        },
        {
          "indexed": false,
          "internalType": "address",
          "name": "action",
          "type": "address"
        },
        {
          "indexed": false,
          "internalType": "enum UmpireJobStatus",
          "name": "jobStatus",
          "type": "uint8"
        }
      ],
      "name": "UmpireJobCompleted",
      "type": "event"
    },
    {
      "anonymous": false,
      "inputs": [
        {
          "indexed": true,
          "internalType": "uint256",
          "name": "jobId",
          "type": "uint256"
        },
        {
          "indexed": true,
          "internalType": "address",
          "name": "jobOwner",
          "type": "address"
        },
        {
          "indexed": false,
          "internalType": "address",
          "name": "action",
          "type": "address"
        }
      ],
      "name": "UmpireJobCreated",
      "type": "event"
    },
    {
      "inputs": [
        {
          "internalType": "bytes",
          "name": "",
          "type": "bytes"
        }
      ],
      "name": "checkUpkeep",
      "outputs": [
        {
          "internalType": "bool",
          "name": "upkeepNeeded",
          "type": "bool"
        },
        {
          "internalType": "bytes",
          "name": "",
          "type": "bytes"
        }
      ],
      "stateMutability": "view",
      "type": "function"
    },
    {
      "inputs": [
        {
          "internalType": "string",
          "name": "_name",
          "type": "string"
        },
        {
          "components": [
            {
              "internalType": "int256",
              "name": "value",
              "type": "int256"
            },
            {
              "internalType": "enum PostfixNodeType",
              "name": "nodeType",
              "type": "uint8"
            },
            {
              "internalType": "enum PostfixNodeOperator",
              "name": "operator",
              "type": "uint8"
            },
            {
              "internalType": "uint8",
              "name": "variableIndex",
              "type": "uint8"
            }
          ],
          "internalType": "struct PostfixNode[]",
          "name": "_postfixNodesLeft",
          "type": "tuple[]"
        },
        {
          "internalType": "enum UmpireComparator",
          "name": "_comparator",
          "type": "uint8"
        },
        {
          "components": [
            {
              "internalType": "int256",
              "name": "value",
              "type": "int256"
            },
            {
              "internalType": "enum PostfixNodeType",
              "name": "nodeType",
              "type": "uint8"
            },
            {
              "internalType": "enum PostfixNodeOperator",
              "name": "operator",
              "type": "uint8"
            },
            {
              "internalType": "uint8",
              "name": "variableIndex",
              "type": "uint8"
            }
          ],
          "internalType": "struct PostfixNode[]",
          "name": "_postfixNodesRight",
          "type": "tuple[]"
        },
        {
          "internalType": "address[]",
          "name": "_dataFeeds",
          "type": "address[]"
        },
        {
          "internalType": "uint256",
          "name": "_activationDate",
          "type": "uint256"
        },
        {
          "internalType": "uint256",
          "name": "_timeoutDate",
          "type": "uint256"
        },
        {
          "internalType": "address",
          "name": "_action",
          "type": "address"
        }
      ],
      "name": "createJobFromNodes",
      "outputs": [
        {
          "internalType": "uint256",
          "name": "jobId",
          "type": "uint256"
        }
      ],
      "stateMutability": "nonpayable",
      "type": "function"
    },
    {
      "inputs": [
        {
          "internalType": "uint256",
          "name": "_jobId",
          "type": "uint256"
        }
      ],
      "name": "evaluateJob",
      "outputs": [
        {
          "internalType": "bool",
          "name": "",
          "type": "bool"
        },
        {
          "internalType": "int256",
          "name": "",
          "type": "int256"
        },
        {
          "internalType": "int256",
          "name": "",
          "type": "int256"
        }
      ],
      "stateMutability": "view",
      "type": "function"
    },
    {
      "inputs": [],
      "name": "i_resolver",
      "outputs": [
        {
          "internalType": "contract AbstractUmpireFormulaResolver",
          "name": "",
          "type": "address"
        }
      ],
      "stateMutability": "view",
      "type": "function"
    },
    {
      "inputs": [],
      "name": "owner",
      "outputs": [
        {
          "internalType": "address",
          "name": "",
          "type": "address"
        }
      ],
      "stateMutability": "view",
      "type": "function"
    },
    {
      "inputs": [
        {
          "internalType": "bytes",
          "name": "",
          "type": "bytes"
        }
      ],
      "name": "performUpkeep",
      "outputs": [],
      "stateMutability": "nonpayable",
      "type": "function"
    },
    {
      "inputs": [],
      "name": "renounceOwnership",
      "outputs": [],
      "stateMutability": "nonpayable",
      "type": "function"
    },
    {
      "inputs": [],
      "name": "s_counterJobs",
      "outputs": [
        {
          "internalType": "uint256",
          "name": "",
          "type": "uint256"
        }
      ],
      "stateMutability": "view",
      "type": "function"
    },
    {
      "inputs": [
        {
          "internalType": "uint256",
          "name": "",
          "type": "uint256"
        }
      ],
      "name": "s_inputFeeds",
      "outputs": [
        {
          "internalType": "address",
          "name": "",
          "type": "address"
        }
      ],
      "stateMutability": "view",
      "type": "function"
    },
    {
      "inputs": [
        {
          "internalType": "uint256",
          "name": "",
          "type": "uint256"
        }
      ],
      "name": "s_jobs",
      "outputs": [
        {
          "internalType": "uint256",
          "name": "id",
          "type": "uint256"
        },
        {
          "internalType": "address",
          "name": "owner",
          "type": "address"
        },
        {
          "internalType": "enum UmpireJobStatus",
          "name": "jobStatus",
          "type": "uint8"
        },
        {
          "internalType": "enum UmpireComparator",
          "name": "comparator",
          "type": "uint8"
        },
        {
          "internalType": "uint256",
          "name": "createdAt",
          "type": "uint256"
        },
        {
          "internalType": "uint256",
          "name": "timeoutDate",
          "type": "uint256"
        },
        {
          "internalType": "uint256",
          "name": "activationDate",
          "type": "uint256"
        },
        {
          "internalType": "address",
          "name": "action",
          "type": "address"
        },
        {
          "internalType": "int256",
          "name": "leftValue",
          "type": "int256"
        },
        {
          "internalType": "int256",
          "name": "rightValue",
          "type": "int256"
        },
        {
          "internalType": "string",
          "name": "jobName",
          "type": "string"
        }
      ],
      "stateMutability": "view",
      "type": "function"
    },
    {
      "inputs": [
        {
          "internalType": "address",
          "name": "",
          "type": "address"
        },
        {
          "internalType": "uint256",
          "name": "",
          "type": "uint256"
        }
      ],
      "name": "s_jobsByOwner",
      "outputs": [
        {
          "internalType": "uint256",
          "name": "",
          "type": "uint256"
        }
      ],
      "stateMutability": "view",
      "type": "function"
    },
    {
      "inputs": [],
      "name": "s_minimumMinutesActivationOffset",
      "outputs": [
        {
          "internalType": "uint8",
          "name": "",
          "type": "uint8"
        }
      ],
      "stateMutability": "view",
      "type": "function"
    },
    {
      "inputs": [],
      "name": "s_minimumMinutesBeforeTimeout",
      "outputs": [
        {
          "internalType": "uint8",
          "name": "",
          "type": "uint8"
        }
      ],
      "stateMutability": "view",
      "type": "function"
    },
    {
      "inputs": [],
      "name": "s_minimumMinutesBetweenActivationAndTimeout",
      "outputs": [
        {
          "internalType": "uint8",
          "name": "",
          "type": "uint8"
        }
      ],
      "stateMutability": "view",
      "type": "function"
    },
    {
      "inputs": [
        {
          "internalType": "address",
          "name": "newOwner",
          "type": "address"
        }
      ],
      "name": "transferOwnership",
      "outputs": [],
      "stateMutability": "nonpayable",
      "type": "function"
    },
    {
      "inputs": [
        {
          "internalType": "uint8",
          "name": "_minimumMinutesBeforeTimeout",
          "type": "uint8"
        },
        {
          "internalType": "uint8",
          "name": "_minimumMinutesBetweenActivationAndTimeout",
          "type": "uint8"
        },
        {
          "internalType": "uint8",
          "name": "_minimumMinutesActivationOffset",
          "type": "uint8"
        }
      ],
      "name": "updateTimeConstraints",
      "outputs": [],
      "stateMutability": "nonpayable",
      "type": "function"
    }
  ],
  "bytecode": "0x6080604052600060015560028060006101000a81548160ff021916908360ff1602179055506001600260016101000a81548160ff021916908360ff16021790555060016002806101000a81548160ff021916908360ff1602179055503480156200006857600080fd5b506040516200379a3803806200379a83398181016040528101906200008e91906200022c565b620000ae620000a2620000f660201b60201c565b620000fe60201b60201c565b80600660006101000a81548173ffffffffffffffffffffffffffffffffffffffff021916908373ffffffffffffffffffffffffffffffffffffffff160217905550506200025e565b600033905090565b60008060009054906101000a900473ffffffffffffffffffffffffffffffffffffffff169050816000806101000a81548173ffffffffffffffffffffffffffffffffffffffff021916908373ffffffffffffffffffffffffffffffffffffffff1602179055508173ffffffffffffffffffffffffffffffffffffffff168173ffffffffffffffffffffffffffffffffffffffff167f8be0079c531659141344cd1fd0a4f28419497f9722a3daafe3b4186f6b6457e060405160405180910390a35050565b600080fd5b600073ffffffffffffffffffffffffffffffffffffffff82169050919050565b6000620001f482620001c7565b9050919050565b6200020681620001e7565b81146200021257600080fd5b50565b6000815190506200022681620001fb565b92915050565b600060208284031215620002455762000244620001c2565b5b6000620002558482850162000215565b91505092915050565b61352c806200026e6000396000f3fe608060405234801561001057600080fd5b50600436106101005760003560e01c806385acae5511610097578063cfddc55211610066578063cfddc552146102ba578063d2ce879c146102d8578063f2fde38b1461030a578063fabe45431461032657610100565b806385acae55146102285780638a5ec72b146102445780638da5cb5b1461027e578063a199bf721461029c57610100565b8063603b3807116100d3578063603b38071461018d578063667474d3146101bd5780636e04ff0d146101ed578063715018a61461021e57610100565b806329d10cc61461010557806335ad7d93146101355780634585e33b14610153578063597b6e3f1461016f575b600080fd5b61011f600480360381019061011a9190612166565b610344565b60405161012c919061229b565b60405180910390f35b61013d61095b565b60405161014a91906122c5565b60405180910390f35b61016d6004803603810190610168919061233b565b61096e565b005b610177610fd1565b60405161018491906122c5565b60405180910390f35b6101a760048036038101906101a29190612388565b610fe2565b6040516101b491906123c4565b60405180910390f35b6101d760048036038101906101d291906123df565b611015565b6040516101e4919061229b565b60405180910390f35b610207600480360381019061020291906124c0565b611046565b6040516102159291906125a3565b60405180910390f35b610226611140565b005b610242600480360381019061023d91906125d3565b611154565b005b61025e60048036038101906102599190612388565b6111b1565b6040516102759b9a99989796959493929190612749565b60405180910390f35b6102866112ed565b60405161029391906123c4565b60405180910390f35b6102a4611316565b6040516102b1919061285a565b60405180910390f35b6102c261133c565b6040516102cf91906122c5565b60405180910390f35b6102f260048036038101906102ed9190612388565b61134f565b60405161030193929190612875565b60405180910390f35b610324600480360381019061031f91906128ac565b611a18565b005b61032e611a9b565b60405161033b919061229b565b60405180910390f35b6000603c600260009054906101000a900460ff166103629190612908565b60ff16426103709190612945565b83116103b1576040517f08c379a00000000000000000000000000000000000000000000000000000000081526004016103a8906129eb565b60405180910390fd5b603c600260019054906101000a900460ff166103cd9190612908565b60ff16846103db9190612945565b83101561041d576040517f08c379a000000000000000000000000000000000000000000000000000000000815260040161041490612a7d565b60405180910390fd5b600084111561049157603c60028054906101000a900460ff166104409190612908565b60ff164261044e9190612945565b841015610490576040517f08c379a000000000000000000000000000000000000000000000000000000000815260040161048790612b0f565b60405180910390fd5b5b6001549050600180546104a49190612945565b6001819055508060046000838152602001908152602001600020600001819055508860046000838152602001908152602001600020600c0190816104e89190612d31565b50336004600083815260200190815260200160002060010160006101000a81548173ffffffffffffffffffffffffffffffffffffffff021916908373ffffffffffffffffffffffffffffffffffffffff16021790555060006004600083815260200190815260200160002060010160146101000a81548160ff0219169083600381111561057857610577612626565b5b0217905550866004600083815260200190815260200160002060030160006101000a81548160ff021916908360058111156105b6576105b5612626565b5b0217905550426004600083815260200190815260200160002060060181905550836004600083815260200190815260200160002060080181905550826004600083815260200190815260200160002060070181905550816004600083815260200190815260200160002060090160006101000a81548173ffffffffffffffffffffffffffffffffffffffff021916908373ffffffffffffffffffffffffffffffffffffffff1602179055508460046000838152602001908152602001600020600501908051906020019061068b929190611beb565b5060005b885181101561079257600460008381526020019081526020016000206002018982815181106106c1576106c0612e03565b5b602002602001015190806001815401808255809150506001900390600052602060002090600202016000909190919091506000820151816000015560208201518160010160006101000a81548160ff0219169083600281111561072757610726612626565b5b021790555060408201518160010160016101000a81548160ff0219169083600981111561075757610756612626565b5b021790555060608201518160010160026101000a81548160ff021916908360ff1602179055505050808061078a90612e32565b91505061068f565b5060005b865181101561089957600460008381526020019081526020016000206004018782815181106107c8576107c7612e03565b5b602002602001015190806001815401808255809150506001900390600052602060002090600202016000909190919091506000820151816000015560208201518160010160006101000a81548160ff0219169083600281111561082e5761082d612626565b5b021790555060408201518160010160016101000a81548160ff0219169083600981111561085e5761085d612626565b5b021790555060608201518160010160026101000a81548160ff021916908360ff1602179055505050808061089190612e32565b915050610796565b50600560003373ffffffffffffffffffffffffffffffffffffffff1673ffffffffffffffffffffffffffffffffffffffff1681526020019081526020016000208190806001815401808255809150506001900390600052602060002001600090919091909150553373ffffffffffffffffffffffffffffffffffffffff16817fdbd2ef945ab6416d209e83d631bf6311584742471678a78255cad3b136033f688460405161094791906123c4565b60405180910390a398975050505050505050565b600260019054906101000a900460ff1681565b600061098860405180602001604052806000815250611046565b509050806109cb576040517f08c379a00000000000000000000000000000000000000000000000000000000081526004016109c290612ec6565b60405180910390fd5b60005b600154811015610fcb57600060038111156109ec576109eb612626565b5b6004600083815260200190815260200160002060010160149054906101000a900460ff166003811115610a2257610a21612626565b5b03610fb8576004600082815260200190815260200160002060070154421115610cc15760026004600083815260200190815260200160002060010160146101000a81548160ff02191690836003811115610a7f57610a7e612626565b5b02179055506004600082815260200190815260200160002060090160009054906101000a900473ffffffffffffffffffffffffffffffffffffffff1673ffffffffffffffffffffffffffffffffffffffff1663e9c6afb56040518163ffffffff1660e01b8152600401600060405180830381600087803b158015610b0257600080fd5b505af1925050508015610b13575060015b610bfd57610b1f612ef3565b806308c379a003610b835750610b33612f15565b80610b3e5750610b85565b60016004600084815260200190815260200160002060010160146101000a81548160ff02191690836003811115610b7857610b77612626565b5b021790555050610bf8565b505b3d8060008114610bb1576040519150601f19603f3d011682016040523d82523d6000602084013e610bb6565b606091505b5060016004600084815260200190815260200160002060010160146101000a81548160ff02191690836003811115610bf157610bf0612626565b5b0217905550505b610cbc565b6004600082815260200190815260200160002060010160009054906101000a900473ffffffffffffffffffffffffffffffffffffffff1673ffffffffffffffffffffffffffffffffffffffff16817f821cba8cf35bea81554901901507b14ddcf01630a79e3116cfda59f6fd46464c6004600085815260200190815260200160002060090160009054906101000a900473ffffffffffffffffffffffffffffffffffffffff166002604051610cb3929190612fa5565b60405180910390a35b610fb8565b60046000828152602001908152602001600020600801544210610fb7576000806000610cec8461134f565b9250925092506001151583151503610fb35760036004600086815260200190815260200160002060010160146101000a81548160ff02191690836003811115610d3857610d37612626565b5b02179055508160046000868152602001908152602001600020600a01819055508060046000868152602001908152602001600020600b01819055506004600085815260200190815260200160002060090160009054906101000a900473ffffffffffffffffffffffffffffffffffffffff1673ffffffffffffffffffffffffffffffffffffffff1663989c20596040518163ffffffff1660e01b8152600401600060405180830381600087803b158015610df157600080fd5b505af1925050508015610e02575060015b610eec57610e0e612ef3565b806308c379a003610e725750610e22612f15565b80610e2d5750610e74565b60016004600087815260200190815260200160002060010160146101000a81548160ff02191690836003811115610e6757610e66612626565b5b021790555050610ee7565b505b3d8060008114610ea0576040519150601f19603f3d011682016040523d82523d6000602084013e610ea5565b606091505b5060016004600087815260200190815260200160002060010160146101000a81548160ff02191690836003811115610ee057610edf612626565b5b0217905550505b610fab565b6004600085815260200190815260200160002060010160009054906101000a900473ffffffffffffffffffffffffffffffffffffffff1673ffffffffffffffffffffffffffffffffffffffff16847f821cba8cf35bea81554901901507b14ddcf01630a79e3116cfda59f6fd46464c6004600088815260200190815260200160002060090160009054906101000a900473ffffffffffffffffffffffffffffffffffffffff166003604051610fa2929190612fa5565b60405180910390a35b505050610fb8565b5050505b5b8080610fc390612e32565b9150506109ce565b50505050565b60028054906101000a900460ff1681565b60036020528060005260406000206000915054906101000a900473ffffffffffffffffffffffffffffffffffffffff1681565b6005602052816000526040600020818154811061103157600080fd5b90600052602060002001600091509150505481565b6000606060005b600154811015611125576000600381111561106b5761106a612626565b5b6004600083815260200190815260200160002060010160149054906101000a900460ff1660038111156110a1576110a0612626565b5b036111125760046000828152602001908152602001600020600701544211156110cd5760019250611125565b600460008281526020019081526020016000206008015442106111115760006110f58261134f565b50509050600115158115150361110f576001935050611125565b505b5b808061111d90612e32565b91505061104d565b50816040518060200160405280600081525091509150915091565b611148611aa1565b6111526000611b1f565b565b61115c611aa1565b82600260006101000a81548160ff021916908360ff16021790555081600260016101000a81548160ff021916908360ff160217905550806002806101000a81548160ff021916908360ff160217905550505050565b60046020528060005260406000206000915090508060000154908060010160009054906101000a900473ffffffffffffffffffffffffffffffffffffffff16908060010160149054906101000a900460ff16908060030160009054906101000a900460ff16908060060154908060070154908060080154908060090160009054906101000a900473ffffffffffffffffffffffffffffffffffffffff169080600a01549080600b01549080600c01805461126a90612b5e565b80601f016020809104026020016040519081016040528092919081815260200182805461129690612b5e565b80156112e35780601f106112b8576101008083540402835291602001916112e3565b820191906000526020600020905b8154815290600101906020018083116112c657829003601f168201915b505050505090508b565b60008060009054906101000a900473ffffffffffffffffffffffffffffffffffffffff16905090565b600660009054906101000a900473ffffffffffffffffffffffffffffffffffffffff1681565b600260009054906101000a900460ff1681565b600080600060015484111561136e576000806000925092509250611a11565b6000600460008681526020019081526020016000206005018054905067ffffffffffffffff8111156113a3576113a2611cc1565b5b6040519080825280602002602001820160405280156113d15781602001602082028036833780820191505090505b50905060005b600460008781526020019081526020016000206005018054905081101561151857600660009054906101000a900473ffffffffffffffffffffffffffffffffffffffff1673ffffffffffffffffffffffffffffffffffffffff16635a044aaf60046000898152602001908152602001600020600501838154811061145e5761145d612e03565b5b9060005260206000200160009054906101000a900473ffffffffffffffffffffffffffffffffffffffff166040518263ffffffff1660e01b81526004016114a591906123c4565b602060405180830381865afa1580156114c2573d6000803e3d6000fd5b505050506040513d601f19601f820116820180604052508101906114e69190612fe3565b8282815181106114f9576114f8612e03565b5b602002602001018181525050808061151090612e32565b9150506113d7565b506000806000600660009054906101000a900473ffffffffffffffffffffffffffffffffffffffff1673ffffffffffffffffffffffffffffffffffffffff1663e4b39308600460008b8152602001908152602001600020600201866040518363ffffffff1660e01b8152600401611590929190613355565b602060405180830381865afa9250505080156115ca57506040513d601f19601f820116820180604052508101906115c79190612fe3565b60015b61163e576115d6612ef3565b806308c379a0036115ff57506115ea612f15565b806115f55750611601565b6001915050611639565b505b3d806000811461162d576040519150601f19603f3d011682016040523d82523d6000602084013e611632565b606091505b5060019150505b611643565b809350505b600660009054906101000a900473ffffffffffffffffffffffffffffffffffffffff1673ffffffffffffffffffffffffffffffffffffffff1663e4b39308600460008b8152602001908152602001600020600401866040518363ffffffff1660e01b81526004016116b5929190613355565b602060405180830381865afa9250505080156116ef57506040513d601f19601f820116820180604052508101906116ec9190612fe3565b60015b611763576116fb612ef3565b806308c379a003611724575061170f612f15565b8061171a5750611726565b600191505061175e565b505b3d8060008114611752576040519150601f19603f3d011682016040523d82523d6000602084013e611757565b606091505b5060019150505b611768565b809250505b801561178257600080600096509650965050505050611a11565b6000600581111561179657611795612626565b5b600460008a815260200190815260200160002060030160009054906101000a900460ff1660058111156117cc576117cb612626565b5b036117e557818314838396509650965050505050611a11565b600160058111156117f9576117f8612626565b5b600460008a815260200190815260200160002060030160009054906101000a900460ff16600581111561182f5761182e612626565b5b036118495781831415838396509650965050505050611a11565b6002600581111561185d5761185c612626565b5b600460008a815260200190815260200160002060030160009054906101000a900460ff16600581111561189357611892612626565b5b036118ac57818313838396509650965050505050611a11565b600360058111156118c0576118bf612626565b5b600460008a815260200190815260200160002060030160009054906101000a900460ff1660058111156118f6576118f5612626565b5b036119105781831215838396509650965050505050611a11565b6004600581111561192457611923612626565b5b600460008a815260200190815260200160002060030160009054906101000a900460ff16600581111561195a57611959612626565b5b0361197357818312838396509650965050505050611a11565b60058081111561198657611985612626565b5b600460008a815260200190815260200160002060030160009054906101000a900460ff1660058111156119bc576119bb612626565b5b036119d65781831315838396509650965050505050611a11565b6040517f08c379a0000000000000000000000000000000000000000000000000000000008152600401611a08906133d8565b60405180910390fd5b9193909250565b611a20611aa1565b600073ffffffffffffffffffffffffffffffffffffffff168173ffffffffffffffffffffffffffffffffffffffff1603611a8f576040517f08c379a0000000000000000000000000000000000000000000000000000000008152600401611a869061346a565b60405180910390fd5b611a9881611b1f565b50565b60015481565b611aa9611be3565b73ffffffffffffffffffffffffffffffffffffffff16611ac76112ed565b73ffffffffffffffffffffffffffffffffffffffff1614611b1d576040517f08c379a0000000000000000000000000000000000000000000000000000000008152600401611b14906134d6565b60405180910390fd5b565b60008060009054906101000a900473ffffffffffffffffffffffffffffffffffffffff169050816000806101000a81548173ffffffffffffffffffffffffffffffffffffffff021916908373ffffffffffffffffffffffffffffffffffffffff1602179055508173ffffffffffffffffffffffffffffffffffffffff168173ffffffffffffffffffffffffffffffffffffffff167f8be0079c531659141344cd1fd0a4f28419497f9722a3daafe3b4186f6b6457e060405160405180910390a35050565b600033905090565b828054828255906000526020600020908101928215611c64579160200282015b82811115611c635782518260006101000a81548173ffffffffffffffffffffffffffffffffffffffff021916908373ffffffffffffffffffffffffffffffffffffffff16021790555091602001919060010190611c0b565b5b509050611c719190611c75565b5090565b5b80821115611c8e576000816000905550600101611c76565b5090565b6000604051905090565b600080fd5b600080fd5b600080fd5b600080fd5b6000601f19601f8301169050919050565b7f4e487b7100000000000000000000000000000000000000000000000000000000600052604160045260246000fd5b611cf982611cb0565b810181811067ffffffffffffffff82111715611d1857611d17611cc1565b5b80604052505050565b6000611d2b611c92565b9050611d378282611cf0565b919050565b600067ffffffffffffffff821115611d5757611d56611cc1565b5b611d6082611cb0565b9050602081019050919050565b82818337600083830152505050565b6000611d8f611d8a84611d3c565b611d21565b905082815260208101848484011115611dab57611daa611cab565b5b611db6848285611d6d565b509392505050565b600082601f830112611dd357611dd2611ca6565b5b8135611de3848260208601611d7c565b91505092915050565b600067ffffffffffffffff821115611e0757611e06611cc1565b5b602082029050602081019050919050565b600080fd5b600080fd5b6000819050919050565b611e3581611e22565b8114611e4057600080fd5b50565b600081359050611e5281611e2c565b92915050565b60038110611e6557600080fd5b50565b600081359050611e7781611e58565b92915050565b600a8110611e8a57600080fd5b50565b600081359050611e9c81611e7d565b92915050565b600060ff82169050919050565b611eb881611ea2565b8114611ec357600080fd5b50565b600081359050611ed581611eaf565b92915050565b600060808284031215611ef157611ef0611e1d565b5b611efb6080611d21565b90506000611f0b84828501611e43565b6000830152506020611f1f84828501611e68565b6020830152506040611f3384828501611e8d565b6040830152506060611f4784828501611ec6565b60608301525092915050565b6000611f66611f6184611dec565b611d21565b90508083825260208201905060808402830185811115611f8957611f88611e18565b5b835b81811015611fb25780611f9e8882611edb565b845260208401935050608081019050611f8b565b5050509392505050565b600082601f830112611fd157611fd0611ca6565b5b8135611fe1848260208601611f53565b91505092915050565b60068110611ff757600080fd5b50565b60008135905061200981611fea565b92915050565b600067ffffffffffffffff82111561202a57612029611cc1565b5b602082029050602081019050919050565b600073ffffffffffffffffffffffffffffffffffffffff82169050919050565b60006120668261203b565b9050919050565b6120768161205b565b811461208157600080fd5b50565b6000813590506120938161206d565b92915050565b60006120ac6120a78461200f565b611d21565b905080838252602082019050602084028301858111156120cf576120ce611e18565b5b835b818110156120f857806120e48882612084565b8452602084019350506020810190506120d1565b5050509392505050565b600082601f83011261211757612116611ca6565b5b8135612127848260208601612099565b91505092915050565b6000819050919050565b61214381612130565b811461214e57600080fd5b50565b6000813590506121608161213a565b92915050565b600080600080600080600080610100898b03121561218757612186611c9c565b5b600089013567ffffffffffffffff8111156121a5576121a4611ca1565b5b6121b18b828c01611dbe565b985050602089013567ffffffffffffffff8111156121d2576121d1611ca1565b5b6121de8b828c01611fbc565b97505060406121ef8b828c01611ffa565b965050606089013567ffffffffffffffff8111156122105761220f611ca1565b5b61221c8b828c01611fbc565b955050608089013567ffffffffffffffff81111561223d5761223c611ca1565b5b6122498b828c01612102565b94505060a061225a8b828c01612151565b93505060c061226b8b828c01612151565b92505060e061227c8b828c01612084565b9150509295985092959890939650565b61229581612130565b82525050565b60006020820190506122b0600083018461228c565b92915050565b6122bf81611ea2565b82525050565b60006020820190506122da60008301846122b6565b92915050565b600080fd5b60008083601f8401126122fb576122fa611ca6565b5b8235905067ffffffffffffffff811115612318576123176122e0565b5b60208301915083600182028301111561233457612333611e18565b5b9250929050565b6000806020838503121561235257612351611c9c565b5b600083013567ffffffffffffffff8111156123705761236f611ca1565b5b61237c858286016122e5565b92509250509250929050565b60006020828403121561239e5761239d611c9c565b5b60006123ac84828501612151565b91505092915050565b6123be8161205b565b82525050565b60006020820190506123d960008301846123b5565b92915050565b600080604083850312156123f6576123f5611c9c565b5b600061240485828601612084565b925050602061241585828601612151565b9150509250929050565b600067ffffffffffffffff82111561243a57612439611cc1565b5b61244382611cb0565b9050602081019050919050565b600061246361245e8461241f565b611d21565b90508281526020810184848401111561247f5761247e611cab565b5b61248a848285611d6d565b509392505050565b600082601f8301126124a7576124a6611ca6565b5b81356124b7848260208601612450565b91505092915050565b6000602082840312156124d6576124d5611c9c565b5b600082013567ffffffffffffffff8111156124f4576124f3611ca1565b5b61250084828501612492565b91505092915050565b60008115159050919050565b61251e81612509565b82525050565b600081519050919050565b600082825260208201905092915050565b60005b8381101561255e578082015181840152602081019050612543565b60008484015250505050565b600061257582612524565b61257f818561252f565b935061258f818560208601612540565b61259881611cb0565b840191505092915050565b60006040820190506125b86000830185612515565b81810360208301526125ca818461256a565b90509392505050565b6000806000606084860312156125ec576125eb611c9c565b5b60006125fa86828701611ec6565b935050602061260b86828701611ec6565b925050604061261c86828701611ec6565b9150509250925092565b7f4e487b7100000000000000000000000000000000000000000000000000000000600052602160045260246000fd5b6004811061266657612665612626565b5b50565b600081905061267782612655565b919050565b600061268782612669565b9050919050565b6126978161267c565b82525050565b600681106126ae576126ad612626565b5b50565b60008190506126bf8261269d565b919050565b60006126cf826126b1565b9050919050565b6126df816126c4565b82525050565b6126ee81611e22565b82525050565b600081519050919050565b600082825260208201905092915050565b600061271b826126f4565b61272581856126ff565b9350612735818560208601612540565b61273e81611cb0565b840191505092915050565b60006101608201905061275f600083018e61228c565b61276c602083018d6123b5565b612779604083018c61268e565b612786606083018b6126d6565b612793608083018a61228c565b6127a060a083018961228c565b6127ad60c083018861228c565b6127ba60e08301876123b5565b6127c86101008301866126e5565b6127d66101208301856126e5565b8181036101408301526127e98184612710565b90509c9b505050505050505050505050565b6000819050919050565b600061282061281b6128168461203b565b6127fb565b61203b565b9050919050565b600061283282612805565b9050919050565b600061284482612827565b9050919050565b61285481612839565b82525050565b600060208201905061286f600083018461284b565b92915050565b600060608201905061288a6000830186612515565b61289760208301856126e5565b6128a460408301846126e5565b949350505050565b6000602082840312156128c2576128c1611c9c565b5b60006128d084828501612084565b91505092915050565b7f4e487b7100000000000000000000000000000000000000000000000000000000600052601160045260246000fd5b600061291382611ea2565b915061291e83611ea2565b925082820261292c81611ea2565b915080821461293e5761293d6128d9565b5b5092915050565b600061295082612130565b915061295b83612130565b9250828201905080821115612973576129726128d9565b5b92915050565b7f54696d656f75742064617465206661727468657220696e746f2074686520667560008201527f7475726520726571756972656400000000000000000000000000000000000000602082015250565b60006129d5602d836126ff565b91506129e082612979565b604082019050919050565b60006020820190508181036000830152612a04816129c8565b9050919050565b7f41206c6f6e676572206576616c756174696f6e20706572696f6420726571756960008201527f7265640000000000000000000000000000000000000000000000000000000000602082015250565b6000612a676023836126ff565b9150612a7282612a0b565b604082019050919050565b60006020820190508181036000830152612a9681612a5a565b9050919050565b7f41637469766174696f6e206d7573742062652030206f7220696e20746865206660008201527f7574757265000000000000000000000000000000000000000000000000000000602082015250565b6000612af96025836126ff565b9150612b0482612a9d565b604082019050919050565b60006020820190508181036000830152612b2881612aec565b9050919050565b7f4e487b7100000000000000000000000000000000000000000000000000000000600052602260045260246000fd5b60006002820490506001821680612b7657607f821691505b602082108103612b8957612b88612b2f565b5b50919050565b60008190508160005260206000209050919050565b60006020601f8301049050919050565b600082821b905092915050565b600060088302612bf17fffffffffffffffffffffffffffffffffffffffffffffffffffffffffffffffff82612bb4565b612bfb8683612bb4565b95508019841693508086168417925050509392505050565b6000612c2e612c29612c2484612130565b6127fb565b612130565b9050919050565b6000819050919050565b612c4883612c13565b612c5c612c5482612c35565b848454612bc1565b825550505050565b600090565b612c71612c64565b612c7c818484612c3f565b505050565b5b81811015612ca057612c95600082612c69565b600181019050612c82565b5050565b601f821115612ce557612cb681612b8f565b612cbf84612ba4565b81016020851015612cce578190505b612ce2612cda85612ba4565b830182612c81565b50505b505050565b600082821c905092915050565b6000612d0860001984600802612cea565b1980831691505092915050565b6000612d218383612cf7565b9150826002028217905092915050565b612d3a826126f4565b67ffffffffffffffff811115612d5357612d52611cc1565b5b612d5d8254612b5e565b612d68828285612ca4565b600060209050601f831160018114612d9b5760008415612d89578287015190505b612d938582612d15565b865550612dfb565b601f198416612da986612b8f565b60005b82811015612dd157848901518255600182019150602085019450602081019050612dac565b86831015612dee5784890151612dea601f891682612cf7565b8355505b6001600288020188555050505b505050505050565b7f4e487b7100000000000000000000000000000000000000000000000000000000600052603260045260246000fd5b6000612e3d82612130565b91507fffffffffffffffffffffffffffffffffffffffffffffffffffffffffffffffff8203612e6f57612e6e6128d9565b5b600182019050919050565b7f55706b656570206e6f74206e6565646564000000000000000000000000000000600082015250565b6000612eb06011836126ff565b9150612ebb82612e7a565b602082019050919050565b60006020820190508181036000830152612edf81612ea3565b9050919050565b60008160e01c9050919050565b600060033d1115612f125760046000803e612f0f600051612ee6565b90505b90565b600060443d10612fa257612f27611c92565b60043d036004823e80513d602482011167ffffffffffffffff82111715612f4f575050612fa2565b808201805167ffffffffffffffff811115612f6d5750505050612fa2565b80602083010160043d038501811115612f8a575050505050612fa2565b612f9982602001850186611cf0565b82955050505050505b90565b6000604082019050612fba60008301856123b5565b612fc7602083018461268e565b9392505050565b600081519050612fdd81611e2c565b92915050565b600060208284031215612ff957612ff8611c9c565b5b600061300784828501612fce565b91505092915050565b600081549050919050565b600082825260208201905092915050565b60008190508160005260206000209050919050565b60008160001c9050919050565b6000819050919050565b600061306b61306683613041565b61304e565b9050919050565b61307b81611e22565b82525050565b600060ff82169050919050565b60006130a161309c83613041565b613081565b9050919050565b600381106130b9576130b8612626565b5b50565b60008190506130ca826130a8565b919050565b60006130da826130bc565b9050919050565b6130ea816130cf565b82525050565b60008160081c9050919050565b600060ff82169050919050565b600061311d613118836130f0565b6130fd565b9050919050565b600a811061313557613134612626565b5b50565b600081905061314682613124565b919050565b600061315682613138565b9050919050565b6131668161314b565b82525050565b60008160101c9050919050565b600060ff82169050919050565b60006131996131948361316c565b613179565b9050919050565b6131a981611ea2565b82525050565b6080820160008083015490506131c481613058565b6131d16000860182613072565b50600183015490506131e28161308e565b6131ef60208601826130e1565b506131f98161310a565b613206604086018261315d565b5061321081613186565b61321d60608601826131a0565b5050505050565b600061323083836131af565b60808301905092915050565b6000600282019050919050565b600061325482613010565b61325e818561301b565b93506132698361302c565b8060005b8381101561329957816132808882613224565b975061328b8361323c565b92505060018101905061326d565b5085935050505092915050565b600081519050919050565b600082825260208201905092915050565b6000819050602082019050919050565b60006132de8383613072565b60208301905092915050565b6000602082019050919050565b6000613302826132a6565b61330c81856132b1565b9350613317836132c2565b8060005b8381101561334857815161332f88826132d2565b975061333a836132ea565b92505060018101905061331b565b5085935050505092915050565b6000604082019050818103600083015261336f8185613249565b9050818103602083015261338381846132f7565b90509392505050565b7f556e6b6e6f776e20636f6d70617261746f720000000000000000000000000000600082015250565b60006133c26012836126ff565b91506133cd8261338c565b602082019050919050565b600060208201905081810360008301526133f1816133b5565b9050919050565b7f4f776e61626c653a206e6577206f776e657220697320746865207a65726f206160008201527f6464726573730000000000000000000000000000000000000000000000000000602082015250565b60006134546026836126ff565b915061345f826133f8565b604082019050919050565b6000602082019050818103600083015261348381613447565b9050919050565b7f4f776e61626c653a2063616c6c6572206973206e6f7420746865206f776e6572600082015250565b60006134c06020836126ff565b91506134cb8261348a565b602082019050919050565b600060208201905081810360008301526134ef816134b3565b905091905056fea2646970667358221220487e76f1c23e4f45beb3859ede63ca7a5826e72130127d0a8e3b08d0d43a2f9c64736f6c63430008110033",
  "linkReferences": {},
  "deployedLinkReferences": {}
}