{
  "_format": "hh-sol-artifact-1",
  "contractName": "UmpireFormulaResolverV2",
  "sourceName": "contracts/UmpireFormulaResolverV2.sol",
  "abi": [
    {
      "inputs": [],
      "name": "PRBMathSD59x18__DivInputTooSmall",
      "type": "error"
    },
    {
      "inputs": [
        {
          "internalType": "uint256",
          "name": "rAbs",
          "type": "uint256"
        }
      ],
      "name": "PRBMathSD59x18__DivOverflow",
      "type": "error"
    },
    {
      "inputs": [
        {
          "internalType": "int256",
          "name": "x",
          "type": "int256"
        }
      ],
      "name": "PRBMathSD59x18__Exp2InputTooBig",
      "type": "error"
    },
    {
      "inputs": [
        {
          "internalType": "int256",
          "name": "x",
          "type": "int256"
        }
      ],
      "name": "PRBMathSD59x18__LogInputTooSmall",
      "type": "error"
    },
    {
      "inputs": [],
      "name": "PRBMathSD59x18__MulInputTooSmall",
      "type": "error"
    },
    {
      "inputs": [
        {
          "internalType": "uint256",
          "name": "rAbs",
          "type": "uint256"
        }
      ],
      "name": "PRBMathSD59x18__MulOverflow",
      "type": "error"
    },
    {
      "inputs": [
        {
          "internalType": "int256",
          "name": "x",
          "type": "int256"
        }
      ],
      "name": "PRBMathSD59x18__SqrtNegativeInput",
      "type": "error"
    },
    {
      "inputs": [
        {
          "internalType": "int256",
          "name": "x",
          "type": "int256"
        }
      ],
      "name": "PRBMathSD59x18__SqrtOverflow",
      "type": "error"
    },
    {
      "inputs": [
        {
          "internalType": "uint256",
          "name": "prod1",
          "type": "uint256"
        }
      ],
      "name": "PRBMath__MulDivFixedPointOverflow",
      "type": "error"
    },
    {
      "inputs": [
        {
          "internalType": "uint256",
          "name": "prod1",
          "type": "uint256"
        },
        {
          "internalType": "uint256",
          "name": "denominator",
          "type": "uint256"
        }
      ],
      "name": "PRBMath__MulDivOverflow",
      "type": "error"
    },
    {
      "inputs": [
        {
          "internalType": "address",
          "name": "_priceFeed",
          "type": "address"
        }
      ],
      "name": "getFeedValue",
      "outputs": [
        {
          "internalType": "int256",
          "name": "",
          "type": "int256"
        }
      ],
      "stateMutability": "view",
      "type": "function"
    },
    {
      "inputs": [
        {
          "components": [
            {
              "internalType": "int256",
              "name": "value",
              "type": "int256"
            },
            {
              "internalType": "enum PostfixNodeType",
              "name": "nodeType",
              "type": "uint8"
            },
            {
              "internalType": "enum PostfixNodeOperator",
              "name": "operator",
              "type": "uint8"
            },
            {
              "internalType": "uint8",
              "name": "variableIndex",
              "type": "uint8"
            }
          ],
          "internalType": "struct PostfixNode[]",
          "name": "_postfixNodes",
          "type": "tuple[]"
        },
        {
          "internalType": "int256[]",
          "name": "_variables",
          "type": "int256[]"
        }
      ],
      "name": "resolve",
      "outputs": [
        {
          "internalType": "int256",
          "name": "",
          "type": "int256"
        }
      ],
      "stateMutability": "pure",
      "type": "function"
    },
    {
      "inputs": [
        {
          "internalType": "string",
          "name": "_formula",
          "type": "string"
        },
        {
          "internalType": "int256[]",
          "name": "_values",
          "type": "int256[]"
        },
        {
          "internalType": "int256[]",
          "name": "_variables",
          "type": "int256[]"
        }
      ],
      "name": "resolveFormula",
      "outputs": [
        {
          "internalType": "int256",
          "name": "",
          "type": "int256"
        }
      ],
      "stateMutability": "pure",
      "type": "function"
    },
    {
      "inputs": [
        {
          "internalType": "string",
          "name": "_formula",
          "type": "string"
        },
        {
          "internalType": "int256[]",
          "name": "_values",
          "type": "int256[]"
        }
      ],
      "name": "stringToNodes",
      "outputs": [
        {
          "components": [
            {
              "internalType": "int256",
              "name": "value",
              "type": "int256"
            },
            {
              "internalType": "enum PostfixNodeType",
              "name": "nodeType",
              "type": "uint8"
            },
            {
              "internalType": "enum PostfixNodeOperator",
              "name": "operator",
              "type": "uint8"
            },
            {
              "internalType": "uint8",
              "name": "variableIndex",
              "type": "uint8"
            }
          ],
          "internalType": "struct PostfixNode[]",
          "name": "",
          "type": "tuple[]"
        }
      ],
      "stateMutability": "pure",
      "type": "function"
    }
  ],
  "bytecode": "0x608060405234801561001057600080fd5b50614b3e806100206000396000f3fe608060405234801561001057600080fd5b506004361061004c5760003560e01c806339fd7ccc146100515780635a044aaf14610081578063bb2ffa43146100b1578063e4b39308146100e1575b600080fd5b61006b60048036038101906100669190613ba7565b610111565b6040516100789190613c5d565b60405180910390f35b61009b60048036038101906100969190613cd6565b61012f565b6040516100a89190613c5d565b60405180910390f35b6100cb60048036038101906100c69190613d03565b6102a5565b6040516100d89190613f69565b60405180910390f35b6100fb60048036038101906100f69190614141565b6107c4565b6040516101089190613c5d565b60405180910390f35b600061012661012085856102a5565b836107c4565b90509392505050565b60008082905060008173ffffffffffffffffffffffffffffffffffffffff1663feaf968c6040518163ffffffff1660e01b815260040160a060405180830381865afa158015610182573d6000803e3d6000fd5b505050506040513d601f19601f820116820180604052508101906101a69190614246565b50505091505060008273ffffffffffffffffffffffffffffffffffffffff1663313ce5676040518163ffffffff1660e01b8152600401602060405180830381865afa1580156101f9573d6000803e3d6000fd5b505050506040513d601f19601f8201168201806040525081019061021d91906142d6565b905060128160ff160361024857670de0b6b3a76400008261023e9190614332565b93505050506102a0565b60128160ff1610156102825780601261026191906143aa565b600a61026d9190614512565b826102789190614332565b93505050506102a0565b80600a61028f9190614512565b8261029a919061458c565b93505050505b919050565b6060600083905060008151905060005b82518110156103b0577f56000000000000000000000000000000000000000000000000000000000000008382815181106102f2576102f16145f6565b5b602001015160f81c60f81b7effffffffffffffffffffffffffffffffffffffffffffffffffffffffffffff1916148061038957507f580000000000000000000000000000000000000000000000000000000000000083828151811061035a576103596145f6565b5b602001015160f81c60f81b7effffffffffffffffffffffffffffffffffffffffffffffffffffffffffffff1916145b1561039d57818061039990614625565b9250505b80806103a89061464e565b9150506102b5565b5060008060008367ffffffffffffffff8111156103d0576103cf61397e565b5b60405190808252806020026020018201604052801561040957816020015b6103f6613900565b8152602001906001900390816103ee5790505b5090506000805b86518110156107b4577f560000000000000000000000000000000000000000000000000000000000000087828151811061044d5761044c6145f6565b5b602001015160f81c60f81b7effffffffffffffffffffffffffffffffffffffffffffffffffffffffffffff19160361048857600194506107a1565b7f58000000000000000000000000000000000000000000000000000000000000008782815181106104bc576104bb6145f6565b5b602001015160f81c60f81b7effffffffffffffffffffffffffffffffffffffffffffffffffffffffffffff1916036104f757600193506107a1565b84156105c9576000945060405180608001604052808a60308a8581518110610522576105216145f6565b5b602001015160f81c60f81b60f81c61053a91906143aa565b60ff168151811061054e5761054d6145f6565b5b602002602001015181526020016000600281111561056f5761056e613db6565b5b81526020016000600981111561058857610587613db6565b5b8152602001600060ff16815250838360ff16815181106105ab576105aa6145f6565b5b602002602001018190525081806105c190614696565b9250506107a0565b831561067e5760009350604051806080016040528060008152602001600160028111156105f9576105f8613db6565b5b81526020016000600981111561061257610611613db6565b5b8152602001603089848151811061062c5761062b6145f6565b5b602001015160f81c60f81b60f81c61064491906143aa565b60ff16815250838360ff16815181106106605761065f6145f6565b5b6020026020010181905250818061067690614696565b92505061079f565b7f2b000000000000000000000000000000000000000000000000000000000000008782815181106106b2576106b16145f6565b5b602001015160f81c60f81b7effffffffffffffffffffffffffffffffffffffffffffffffffffffffffffff1916036107635760405180608001604052806000815260200160028081111561070957610708613db6565b5b81526020016000600981111561072257610721613db6565b5b8152602001600060ff16815250838360ff1681518110610745576107446145f6565b5b6020026020010181905250818061075b90614696565b92505061079e565b6040517f08c379a00000000000000000000000000000000000000000000000000000000081526004016107959061471c565b60405180910390fd5b5b5b5b80806107ac9061464e565b915050610410565b5081965050505050505092915050565b600080835111610809576040517f08c379a000000000000000000000000000000000000000000000000000000000815260040161080090614788565b60405180910390fd5b600061010067ffffffffffffffff8111156108275761082661397e565b5b6040519080825280602002602001820160405280156108555781602001602082028036833780820191505090505b509050600080600090505b85518110156116c4576001600281111561087d5761087c613db6565b5b8682815181106108905761088f6145f6565b5b60200260200101516020015160028111156108ae576108ad613db6565b5b0361095e5760008682815181106108c8576108c76145f6565b5b60200260200101516020019060028111156108e6576108e5613db6565b5b908160028111156108fa576108f9613db6565b5b8152505084868281518110610912576109116145f6565b5b60200260200101516060015160ff1681518110610932576109316145f6565b5b602002602001015186828151811061094d5761094c6145f6565b5b602002602001015160000181815250505b6000600281111561097257610971613db6565b5b868281518110610985576109846145f6565b5b60200260200101516020015160028111156109a3576109a2613db6565b5b036109fc578581815181106109bb576109ba6145f6565b5b602002602001015160000151838360ff16815181106109dd576109dc6145f6565b5b60200260200101818152505081806109f490614696565b9250506116b1565b600280811115610a0f57610a0e613db6565b5b868281518110610a2257610a216145f6565b5b6020026020010151602001516002811115610a4057610a3f613db6565b5b14610a80576040517f08c379a0000000000000000000000000000000000000000000000000000000008152600401610a77906147f4565b60405180910390fd5b60006009811115610a9457610a93613db6565b5b868281518110610aa757610aa66145f6565b5b6020026020010151604001516009811115610ac557610ac4613db6565b5b03610bb65760028260ff161015610b11576040517f08c379a0000000000000000000000000000000000000000000000000000000008152600401610b0890614860565b60405180910390fd5b600083600184610b2191906143aa565b60ff1681518110610b3557610b346145f6565b5b602002602001015184600285610b4b91906143aa565b60ff1681518110610b5f57610b5e6145f6565b5b6020026020010151610b719190614880565b90508084600285610b8291906143aa565b60ff1681518110610b9657610b956145f6565b5b6020026020010181815250508280610bad906148c4565b935050506116b0565b60016009811115610bca57610bc9613db6565b5b868281518110610bdd57610bdc6145f6565b5b6020026020010151604001516009811115610bfb57610bfa613db6565b5b03610cec5760028260ff161015610c47576040517f08c379a0000000000000000000000000000000000000000000000000000000008152600401610c3e90614860565b60405180910390fd5b600083600184610c5791906143aa565b60ff1681518110610c6b57610c6a6145f6565b5b602002602001015184600285610c8191906143aa565b60ff1681518110610c9557610c946145f6565b5b6020026020010151610ca791906148ed565b90508084600285610cb891906143aa565b60ff1681518110610ccc57610ccb6145f6565b5b6020026020010181815250508280610ce3906148c4565b935050506116af565b60026009811115610d0057610cff613db6565b5b868281518110610d1357610d126145f6565b5b6020026020010151604001516009811115610d3157610d30613db6565b5b03610e295760028260ff161015610d7d576040517f08c379a0000000000000000000000000000000000000000000000000000000008152600401610d7490614860565b60405180910390fd5b6000610de484600185610d9091906143aa565b60ff1681518110610da457610da36145f6565b5b602002602001015185600286610dba91906143aa565b60ff1681518110610dce57610dcd6145f6565b5b602002602001015161173190919063ffffffff16565b90508084600285610df591906143aa565b60ff1681518110610e0957610e086145f6565b5b6020026020010181815250508280610e20906148c4565b935050506116ae565b60036009811115610e3d57610e3c613db6565b5b868281518110610e5057610e4f6145f6565b5b6020026020010151604001516009811115610e6e57610e6d613db6565b5b03610fd25760028260ff161015610eba576040517f08c379a0000000000000000000000000000000000000000000000000000000008152600401610eb190614860565b60405180910390fd5b600083600184610eca91906143aa565b60ff1681518110610ede57610edd6145f6565b5b602002602001015103610f26576040517f08c379a0000000000000000000000000000000000000000000000000000000008152600401610f1d9061497c565b60405180910390fd5b6000610f8d84600185610f3991906143aa565b60ff1681518110610f4d57610f4c6145f6565b5b602002602001015185600286610f6391906143aa565b60ff1681518110610f7757610f766145f6565b5b602002602001015161188e90919063ffffffff16565b90508084600285610f9e91906143aa565b60ff1681518110610fb257610fb16145f6565b5b6020026020010181815250508280610fc9906148c4565b935050506116ad565b60046009811115610fe657610fe5613db6565b5b868281518110610ff957610ff86145f6565b5b602002602001015160400151600981111561101757611016613db6565b5b036111085760028260ff161015611063576040517f08c379a000000000000000000000000000000000000000000000000000000000815260040161105a90614860565b60405180910390fd5b60008360018461107391906143aa565b60ff1681518110611087576110866145f6565b5b60200260200101518460028561109d91906143aa565b60ff16815181106110b1576110b06145f6565b5b60200260200101516110c3919061499c565b905080846002856110d491906143aa565b60ff16815181106110e8576110e76145f6565b5b60200260200101818152505082806110ff906148c4565b935050506116ac565b6005600981111561111c5761111b613db6565b5b86828151811061112f5761112e6145f6565b5b602002602001015160400151600981111561114d5761114c613db6565b5b036112455760028260ff161015611199576040517f08c379a000000000000000000000000000000000000000000000000000000000815260040161119090614860565b60405180910390fd5b6000611200846001856111ac91906143aa565b60ff16815181106111c0576111bf6145f6565b5b6020026020010151856002866111d691906143aa565b60ff16815181106111ea576111e96145f6565b5b60200260200101516119fa90919063ffffffff16565b9050808460028561121191906143aa565b60ff1681518110611225576112246145f6565b5b602002602001018181525050828061123c906148c4565b935050506116ab565b6007600981111561125957611258613db6565b5b86828151811061126c5761126b6145f6565b5b602002602001015160400151600981111561128a57611289613db6565b5b0361134f5760018260ff1610156112d6576040517f08c379a00000000000000000000000000000000000000000000000000000000081526004016112cd90614860565b60405180910390fd5b600061130a846001856112e991906143aa565b60ff16815181106112fd576112fc6145f6565b5b6020026020010151611a46565b9050808460018561131b91906143aa565b60ff168151811061132f5761132e6145f6565b5b6020026020010181815250508280611346906148c4565b935050506116aa565b6006600981111561136357611362613db6565b5b868281518110611376576113756145f6565b5b602002602001015160400151600981111561139457611393613db6565b5b036114595760018260ff1610156113e0576040517f08c379a00000000000000000000000000000000000000000000000000000000081526004016113d790614860565b60405180910390fd5b6000611414846001856113f391906143aa565b60ff1681518110611407576114066145f6565b5b6020026020010151611ba2565b9050808460018561142591906143aa565b60ff1681518110611439576114386145f6565b5b6020026020010181815250508280611450906148c4565b935050506116a9565b6008600981111561146d5761146c613db6565b5b8682815181106114805761147f6145f6565b5b602002602001015160400151600981111561149e5761149d613db6565b5b036115635760018260ff1610156114ea576040517f08c379a00000000000000000000000000000000000000000000000000000000081526004016114e190614860565b60405180910390fd5b600061151e846001856114fd91906143aa565b60ff1681518110611511576115106145f6565b5b6020026020010151612949565b9050808460018561152f91906143aa565b60ff1681518110611543576115426145f6565b5b602002602001018181525050828061155a906148c4565b935050506116a8565b60098081111561157657611575613db6565b5b868281518110611589576115886145f6565b5b60200260200101516040015160098111156115a7576115a6613db6565b5b0361166c5760018260ff1610156115f3576040517f08c379a00000000000000000000000000000000000000000000000000000000081526004016115ea90614860565b60405180910390fd5b60006116278460018561160691906143aa565b60ff168151811061161a576116196145f6565b5b602002602001015161297d565b9050808460018561163891906143aa565b60ff168151811061164c5761164b6145f6565b5b6020026020010181815250508280611663906148c4565b935050506116a7565b6040517f08c379a000000000000000000000000000000000000000000000000000000000815260040161169e90614a19565b60405180910390fd5b5b5b5b5b5b5b5b5b5b5b80806116bc9061464e565b915050610860565b5060018160ff161461170b576040517f08c379a000000000000000000000000000000000000000000000000000000000815260040161170290614860565b60405180910390fd5b8160008151811061171f5761171e6145f6565b5b60200260200101519250505092915050565b60007f800000000000000000000000000000000000000000000000000000000000000083148061178057507f800000000000000000000000000000000000000000000000000000000000000082145b156117b7576040517f3406846c00000000000000000000000000000000000000000000000000000000815260040160405180910390fd5b600080600085126117c857846117cd565b846000035b9150600084126117dd57836117e2565b836000035b905060006117f08383612a5b565b90507f7fffffffffffffffffffffffffffffffffffffffffffffffffffffffffffffff81111561185757806040517fbf79e8d900000000000000000000000000000000000000000000000000000000815260040161184e9190614a48565b60405180910390fd5b60008060016000038813915060016000038713905060018183181461187c5782611881565b826000035b9550505050505092915050565b60007f80000000000000000000000000000000000000000000000000000000000000008314806118dd57507f800000000000000000000000000000000000000000000000000000000000000082145b15611914576040517fb3c754a300000000000000000000000000000000000000000000000000000000815260040160405180910390fd5b60008060008512611925578461192a565b846000035b91506000841261193a578361193f565b836000035b9050600061195683670de0b6b3a764000084612b58565b90507f7fffffffffffffffffffffffffffffffffffffffffffffffffffffffffffffff8111156119bd57806040517f7cb4bef50000000000000000000000000000000000000000000000000000000081526004016119b49190614a48565b60405180910390fd5b6000806001600003881391506001600003871390506001818318146119e257826119ed565b826119ec90614a63565b5b9550505050505092915050565b6000808303611a235760008214611a12576000611a1c565b670de0b6b3a76400005b9050611a40565b611a3d611a38611a3285611a46565b84611731565b612c6d565b90505b92915050565b6000808213611a8c57816040517f613f4fba000000000000000000000000000000000000000000000000000000008152600401611a839190613c5d565b60405180910390fd5b6000670de0b6b3a76400008312611aa65760019050611ade565b7fffffffffffffffffffffffffffffffffffffffffffffffffffffffffffffffff9050826ec097ce7bc90715b34b9f10000000000492505b6000611b01670de0b6b3a76400008581611afb57611afa61455d565b5b05612d5b565b9050670de0b6b3a76400008102925060008185901d9050670de0b6b3a76400008103611b34578284029350505050611b9d565b60006706f05b59d3b2000090505b6000811315611b9357670de0b6b3a764000082830281611b6557611b6461455d565b5b059150670de0b6b3a76400006002028212611b87578085019450600182901d91505b600181901d9050611b42565b5082840293505050505b919050565b6000808213611be857816040517f613f4fba000000000000000000000000000000000000000000000000000000008152600401611bdf9190613c5d565b60405180910390fd5b816001811461231257600a8114612328576064811461233e576103e8811461235457612710811461236a57620186a0811461238057620f42408114612396576298968081146123ac576305f5e10081146123c257633b9aca0081146123d8576402540be40081146123ee5764174876e80081146124045764e8d4a51000811461241a576509184e72a000811461243057655af3107a400081146124465766038d7ea4c68000811461245c57662386f26fc1000081146124725767016345785d8a0000811461248857670de0b6b3a7640000811461249e57678ac7230489e8000081146124a75768056bc75e2d6310000081146124b757683635c9adc5dea0000081146124ca5769021e19e0c9bab240000081146124dd5769152d02c7e14af680000081146124f05769d3c21bcecceda10000008114612503576a084595161401484a0000008114612516576a52b7d2dcc80cd2e40000008114612529576b033b2e3c9fd0803ce8000000811461253c576b204fce5e3e25026110000000811461254f576c01431e0fae6d7217caa00000008114612562576c0c9f2c9cd04674edea400000008114612575576c7e37be2022c0914b26800000008114612588576d04ee2d6d415b85acef8100000000811461259b576d314dc6448d9338c15b0a0000000081146125ae576e01ed09bead87c0378d8e640000000081146125c1576e13426172c74d822b878fe80000000081146125d4576ec097ce7bc90715b34b9f100000000081146125e7576f0785ee10d5da46d900f436a00000000081146125fa576f4b3b4ca85a86c47a098a224000000000811461260d577002f050fe938943acc45f65568000000000811461262057701d6329f1c35ca4bfabb9f5610000000000811461263357710125dfa371a19e6f7cb54395ca0000000000811461264657710b7abc627050305adf14a3d9e400000000008114612659577172cb5bd86321e38cb6ce6682e80000000000811461266c5772047bf19673df52e37f2410011d100000000000811461267f57722cd76fe086b93ce2f768a00b22a000000000008114612692577301c06a5ec5433c60ddaa16406f5a40000000000081146126a55773118427b3b4a05bc8a8a4de84598680000000000081146126b85773af298d050e4395d69670b12b7f4100000000000081146126cb577406d79f82328ea3da61e066ebb2f88a00000000000081146126de5774446c3b15f9926687d2c40534fdb56400000000000081146126f1577502ac3a4edbbfb8014e3ba83411e915e8000000000000811461270457751aba4714957d300d0e549208b31adb1000000000000081146127175776010b46c6cdd6e3e0828f4db456ff0c8ea0000000000000811461272a57760a70c3c40a64e6c51999090b65f67d9240000000000000811461273d57766867a5a867f103b2fffa5a71fba0e7b6800000000000008114612750577704140c78940f6a24fdffc78873d4490d21000000000000008114612763577728c87cb5c89a2571ebfdcb54864ada834a00000000000000811461277657780197d4df19d605767337e9f14d3eec8920e400000000000000811461278957780fee50b7025c36a0802f236d04753d5b48e800000000000000811461279c57789f4f2726179a224501d762422c946590d9100000000000000081146127af5779063917877cec0556b21269d695bdcbf7a87aa00000000000000081146127c257793e3aeb4ae1383562f4b82261d969f7ac94ca400000000000000081146127d5577a026e4d30eccc3215dd8f3157d27e23acbdcfe6800000000000000081146127e8577a184f03e93ff9f4daa797ed6e38ed64bf6a1f01000000000000000081146127fb577af316271c7fc3908a8bef464e3945ef7a25360a0000000000000000811461280e577b097edd871cfda3a5697758bf0e3cbb5ac5741c6400000000000000008114612821577b5ef4a74721e864761ea977768e5f518bb6891be800000000000000008114612834577c03b58e88c75313ec9d329eaaa18fb92f75215b171000000000000000008114612847577c25179157c93ec73e23fa32aa4f9d3bda934d8ee6a00000000000000000811461285a577d0172ebad6ddc73c86d67c5faa71c245689c1079502400000000000000000811461286d577d0e7d34c64a9c85d4460dbbca87196b61618a4bd2168000000000000000008114612880577d90e40fbeea1d3a4abc8955e946fe31cdcf66f634e10000000000000000008114612893577e05a8e89d75252446eb5d5d5b1cc5edf20a1a059e10ca00000000000000000081146128a6577e3899162693736ac531a5a58f1fbb4b746504382ca7e400000000000000000081146128b9577f0235fadd81c2822bb3f07877973d50f28bf22a31be8ee800000000000000000081146128cc577f161bcca7119915b50764b4abe86529797775a5f171951000000000000000000081146128df577f7fffffffffffffffffffffffffffffffffffffffffffffffffffffffffffffff91506128ee565b6012600003670de0b6b3a76400000291506128ee565b6012600103670de0b6b3a76400000291506128ee565b6012600203670de0b6b3a76400000291506128ee565b6012600303670de0b6b3a76400000291506128ee565b6012600403670de0b6b3a76400000291506128ee565b6012600503670de0b6b3a76400000291506128ee565b6012600603670de0b6b3a76400000291506128ee565b6012600703670de0b6b3a76400000291506128ee565b6012600803670de0b6b3a76400000291506128ee565b6012600903670de0b6b3a76400000291506128ee565b6012600a03670de0b6b3a76400000291506128ee565b6012600b03670de0b6b3a76400000291506128ee565b6012600c03670de0b6b3a76400000291506128ee565b6012600d03670de0b6b3a76400000291506128ee565b6012600e03670de0b6b3a76400000291506128ee565b6012600f03670de0b6b3a76400000291506128ee565b6012601003670de0b6b3a76400000291506128ee565b6012601103670de0b6b3a76400000291506128ee565b600091506128ee565b670de0b6b3a764000091506128ee565b6002670de0b6b3a76400000291506128ee565b6003670de0b6b3a76400000291506128ee565b6004670de0b6b3a76400000291506128ee565b6005670de0b6b3a76400000291506128ee565b6006670de0b6b3a76400000291506128ee565b6007670de0b6b3a76400000291506128ee565b6008670de0b6b3a76400000291506128ee565b6009670de0b6b3a76400000291506128ee565b600a670de0b6b3a76400000291506128ee565b600b670de0b6b3a76400000291506128ee565b600c670de0b6b3a76400000291506128ee565b600d670de0b6b3a76400000291506128ee565b600e670de0b6b3a76400000291506128ee565b600f670de0b6b3a76400000291506128ee565b6010670de0b6b3a76400000291506128ee565b6011670de0b6b3a76400000291506128ee565b6012670de0b6b3a76400000291506128ee565b6013670de0b6b3a76400000291506128ee565b6014670de0b6b3a76400000291506128ee565b6015670de0b6b3a76400000291506128ee565b6016670de0b6b3a76400000291506128ee565b6017670de0b6b3a76400000291506128ee565b6018670de0b6b3a76400000291506128ee565b6019670de0b6b3a76400000291506128ee565b601a670de0b6b3a76400000291506128ee565b601b670de0b6b3a76400000291506128ee565b601c670de0b6b3a76400000291506128ee565b601d670de0b6b3a76400000291506128ee565b601e670de0b6b3a76400000291506128ee565b601f670de0b6b3a76400000291506128ee565b6020670de0b6b3a76400000291506128ee565b6021670de0b6b3a76400000291506128ee565b6022670de0b6b3a76400000291506128ee565b6023670de0b6b3a76400000291506128ee565b6024670de0b6b3a76400000291506128ee565b6025670de0b6b3a76400000291506128ee565b6026670de0b6b3a76400000291506128ee565b6027670de0b6b3a76400000291506128ee565b6028670de0b6b3a76400000291506128ee565b6029670de0b6b3a76400000291506128ee565b602a670de0b6b3a76400000291506128ee565b602b670de0b6b3a76400000291506128ee565b602c670de0b6b3a76400000291506128ee565b602d670de0b6b3a76400000291506128ee565b602e670de0b6b3a76400000291506128ee565b602f670de0b6b3a76400000291506128ee565b6030670de0b6b3a76400000291506128ee565b6031670de0b6b3a76400000291506128ee565b6032670de0b6b3a76400000291506128ee565b6033670de0b6b3a76400000291506128ee565b6034670de0b6b3a76400000291506128ee565b6035670de0b6b3a76400000291506128ee565b6036670de0b6b3a76400000291506128ee565b6037670de0b6b3a76400000291506128ee565b6038670de0b6b3a76400000291506128ee565b6039670de0b6b3a76400000291506128ee565b603a670de0b6b3a76400000291505b507f7fffffffffffffffffffffffffffffffffffffffffffffffffffffffffffffff810361294457672e19dc008126bf2b670de0b6b3a764000061293184611a46565b02816129405761293f61455d565b5b0590505b919050565b60006714057b7ef767814f670de0b6b3a764000061296684611a46565b02816129755761297461455d565b5b059050919050565b6000808212156129c457816040517fc11907fe0000000000000000000000000000000000000000000000000000000081526004016129bb9190613c5d565b60405180910390fd5b670de0b6b3a76400007f7fffffffffffffffffffffffffffffffffffffffffffffffffffffffffffffff816129fc576129fb61455d565b5b05821315612a4157816040517f2c482c39000000000000000000000000000000000000000000000000000000008152600401612a389190613c5d565b60405180910390fd5b612a54670de0b6b3a76400008302612e72565b9050919050565b60008060008019848609848602925082811083820303915050670de0b6b3a76400008110612ac057806040517fd31b3402000000000000000000000000000000000000000000000000000000008152600401612ab79190614a48565b60405180910390fd5b600080670de0b6b3a764000086880991506706f05b59d3b1ffff8211905060008303612b0c5780670de0b6b3a76400008581612aff57612afe61455d565b5b0401945050505050612b52565b807faccb18165bd6fe31ae1cf318dc5b51eee0e1ba569b88cd74c1773b91fac1066960016204000080600003040186851186030262040000858803041702019450505050505b92915050565b6000806000801985870985870292508281108382030391505060008103612b9357838281612b8957612b8861455d565b5b0492505050612c66565b838110612bd95780846040517f773cc18c000000000000000000000000000000000000000000000000000000008152600401612bd0929190614aab565b60405180910390fd5b60008486880990508281118203915080830392506000600186190186169050808604955080840493506001818260000304019050808302841793506000600287600302189050808702600203810290508087026002038102905080870260020381029050808702600203810290508087026002038102905080870260020381029050808502955050505050505b9392505050565b600080821215612cda577ffffffffffffffffffffffffffffffffffffffffffffffffcc22e87f6eb468eeb821215612ca85760009050612d56565b612cb482600003612c6d565b6ec097ce7bc90715b34b9f100000000081612cd257612cd161455d565b5b059050612d55565b680a688906bd8b0000008212612d2757816040517fe69458f9000000000000000000000000000000000000000000000000000000008152600401612d1e9190613c5d565b60405180910390fd5b6000670de0b6b3a7640000604084901b81612d4557612d4461455d565b5b049050612d5181613024565b9150505b5b919050565b60007001000000000000000000000000000000008210612d8c57608082901c9150608081612d899190614ad4565b90505b680100000000000000008210612db357604082901c9150604081612db09190614ad4565b90505b6401000000008210612dd657602082901c9150602081612dd39190614ad4565b90505b620100008210612df757601082901c9150601081612df49190614ad4565b90505b6101008210612e1757600882901c9150600881612e149190614ad4565b90505b60108210612e3657600482901c9150600481612e339190614ad4565b90505b60048210612e5557600282901c9150600281612e529190614ad4565b90505b60028210612e6d57600181612e6a9190614ad4565b90505b919050565b6000808203612e84576000905061301f565b6000829050600191507001000000000000000000000000000000008110612eb457608081901c9050604082901b91505b680100000000000000008110612ed357604081901c9050602082901b91505b6401000000008110612eee57602081901c9050601082901b91505b620100008110612f0757601081901c9050600882901b91505b6101008110612f1f57600881901c9050600482901b91505b60108110612f3657600481901c9050600282901b91505b60088110612f4657600182901b91505b6001828481612f5857612f5761455d565b5b048301901c91506001828481612f7157612f7061455d565b5b048301901c91506001828481612f8a57612f8961455d565b5b048301901c91506001828481612fa357612fa261455d565b5b048301901c91506001828481612fbc57612fbb61455d565b5b048301901c91506001828481612fd557612fd461455d565b5b048301901c91506001828481612fee57612fed61455d565b5b048301901c915060008284816130075761300661455d565b5b04905080831015613018578261301a565b805b925050505b919050565b600077800000000000000000000000000000000000000000000000905060006780000000000000008316111561306757604068016a09e667f3bcc9098202901c90505b60006740000000000000008316111561308d5760406801306fe0a31b7152df8202901c90505b6000672000000000000000831611156130b35760406801172b83c7d517adce8202901c90505b6000671000000000000000831611156130d957604068010b5586cf9890f62a8202901c90505b6000670800000000000000831611156130ff5760406801059b0d31585743ae8202901c90505b600067040000000000000083161115613125576040680102c9a3e778060ee78202901c90505b60006702000000000000008316111561314b57604068010163da9fb33356d88202901c90505b600067010000000000000083161115613171576040680100b1afa5abcbed618202901c90505b600066800000000000008316111561319657604068010058c86da1c09ea28202901c90505b60006640000000000000831611156131bb5760406801002c605e2e8cec508202901c90505b60006620000000000000831611156131e0576040680100162f3904051fa18202901c90505b60006610000000000000831611156132055760406801000b175effdc76ba8202901c90505b600066080000000000008316111561322a576040680100058ba01fb9f96d8202901c90505b600066040000000000008316111561324f57604068010002c5cc37da94928202901c90505b60006602000000000000831611156132745760406801000162e525ee05478202901c90505b600066010000000000008316111561329957604068010000b17255775c048202901c90505b600065800000000000831611156132bd5760406801000058b91b5bc9ae8202901c90505b600065400000000000831611156132e1576040680100002c5c89d5ec6d8202901c90505b6000652000000000008316111561330557604068010000162e43f4f8318202901c90505b60006510000000000083161115613329576040680100000b1721bcfc9a8202901c90505b6000650800000000008316111561334d57604068010000058b90cf1e6e8202901c90505b600065040000000000831611156133715760406801000002c5c863b73f8202901c90505b60006502000000000083161115613395576040680100000162e430e5a28202901c90505b600065010000000000831611156133b95760406801000000b1721835518202901c90505b6000648000000000831611156133dc576040680100000058b90c0b498202901c90505b6000644000000000831611156133ff57604068010000002c5c8601cc8202901c90505b6000642000000000831611156134225760406801000000162e42fff08202901c90505b60006410000000008316111561344557604068010000000b17217fbb8202901c90505b6000640800000000831611156134685760406801000000058b90bfce8202901c90505b60006404000000008316111561348b576040680100000002c5c85fe38202901c90505b6000640200000000831611156134ae57604068010000000162e42ff18202901c90505b6000640100000000831611156134d1576040680100000000b17217f88202901c90505b60006380000000831611156134f357604068010000000058b90bfc8202901c90505b60006340000000831611156135155760406801000000002c5c85fe8202901c90505b6000632000000083161115613537576040680100000000162e42ff8202901c90505b60006310000000831611156135595760406801000000000b17217f8202901c90505b600063080000008316111561357b576040680100000000058b90c08202901c90505b600063040000008316111561359d57604068010000000002c5c8608202901c90505b60006302000000831611156135bf5760406801000000000162e4308202901c90505b60006301000000831611156135e157604068010000000000b172188202901c90505b600062800000831611156136025760406801000000000058b90c8202901c90505b60006240000083161115613623576040680100000000002c5c868202901c90505b6000622000008316111561364457604068010000000000162e438202901c90505b60006210000083161115613665576040680100000000000b17218202901c90505b6000620800008316111561368657604068010000000000058b918202901c90505b600062040000831611156136a75760406801000000000002c5c88202901c90505b600062020000831611156136c8576040680100000000000162e48202901c90505b600062010000831611156136e95760406801000000000000b1728202901c90505b600061800083161115613709576040680100000000000058b98202901c90505b60006140008316111561372957604068010000000000002c5d8202901c90505b6000612000831611156137495760406801000000000000162e8202901c90505b60006110008316111561376957604068010000000000000b178202901c90505b6000610800831611156137895760406801000000000000058c8202901c90505b6000610400831611156137a9576040680100000000000002c68202901c90505b6000610200831611156137c9576040680100000000000001638202901c90505b6000610100831611156137e9576040680100000000000000b18202901c90505b6000608083161115613808576040680100000000000000598202901c90505b60006040831611156138275760406801000000000000002c8202901c90505b6000602083161115613846576040680100000000000000168202901c90505b60006010831611156138655760406801000000000000000b8202901c90505b6000600883161115613884576040680100000000000000068202901c90505b60006004831611156138a3576040680100000000000000038202901c90505b60006002831611156138c2576040680100000000000000018202901c90505b60006001831611156138e1576040680100000000000000018202901c90505b670de0b6b3a764000081029050604082901c60bf0381901c9050919050565b6040518060800160405280600081526020016000600281111561392657613925613db6565b5b81526020016000600981111561393f5761393e613db6565b5b8152602001600060ff1681525090565b6000604051905090565b600080fd5b600080fd5b600080fd5b600080fd5b6000601f19601f8301169050919050565b7f4e487b7100000000000000000000000000000000000000000000000000000000600052604160045260246000fd5b6139b68261396d565b810181811067ffffffffffffffff821117156139d5576139d461397e565b5b80604052505050565b60006139e861394f565b90506139f482826139ad565b919050565b600067ffffffffffffffff821115613a1457613a1361397e565b5b613a1d8261396d565b9050602081019050919050565b82818337600083830152505050565b6000613a4c613a47846139f9565b6139de565b905082815260208101848484011115613a6857613a67613968565b5b613a73848285613a2a565b509392505050565b600082601f830112613a9057613a8f613963565b5b8135613aa0848260208601613a39565b91505092915050565b600067ffffffffffffffff821115613ac457613ac361397e565b5b602082029050602081019050919050565b600080fd5b6000819050919050565b613aed81613ada565b8114613af857600080fd5b50565b600081359050613b0a81613ae4565b92915050565b6000613b23613b1e84613aa9565b6139de565b90508083825260208201905060208402830185811115613b4657613b45613ad5565b5b835b81811015613b6f5780613b5b8882613afb565b845260208401935050602081019050613b48565b5050509392505050565b600082601f830112613b8e57613b8d613963565b5b8135613b9e848260208601613b10565b91505092915050565b600080600060608486031215613bc057613bbf613959565b5b600084013567ffffffffffffffff811115613bde57613bdd61395e565b5b613bea86828701613a7b565b935050602084013567ffffffffffffffff811115613c0b57613c0a61395e565b5b613c1786828701613b79565b925050604084013567ffffffffffffffff811115613c3857613c3761395e565b5b613c4486828701613b79565b9150509250925092565b613c5781613ada565b82525050565b6000602082019050613c726000830184613c4e565b92915050565b600073ffffffffffffffffffffffffffffffffffffffff82169050919050565b6000613ca382613c78565b9050919050565b613cb381613c98565b8114613cbe57600080fd5b50565b600081359050613cd081613caa565b92915050565b600060208284031215613cec57613ceb613959565b5b6000613cfa84828501613cc1565b91505092915050565b60008060408385031215613d1a57613d19613959565b5b600083013567ffffffffffffffff811115613d3857613d3761395e565b5b613d4485828601613a7b565b925050602083013567ffffffffffffffff811115613d6557613d6461395e565b5b613d7185828601613b79565b9150509250929050565b600081519050919050565b600082825260208201905092915050565b6000819050602082019050919050565b613db081613ada565b82525050565b7f4e487b7100000000000000000000000000000000000000000000000000000000600052602160045260246000fd5b60038110613df657613df5613db6565b5b50565b6000819050613e0782613de5565b919050565b6000613e1782613df9565b9050919050565b613e2781613e0c565b82525050565b600a8110613e3e57613e3d613db6565b5b50565b6000819050613e4f82613e2d565b919050565b6000613e5f82613e41565b9050919050565b613e6f81613e54565b82525050565b600060ff82169050919050565b613e8b81613e75565b82525050565b608082016000820151613ea76000850182613da7565b506020820151613eba6020850182613e1e565b506040820151613ecd6040850182613e66565b506060820151613ee06060850182613e82565b50505050565b6000613ef28383613e91565b60808301905092915050565b6000602082019050919050565b6000613f1682613d7b565b613f208185613d86565b9350613f2b83613d97565b8060005b83811015613f5c578151613f438882613ee6565b9750613f4e83613efe565b925050600181019050613f2f565b5085935050505092915050565b60006020820190508181036000830152613f838184613f0b565b905092915050565b600067ffffffffffffffff821115613fa657613fa561397e565b5b602082029050602081019050919050565b600080fd5b60038110613fc957600080fd5b50565b600081359050613fdb81613fbc565b92915050565b600a8110613fee57600080fd5b50565b60008135905061400081613fe1565b92915050565b61400f81613e75565b811461401a57600080fd5b50565b60008135905061402c81614006565b92915050565b60006080828403121561404857614047613fb7565b5b61405260806139de565b9050600061406284828501613afb565b600083015250602061407684828501613fcc565b602083015250604061408a84828501613ff1565b604083015250606061409e8482850161401d565b60608301525092915050565b60006140bd6140b884613f8b565b6139de565b905080838252602082019050608084028301858111156140e0576140df613ad5565b5b835b8181101561410957806140f58882614032565b8452602084019350506080810190506140e2565b5050509392505050565b600082601f83011261412857614127613963565b5b81356141388482602086016140aa565b91505092915050565b6000806040838503121561415857614157613959565b5b600083013567ffffffffffffffff8111156141765761417561395e565b5b61418285828601614113565b925050602083013567ffffffffffffffff8111156141a3576141a261395e565b5b6141af85828601613b79565b9150509250929050565b600069ffffffffffffffffffff82169050919050565b6141d8816141b9565b81146141e357600080fd5b50565b6000815190506141f5816141cf565b92915050565b60008151905061420a81613ae4565b92915050565b6000819050919050565b61422381614210565b811461422e57600080fd5b50565b6000815190506142408161421a565b92915050565b600080600080600060a0868803121561426257614261613959565b5b6000614270888289016141e6565b9550506020614281888289016141fb565b945050604061429288828901614231565b93505060606142a388828901614231565b92505060806142b4888289016141e6565b9150509295509295909350565b6000815190506142d081614006565b92915050565b6000602082840312156142ec576142eb613959565b5b60006142fa848285016142c1565b91505092915050565b7f4e487b7100000000000000000000000000000000000000000000000000000000600052601160045260246000fd5b600061433d82613ada565b915061434883613ada565b925082820261435681613ada565b91507f8000000000000000000000000000000000000000000000000000000000000000841460008412161561438e5761438d614303565b5b82820584148315176143a3576143a2614303565b5b5092915050565b60006143b582613e75565b91506143c083613e75565b9250828203905060ff8111156143d9576143d8614303565b5b92915050565b60008160011c9050919050565b6000808291508390505b60018511156144365780860481111561441257614411614303565b5b60018516156144215780820291505b808102905061442f856143df565b94506143f6565b94509492505050565b60008261444f576001905061450b565b8161445d576000905061450b565b8160018114614473576002811461447d576144ac565b600191505061450b565b60ff84111561448f5761448e614303565b5b8360020a9150848211156144a6576144a5614303565b5b5061450b565b5060208310610133831016604e8410600b84101617156144e15782820a9050838111156144dc576144db614303565b5b61450b565b6144ee84848460016143ec565b9250905081840481111561450557614504614303565b5b81810290505b9392505050565b600061451d82614210565b915061452883613e75565b92506145557fffffffffffffffffffffffffffffffffffffffffffffffffffffffffffffffff848461443f565b905092915050565b7f4e487b7100000000000000000000000000000000000000000000000000000000600052601260045260246000fd5b600061459782613ada565b91506145a283613ada565b9250826145b2576145b161455d565b5b600160000383147f8000000000000000000000000000000000000000000000000000000000000000831416156145eb576145ea614303565b5b828205905092915050565b7f4e487b7100000000000000000000000000000000000000000000000000000000600052603260045260246000fd5b600061463082614210565b91506000820361464357614642614303565b5b600182039050919050565b600061465982614210565b91507fffffffffffffffffffffffffffffffffffffffffffffffffffffffffffffffff820361468b5761468a614303565b5b600182019050919050565b60006146a182613e75565b915060ff82036146b4576146b3614303565b5b600182019050919050565b600082825260208201905092915050565b7f4e6f7420696d706c656d656e7465640000000000000000000000000000000000600082015250565b6000614706600f836146bf565b9150614711826146d0565b602082019050919050565b60006020820190508181036000830152614735816146f9565b9050919050565b7f50726f76696465206e6f64657300000000000000000000000000000000000000600082015250565b6000614772600d836146bf565b915061477d8261473c565b602082019050919050565b600060208201905081810360008301526147a181614765565b9050919050565b7f42726f6b656e206e6f6465000000000000000000000000000000000000000000600082015250565b60006147de600b836146bf565b91506147e9826147a8565b602082019050919050565b6000602082019050818103600083015261480d816147d1565b9050919050565b7f42726f6b656e20737461636b0000000000000000000000000000000000000000600082015250565b600061484a600c836146bf565b915061485582614814565b602082019050919050565b600060208201905081810360008301526148798161483d565b9050919050565b600061488b82613ada565b915061489683613ada565b9250828201905082811215600083121683821260008412151617156148be576148bd614303565b5b92915050565b60006148cf82613e75565b9150600082036148e2576148e1614303565b5b600182039050919050565b60006148f882613ada565b915061490383613ada565b925082820390508181126000841216828213600085121516171561492a57614929614303565b5b92915050565b7f4469766973696f6e206279203000000000000000000000000000000000000000600082015250565b6000614966600d836146bf565b915061497182614930565b602082019050919050565b6000602082019050818103600083015261499581614959565b9050919050565b60006149a782613ada565b91506149b283613ada565b9250826149c2576149c161455d565b5b828207905092915050565b7f556e6b6e6f776e206f70657261746f7200000000000000000000000000000000600082015250565b6000614a036010836146bf565b9150614a0e826149cd565b602082019050919050565b60006020820190508181036000830152614a32816149f6565b9050919050565b614a4281614210565b82525050565b6000602082019050614a5d6000830184614a39565b92915050565b6000614a6e82613ada565b91507f80000000000000000000000000000000000000000000000000000000000000008203614aa057614a9f614303565b5b816000039050919050565b6000604082019050614ac06000830185614a39565b614acd6020830184614a39565b9392505050565b6000614adf82614210565b9150614aea83614210565b9250828201905080821115614b0257614b01614303565b5b9291505056fea264697066735822122027a4636ea8cf30538e3924ec6c3e9ebc8eb863646a573b3a04c7c2a5f5cf90fc64736f6c63430008110033",
  "linkReferences": {},
  "deployedLinkReferences": {}
}