{
  "_format": "hh-sol-artifact-1",
  "contractName": "BrokenUmpireAction",
  "sourceName": "contracts/examples/BrokenAction.sol",
  "abi": [
    {
      "anonymous": false,
      "inputs": [
        {
          "indexed": true,
          "internalType": "address",
          "name": "previousOwner",
          "type": "address"
        },
        {
          "indexed": true,
          "internalType": "address",
          "name": "newOwner",
          "type": "address"
        }
      ],
      "name": "OwnershipTransferred",
      "type": "event"
    },
    {
      "inputs": [
        {
          "internalType": "address",
          "name": "_registry",
          "type": "address"
        },
        {
          "internalType": "uint256",
          "name": "_jobId",
          "type": "uint256"
        }
      ],
      "name": "actionSetup",
      "outputs": [],
      "stateMutability": "nonpayable",
      "type": "function"
    },
    {
      "inputs": [],
      "name": "negativeAction",
      "outputs": [],
      "stateMutability": "nonpayable",
      "type": "function"
    },
    {
      "inputs": [],
      "name": "owner",
      "outputs": [
        {
          "internalType": "address",
          "name": "",
          "type": "address"
        }
      ],
      "stateMutability": "view",
      "type": "function"
    },
    {
      "inputs": [],
      "name": "positiveAction",
      "outputs": [],
      "stateMutability": "nonpayable",
      "type": "function"
    },
    {
      "inputs": [],
      "name": "renounceOwnership",
      "outputs": [],
      "stateMutability": "nonpayable",
      "type": "function"
    },
    {
      "inputs": [],
      "name": "s_initialized",
      "outputs": [
        {
          "internalType": "bool",
          "name": "",
          "type": "bool"
        }
      ],
      "stateMutability": "view",
      "type": "function"
    },
    {
      "inputs": [],
      "name": "s_umpireJobId",
      "outputs": [
        {
          "internalType": "uint256",
          "name": "",
          "type": "uint256"
        }
      ],
      "stateMutability": "view",
      "type": "function"
    },
    {
      "inputs": [],
      "name": "s_umpireRegistry",
      "outputs": [
        {
          "internalType": "address",
          "name": "",
          "type": "address"
        }
      ],
      "stateMutability": "view",
      "type": "function"
    },
    {
      "inputs": [
        {
          "internalType": "address",
          "name": "newOwner",
          "type": "address"
        }
      ],
      "name": "transferOwnership",
      "outputs": [],
      "stateMutability": "nonpayable",
      "type": "function"
    }
  ],
  "bytecode": "0x60806040526000600360006101000a81548160ff02191690831515021790555034801561002b57600080fd5b5061004861003d61004d60201b60201c565b61005560201b60201c565b610119565b600033905090565b60008060009054906101000a900473ffffffffffffffffffffffffffffffffffffffff169050816000806101000a81548173ffffffffffffffffffffffffffffffffffffffff021916908373ffffffffffffffffffffffffffffffffffffffff1602179055508173ffffffffffffffffffffffffffffffffffffffff168173ffffffffffffffffffffffffffffffffffffffff167f8be0079c531659141344cd1fd0a4f28419497f9722a3daafe3b4186f6b6457e060405160405180910390a35050565b610ee4806101286000396000f3fe608060405234801561001057600080fd5b50600436106100935760003560e01c8063a01910fb11610066578063a01910fb146100e6578063a10a6df314610104578063aa9d3e2f14610122578063e9c6afb514610140578063f2fde38b1461014a57610093565b806359586ee214610098578063715018a6146100b45780638da5cb5b146100be578063989c2059146100dc575b600080fd5b6100b260048036038101906100ad919061081a565b610166565b005b6100bc6101d5565b005b6100c66101e9565b6040516100d39190610869565b60405180910390f35b6100e4610212565b005b6100ee6103bc565b6040516100fb9190610869565b60405180910390f35b61010c6103e2565b6040516101199190610893565b60405180910390f35b61012a6103e8565b60405161013791906108c9565b60405180910390f35b6101486103fb565b005b610164600480360381019061015f91906108e4565b6105a5565b005b61016e610628565b81600160006101000a81548173ffffffffffffffffffffffffffffffffffffffff021916908373ffffffffffffffffffffffffffffffffffffffff160217905550806002819055506001600360006101000a81548160ff0219169083151502179055505050565b6101dd610628565b6101e760006106a6565b565b60008060009054906101000a900473ffffffffffffffffffffffffffffffffffffffff16905090565b600360011515600360009054906101000a900460ff1615151461026a576040517f08c379a00000000000000000000000000000000000000000000000000000000081526004016102619061096e565b60405180910390fd5b6000600160009054906101000a900473ffffffffffffffffffffffffffffffffffffffff1673ffffffffffffffffffffffffffffffffffffffff16638a5ec72b6002546040518263ffffffff1660e01b81526004016102c99190610893565b600060405180830381865afa1580156102e6573d6000803e3d6000fd5b505050506040513d6000823e3d601f19601f8201168201806040525081019061030f9190610b99565b50505050505050509250505081600381111561032e5761032d610ca9565b5b81600381111561034157610340610ca9565b5b14610381576040517f08c379a000000000000000000000000000000000000000000000000000000000815260040161037890610d24565b60405180910390fd5b6040517f08c379a00000000000000000000000000000000000000000000000000000000081526004016103b390610d90565b60405180910390fd5b600160009054906101000a900473ffffffffffffffffffffffffffffffffffffffff1681565b60025481565b600360009054906101000a900460ff1681565b600260011515600360009054906101000a900460ff16151514610453576040517f08c379a000000000000000000000000000000000000000000000000000000000815260040161044a9061096e565b60405180910390fd5b6000600160009054906101000a900473ffffffffffffffffffffffffffffffffffffffff1673ffffffffffffffffffffffffffffffffffffffff16638a5ec72b6002546040518263ffffffff1660e01b81526004016104b29190610893565b600060405180830381865afa1580156104cf573d6000803e3d6000fd5b505050506040513d6000823e3d601f19601f820116820180604052508101906104f89190610b99565b50505050505050509250505081600381111561051757610516610ca9565b5b81600381111561052a57610529610ca9565b5b1461056a576040517f08c379a000000000000000000000000000000000000000000000000000000000815260040161056190610d24565b60405180910390fd5b6040517f08c379a000000000000000000000000000000000000000000000000000000000815260040161059c90610d90565b60405180910390fd5b6105ad610628565b600073ffffffffffffffffffffffffffffffffffffffff168173ffffffffffffffffffffffffffffffffffffffff160361061c576040517f08c379a000000000000000000000000000000000000000000000000000000000815260040161061390610e22565b60405180910390fd5b610625816106a6565b50565b61063061076a565b73ffffffffffffffffffffffffffffffffffffffff1661064e6101e9565b73ffffffffffffffffffffffffffffffffffffffff16146106a4576040517f08c379a000000000000000000000000000000000000000000000000000000000815260040161069b90610e8e565b60405180910390fd5b565b60008060009054906101000a900473ffffffffffffffffffffffffffffffffffffffff169050816000806101000a81548173ffffffffffffffffffffffffffffffffffffffff021916908373ffffffffffffffffffffffffffffffffffffffff1602179055508173ffffffffffffffffffffffffffffffffffffffff168173ffffffffffffffffffffffffffffffffffffffff167f8be0079c531659141344cd1fd0a4f28419497f9722a3daafe3b4186f6b6457e060405160405180910390a35050565b600033905090565b6000604051905090565b600080fd5b600080fd5b600073ffffffffffffffffffffffffffffffffffffffff82169050919050565b60006107b182610786565b9050919050565b6107c1816107a6565b81146107cc57600080fd5b50565b6000813590506107de816107b8565b92915050565b6000819050919050565b6107f7816107e4565b811461080257600080fd5b50565b600081359050610814816107ee565b92915050565b600080604083850312156108315761083061077c565b5b600061083f858286016107cf565b925050602061085085828601610805565b9150509250929050565b610863816107a6565b82525050565b600060208201905061087e600083018461085a565b92915050565b61088d816107e4565b82525050565b60006020820190506108a86000830184610884565b92915050565b60008115159050919050565b6108c3816108ae565b82525050565b60006020820190506108de60008301846108ba565b92915050565b6000602082840312156108fa576108f961077c565b5b6000610908848285016107cf565b91505092915050565b600082825260208201905092915050565b7f416374696f6e206e6f742079657420696e697469616c697a6564000000000000600082015250565b6000610958601a83610911565b915061096382610922565b602082019050919050565b600060208201905081810360008301526109878161094b565b9050919050565b60008151905061099d816107ee565b92915050565b6000815190506109b2816107b8565b92915050565b600481106109c557600080fd5b50565b6000815190506109d7816109b8565b92915050565b600681106109ea57600080fd5b50565b6000815190506109fc816109dd565b92915050565b6000819050919050565b610a1581610a02565b8114610a2057600080fd5b50565b600081519050610a3281610a0c565b92915050565b600080fd5b600080fd5b6000601f19601f8301169050919050565b7f4e487b7100000000000000000000000000000000000000000000000000000000600052604160045260246000fd5b610a8b82610a42565b810181811067ffffffffffffffff82111715610aaa57610aa9610a53565b5b80604052505050565b6000610abd610772565b9050610ac98282610a82565b919050565b600067ffffffffffffffff821115610ae957610ae8610a53565b5b610af282610a42565b9050602081019050919050565b60005b83811015610b1d578082015181840152602081019050610b02565b60008484015250505050565b6000610b3c610b3784610ace565b610ab3565b905082815260208101848484011115610b5857610b57610a3d565b5b610b63848285610aff565b509392505050565b600082601f830112610b8057610b7f610a38565b5b8151610b90848260208601610b29565b91505092915050565b60008060008060008060008060008060006101608c8e031215610bbf57610bbe61077c565b5b6000610bcd8e828f0161098e565b9b50506020610bde8e828f016109a3565b9a50506040610bef8e828f016109c8565b9950506060610c008e828f016109ed565b9850506080610c118e828f0161098e565b97505060a0610c228e828f0161098e565b96505060c0610c338e828f0161098e565b95505060e0610c448e828f016109a3565b945050610100610c568e828f01610a23565b935050610120610c688e828f01610a23565b9250506101408c015167ffffffffffffffff811115610c8a57610c89610781565b5b610c968e828f01610b6b565b9150509295989b509295989b9093969950565b7f4e487b7100000000000000000000000000000000000000000000000000000000600052602160045260246000fd5b7f4e6f7420616c6c6f776564000000000000000000000000000000000000000000600082015250565b6000610d0e600b83610911565b9150610d1982610cd8565b602082019050919050565b60006020820190508181036000830152610d3d81610d01565b9050919050565b7f4f6f707369652d64616973790000000000000000000000000000000000000000600082015250565b6000610d7a600c83610911565b9150610d8582610d44565b602082019050919050565b60006020820190508181036000830152610da981610d6d565b9050919050565b7f4f776e61626c653a206e6577206f776e657220697320746865207a65726f206160008201527f6464726573730000000000000000000000000000000000000000000000000000602082015250565b6000610e0c602683610911565b9150610e1782610db0565b604082019050919050565b60006020820190508181036000830152610e3b81610dff565b9050919050565b7f4f776e61626c653a2063616c6c6572206973206e6f7420746865206f776e6572600082015250565b6000610e78602083610911565b9150610e8382610e42565b602082019050919050565b60006020820190508181036000830152610ea781610e6b565b905091905056fea264697066735822122009bca0d13aa4c871dea4873990644cf4965bfce5d53e0ed69e2c66a94c50132d64736f6c63430008110033",
  "linkReferences": {},
  "deployedLinkReferences": {}
}